{
  "address": "0xBB5A4C9538B384F42D7f517ea25c15CFFB1BEE0c",
  "abi": [
    {
      "inputs": [
        {
          "internalType": "address",
          "name": "initialOwner",
          "type": "address"
        }
      ],
      "stateMutability": "nonpayable",
      "type": "constructor"
    },
    {
      "inputs": [],
      "name": "BandwidthLimitExceeded",
      "type": "error"
    },
    {
      "inputs": [],
      "name": "EnforcedPause",
      "type": "error"
    },
    {
      "inputs": [],
      "name": "ExpectedPause",
      "type": "error"
    },
    {
      "inputs": [],
      "name": "FileNotFound",
      "type": "error"
    },
    {
      "inputs": [],
      "name": "FileSizeTooLarge",
      "type": "error"
    },
    {
      "inputs": [],
      "name": "FolderNotFound",
      "type": "error"
    },
    {
      "inputs": [],
      "name": "GDVNotEnabled",
      "type": "error"
    },
    {
      "inputs": [],
      "name": "InsufficientPayment",
      "type": "error"
    },
    {
      "inputs": [],
      "name": "InsufficientPermissions",
      "type": "error"
    },
    {
      "inputs": [],
      "name": "InsufficientTokenAllowance",
      "type": "error"
    },
    {
      "inputs": [],
      "name": "InvalidGDVDiscount",
      "type": "error"
    },
    {
      "inputs": [],
      "name": "InvalidInput",
      "type": "error"
    },
    {
      "inputs": [],
      "name": "InvalidSubscription",
      "type": "error"
    },
    {
      "inputs": [],
      "name": "InvalidTokenPrice",
      "type": "error"
    },
    {
      "inputs": [],
      "name": "LinkExpired",
      "type": "error"
    },
    {
      "inputs": [],
      "name": "LinkNotActive",
      "type": "error"
    },
    {
      "inputs": [],
      "name": "NotFileOwner",
      "type": "error"
    },
    {
      "inputs": [],
      "name": "NotFolderOwner",
      "type": "error"
    },
    {
      "inputs": [
        {
          "internalType": "address",
          "name": "owner",
          "type": "address"
        }
      ],
      "name": "OwnableInvalidOwner",
      "type": "error"
    },
    {
      "inputs": [
        {
          "internalType": "address",
          "name": "account",
          "type": "address"
        }
      ],
      "name": "OwnableUnauthorizedAccount",
      "type": "error"
    },
    {
      "inputs": [],
      "name": "ReentrancyGuardReentrantCall",
      "type": "error"
    },
    {
      "inputs": [],
      "name": "StorageLimitExceeded",
      "type": "error"
    },
    {
      "inputs": [],
      "name": "TokenNotSupported",
      "type": "error"
    },
    {
      "inputs": [],
      "name": "TokenTransferFailed",
      "type": "error"
    },
    {
      "anonymous": false,
      "inputs": [
        {
          "indexed": true,
          "internalType": "address",
          "name": "newDefaultToken",
          "type": "address"
        }
      ],
      "name": "DefaultTokenChanged",
      "type": "event"
    },
    {
      "anonymous": false,
      "inputs": [
        {
          "indexed": true,
          "internalType": "bytes32",
          "name": "fileId",
          "type": "bytes32"
        },
        {
          "indexed": true,
          "internalType": "address",
          "name": "accessor",
          "type": "address"
        }
      ],
      "name": "FileAccessed",
      "type": "event"
    },
    {
      "anonymous": false,
      "inputs": [
        {
          "indexed": true,
          "internalType": "bytes32",
          "name": "fileId",
          "type": "bytes32"
        }
      ],
      "name": "FileDeleted",
      "type": "event"
    },
    {
      "anonymous": false,
      "inputs": [
        {
          "indexed": true,
          "internalType": "bytes32",
          "name": "fileId",
          "type": "bytes32"
        },
        {
          "indexed": false,
          "internalType": "uint16",
          "name": "version",
          "type": "uint16"
        }
      ],
      "name": "FileUpdated",
      "type": "event"
    },
    {
      "anonymous": false,
      "inputs": [
        {
          "indexed": true,
          "internalType": "bytes32",
          "name": "fileId",
          "type": "bytes32"
        },
        {
          "indexed": true,
          "internalType": "address",
          "name": "owner",
          "type": "address"
        },
        {
          "indexed": false,
          "internalType": "string",
          "name": "cid",
          "type": "string"
        }
      ],
      "name": "FileUploaded",
      "type": "event"
    },
    {
      "anonymous": false,
      "inputs": [
        {
          "indexed": true,
          "internalType": "bytes32",
          "name": "folderId",
          "type": "bytes32"
        },
        {
          "indexed": true,
          "internalType": "address",
          "name": "owner",
          "type": "address"
        }
      ],
      "name": "FolderCreated",
      "type": "event"
    },
    {
      "anonymous": false,
      "inputs": [
        {
          "indexed": false,
          "internalType": "uint256",
          "name": "newDiscount",
          "type": "uint256"
        }
      ],
      "name": "GDVDiscountUpdated",
      "type": "event"
    },
    {
      "anonymous": false,
      "inputs": [
        {
          "indexed": false,
          "internalType": "bool",
          "name": "enabled",
          "type": "bool"
        }
      ],
      "name": "GDVEnabled",
      "type": "event"
    },
    {
      "anonymous": false,
      "inputs": [
        {
          "indexed": true,
          "internalType": "address",
          "name": "from",
          "type": "address"
        },
        {
          "indexed": false,
          "internalType": "uint256",
          "name": "amount",
          "type": "uint256"
        }
      ],
      "name": "GDVPaymentReceived",
      "type": "event"
    },
    {
      "anonymous": false,
      "inputs": [
        {
          "indexed": true,
          "internalType": "address",
          "name": "token",
          "type": "address"
        }
      ],
      "name": "GDVTokenSet",
      "type": "event"
    },
    {
      "anonymous": false,
      "inputs": [
        {
          "indexed": true,
          "internalType": "address",
          "name": "previousOwner",
          "type": "address"
        },
        {
          "indexed": true,
          "internalType": "address",
          "name": "newOwner",
          "type": "address"
        }
      ],
      "name": "OwnershipTransferred",
      "type": "event"
    },
    {
      "anonymous": false,
      "inputs": [
        {
          "indexed": true,
          "internalType": "bytes32",
          "name": "linkId",
          "type": "bytes32"
        },
        {
          "indexed": false,
          "internalType": "address",
          "name": "accessor",
          "type": "address"
        },
        {
          "indexed": false,
          "internalType": "uint128",
          "name": "amount",
          "type": "uint128"
        }
      ],
      "name": "PaidAccessCompleted",
      "type": "event"
    },
    {
      "anonymous": false,
      "inputs": [
        {
          "indexed": true,
          "internalType": "bytes32",
          "name": "linkId",
          "type": "bytes32"
        },
        {
          "indexed": true,
          "internalType": "bytes32",
          "name": "fileId",
          "type": "bytes32"
        },
        {
          "indexed": false,
          "internalType": "uint128",
          "name": "price",
          "type": "uint128"
        }
      ],
      "name": "PaidShareLinkCreated",
      "type": "event"
    },
    {
      "anonymous": false,
      "inputs": [
        {
          "indexed": false,
          "internalType": "address",
          "name": "account",
          "type": "address"
        }
      ],
      "name": "Paused",
      "type": "event"
    },
    {
      "anonymous": false,
      "inputs": [
        {
          "indexed": true,
          "internalType": "address",
          "name": "referrer",
          "type": "address"
        },
        {
          "indexed": false,
          "internalType": "uint128",
          "name": "amount",
          "type": "uint128"
        }
      ],
      "name": "ReferralRewardPaid",
      "type": "event"
    },
    {
      "anonymous": false,
      "inputs": [
        {
          "indexed": true,
          "internalType": "address",
          "name": "user",
          "type": "address"
        },
        {
          "indexed": false,
          "internalType": "uint128",
          "name": "amount",
          "type": "uint128"
        }
      ],
      "name": "RevenueWithdrawn",
      "type": "event"
    },
    {
      "anonymous": false,
      "inputs": [
        {
          "indexed": true,
          "internalType": "bytes32",
          "name": "linkId",
          "type": "bytes32"
        },
        {
          "indexed": true,
          "internalType": "bytes32",
          "name": "fileId",
          "type": "bytes32"
        }
      ],
      "name": "ShareLinkCreated",
      "type": "event"
    },
    {
      "anonymous": false,
      "inputs": [
        {
          "indexed": true,
          "internalType": "address",
          "name": "user",
          "type": "address"
        },
        {
          "indexed": false,
          "internalType": "uint8",
          "name": "tier",
          "type": "uint8"
        },
        {
          "indexed": false,
          "internalType": "uint64",
          "name": "duration",
          "type": "uint64"
        }
      ],
      "name": "SubscriptionPurchased",
      "type": "event"
    },
    {
      "anonymous": false,
      "inputs": [
        {
          "indexed": true,
          "internalType": "address",
          "name": "token",
          "type": "address"
        },
        {
          "indexed": false,
          "internalType": "uint256",
          "name": "price",
          "type": "uint256"
        }
      ],
      "name": "TokenAdded",
      "type": "event"
    },
    {
      "anonymous": false,
      "inputs": [
        {
          "indexed": true,
          "internalType": "address",
          "name": "token",
          "type": "address"
        },
        {
          "indexed": true,
          "internalType": "address",
          "name": "from",
          "type": "address"
        },
        {
          "indexed": false,
          "internalType": "uint256",
          "name": "amount",
          "type": "uint256"
        }
      ],
      "name": "TokenPaymentReceived",
      "type": "event"
    },
    {
      "anonymous": false,
      "inputs": [
        {
          "indexed": true,
          "internalType": "address",
          "name": "token",
          "type": "address"
        },
        {
          "indexed": false,
          "internalType": "uint256",
          "name": "newPrice",
          "type": "uint256"
        }
      ],
      "name": "TokenPriceUpdated",
      "type": "event"
    },
    {
      "anonymous": false,
      "inputs": [
        {
          "indexed": true,
          "internalType": "address",
          "name": "token",
          "type": "address"
        }
      ],
      "name": "TokenRemoved",
      "type": "event"
    },
    {
      "anonymous": false,
      "inputs": [
        {
          "indexed": false,
          "internalType": "address",
          "name": "account",
          "type": "address"
        }
      ],
      "name": "Unpaused",
      "type": "event"
    },
    {
      "inputs": [
        {
          "internalType": "bytes32",
          "name": "",
          "type": "bytes32"
        }
      ],
      "name": "PaidShareLinks",
      "outputs": [
        {
          "internalType": "bytes32",
          "name": "fileId",
          "type": "bytes32"
        },
        {
          "internalType": "address",
          "name": "creator",
          "type": "address"
        },
        {
          "internalType": "uint128",
          "name": "pricePerAccess",
          "type": "uint128"
        },
        {
          "internalType": "uint64",
          "name": "expiryDate",
          "type": "uint64"
        },
        {
          "internalType": "uint32",
          "name": "accessCount",
          "type": "uint32"
        },
        {
          "internalType": "uint32",
          "name": "maxAccess",
          "type": "uint32"
        },
        {
          "internalType": "string",
          "name": "password",
          "type": "string"
        },
        {
          "internalType": "bool",
          "name": "isActive",
          "type": "bool"
        }
      ],
      "stateMutability": "view",
      "type": "function"
    },
    {
      "inputs": [
        {
          "internalType": "bytes32",
          "name": "linkId",
          "type": "bytes32"
        },
        {
          "internalType": "string",
          "name": "password",
          "type": "string"
        }
      ],
      "name": "accessFileViaLink",
      "outputs": [
        {
          "internalType": "string",
          "name": "cid",
          "type": "string"
        }
      ],
      "stateMutability": "nonpayable",
      "type": "function"
    },
    {
      "inputs": [
        {
          "internalType": "bytes32",
          "name": "linkId",
          "type": "bytes32"
        },
        {
          "internalType": "string",
          "name": "password",
          "type": "string"
        }
      ],
      "name": "accessPaidShareLink",
      "outputs": [
        {
          "internalType": "string",
          "name": "cid",
          "type": "string"
        }
      ],
      "stateMutability": "payable",
      "type": "function"
    },
    {
      "inputs": [
        {
          "internalType": "address",
          "name": "token",
          "type": "address"
        },
        {
          "internalType": "uint256",
          "name": "price",
          "type": "uint256"
        }
      ],
      "name": "addPaymentToken",
      "outputs": [],
      "stateMutability": "nonpayable",
      "type": "function"
    },
    {
      "inputs": [],
      "name": "bandwidthRatePerGB",
      "outputs": [
        {
          "internalType": "uint128",
          "name": "",
          "type": "uint128"
        }
      ],
      "stateMutability": "view",
      "type": "function"
    },
    {
      "inputs": [
        {
          "internalType": "bytes[]",
          "name": "paramsArray",
          "type": "bytes[]"
        }
      ],
      "name": "batchUploadFiles",
      "outputs": [
        {
          "internalType": "bytes32[]",
          "name": "fileIds",
          "type": "bytes32[]"
        }
      ],
      "stateMutability": "payable",
      "type": "function"
    },
    {
      "inputs": [
        {
          "internalType": "uint256",
          "name": "ethAmount",
          "type": "uint256"
        }
      ],
      "name": "calculateGDVAmount",
      "outputs": [
        {
          "internalType": "uint256",
          "name": "gdvAmount",
          "type": "uint256"
        }
      ],
      "stateMutability": "view",
      "type": "function"
    },
    {
      "inputs": [
        {
          "internalType": "uint256",
          "name": "ethAmount",
          "type": "uint256"
        },
        {
          "internalType": "address",
          "name": "token",
          "type": "address"
        }
      ],
      "name": "calculateTokenAmount",
      "outputs": [
        {
          "internalType": "uint256",
          "name": "tokenAmount",
          "type": "uint256"
        }
      ],
      "stateMutability": "view",
      "type": "function"
    },
    {
      "inputs": [
        {
          "internalType": "uint256",
          "name": "gdvAmount",
          "type": "uint256"
        }
      ],
      "name": "convertGDVToEth",
      "outputs": [],
      "stateMutability": "nonpayable",
      "type": "function"
    },
    {
      "inputs": [
        {
          "internalType": "string",
          "name": "name",
          "type": "string"
        },
        {
          "internalType": "bytes32",
          "name": "parentFolderId",
          "type": "bytes32"
        },
        {
          "internalType": "bool",
          "name": "isPublic",
          "type": "bool"
        }
      ],
      "name": "createFolder",
      "outputs": [
        {
          "internalType": "bytes32",
          "name": "folderId",
          "type": "bytes32"
        }
      ],
      "stateMutability": "nonpayable",
      "type": "function"
    },
    {
      "inputs": [
        {
          "internalType": "bytes32",
          "name": "fileId",
          "type": "bytes32"
        },
        {
          "internalType": "uint128",
          "name": "pricePerAccess",
          "type": "uint128"
        },
        {
          "internalType": "uint64",
          "name": "expiryDate",
          "type": "uint64"
        },
        {
          "internalType": "uint32",
          "name": "maxAccess",
          "type": "uint32"
        },
        {
          "internalType": "string",
          "name": "password",
          "type": "string"
        }
      ],
      "name": "createPaidShareLink",
      "outputs": [
        {
          "internalType": "bytes32",
          "name": "linkId",
          "type": "bytes32"
        }
      ],
      "stateMutability": "nonpayable",
      "type": "function"
    },
    {
      "inputs": [
        {
          "internalType": "bytes32",
          "name": "fileId",
          "type": "bytes32"
        },
        {
          "internalType": "uint64",
          "name": "expiryDate",
          "type": "uint64"
        },
        {
          "internalType": "uint32",
          "name": "maxAccess",
          "type": "uint32"
        },
        {
          "internalType": "string",
          "name": "password",
          "type": "string"
        }
      ],
      "name": "createShareLink",
      "outputs": [
        {
          "internalType": "bytes32",
          "name": "linkId",
          "type": "bytes32"
        }
      ],
      "stateMutability": "nonpayable",
      "type": "function"
    },
    {
      "inputs": [
        {
          "internalType": "bytes32",
          "name": "linkId",
          "type": "bytes32"
        }
      ],
      "name": "deactivatePaidShareLink",
      "outputs": [],
      "stateMutability": "nonpayable",
      "type": "function"
    },
    {
      "inputs": [],
      "name": "defaultPaymentToken",
      "outputs": [
        {
          "internalType": "address",
          "name": "",
          "type": "address"
        }
      ],
      "stateMutability": "view",
      "type": "function"
    },
    {
      "inputs": [
        {
          "internalType": "bytes32",
          "name": "fileId",
          "type": "bytes32"
        }
      ],
      "name": "deleteFile",
      "outputs": [],
      "stateMutability": "nonpayable",
      "type": "function"
    },
    {
      "inputs": [
        {
          "internalType": "address",
          "name": "",
          "type": "address"
        }
      ],
      "name": "earnedRevenue",
      "outputs": [
        {
          "internalType": "uint128",
          "name": "",
          "type": "uint128"
        }
      ],
      "stateMutability": "view",
      "type": "function"
    },
    {
      "inputs": [],
      "name": "emergencyWithdraw",
      "outputs": [],
      "stateMutability": "nonpayable",
      "type": "function"
    },
    {
      "inputs": [
        {
          "internalType": "bytes32",
          "name": "",
          "type": "bytes32"
        }
      ],
      "name": "fileExpiryDates",
      "outputs": [
        {
          "internalType": "uint64",
          "name": "",
          "type": "uint64"
        }
      ],
      "stateMutability": "view",
      "type": "function"
    },
    {
      "inputs": [
        {
          "internalType": "bytes32",
          "name": "",
          "type": "bytes32"
        }
      ],
      "name": "fileMetadata",
      "outputs": [
        {
          "internalType": "string",
          "name": "name",
          "type": "string"
        },
        {
          "internalType": "string",
          "name": "fileType",
          "type": "string"
        },
        {
          "internalType": "string",
          "name": "description",
          "type": "string"
        }
      ],
      "stateMutability": "view",
      "type": "function"
    },
    {
      "inputs": [
        {
          "internalType": "bytes32",
          "name": "",
          "type": "bytes32"
        }
      ],
      "name": "filePayments",
      "outputs": [
        {
          "internalType": "uint128",
          "name": "",
          "type": "uint128"
        }
      ],
      "stateMutability": "view",
      "type": "function"
    },
    {
      "inputs": [
        {
          "internalType": "bytes32",
          "name": "",
          "type": "bytes32"
        },
        {
          "internalType": "address",
          "name": "",
          "type": "address"
        }
      ],
      "name": "filePermissions",
      "outputs": [
        {
          "internalType": "enum GDrive.Permission",
          "name": "",
          "type": "uint8"
        }
      ],
      "stateMutability": "view",
      "type": "function"
    },
    {
      "inputs": [
        {
          "internalType": "string",
          "name": "",
          "type": "string"
        },
        {
          "internalType": "uint256",
          "name": "",
          "type": "uint256"
        }
      ],
      "name": "fileTypeIndex",
      "outputs": [
        {
          "internalType": "bytes32",
          "name": "",
          "type": "bytes32"
        }
      ],
      "stateMutability": "view",
      "type": "function"
    },
    {
      "inputs": [
        {
          "internalType": "bytes32",
          "name": "",
          "type": "bytes32"
        }
      ],
      "name": "files",
      "outputs": [
        {
          "internalType": "string",
          "name": "cid",
          "type": "string"
        },
        {
          "internalType": "address",
          "name": "owner",
          "type": "address"
        },
        {
          "internalType": "uint128",
          "name": "size",
          "type": "uint128"
        },
        {
          "internalType": "uint64",
          "name": "uploadDate",
          "type": "uint64"
        },
        {
          "internalType": "uint32",
          "name": "downloadCount",
          "type": "uint32"
        },
        {
          "internalType": "uint16",
          "name": "version",
          "type": "uint16"
        },
        {
          "internalType": "bool",
          "name": "isEncrypted",
          "type": "bool"
        },
        {
          "internalType": "bool",
          "name": "isPublic",
          "type": "bool"
        }
      ],
      "stateMutability": "view",
      "type": "function"
    },
    {
      "inputs": [
        {
          "internalType": "bytes32",
          "name": "",
          "type": "bytes32"
        },
        {
          "internalType": "uint256",
          "name": "",
          "type": "uint256"
        }
      ],
      "name": "folderFiles",
      "outputs": [
        {
          "internalType": "bytes32",
          "name": "",
          "type": "bytes32"
        }
      ],
      "stateMutability": "view",
      "type": "function"
    },
    {
      "inputs": [
        {
          "internalType": "bytes32",
          "name": "",
          "type": "bytes32"
        },
        {
          "internalType": "address",
          "name": "",
          "type": "address"
        }
      ],
      "name": "folderPermissions",
      "outputs": [
        {
          "internalType": "enum GDrive.Permission",
          "name": "",
          "type": "uint8"
        }
      ],
      "stateMutability": "view",
      "type": "function"
    },
    {
      "inputs": [
        {
          "internalType": "bytes32",
          "name": "",
          "type": "bytes32"
        },
        {
          "internalType": "uint256",
          "name": "",
          "type": "uint256"
        }
      ],
      "name": "folderSubFolders",
      "outputs": [
        {
          "internalType": "bytes32",
          "name": "",
          "type": "bytes32"
        }
      ],
      "stateMutability": "view",
      "type": "function"
    },
    {
      "inputs": [
        {
          "internalType": "bytes32",
          "name": "",
          "type": "bytes32"
        }
      ],
      "name": "folders",
      "outputs": [
        {
          "internalType": "string",
          "name": "name",
          "type": "string"
        },
        {
          "internalType": "address",
          "name": "owner",
          "type": "address"
        },
        {
          "internalType": "bytes32",
          "name": "parentFolderId",
          "type": "bytes32"
        },
        {
          "internalType": "uint64",
          "name": "createdDate",
          "type": "uint64"
        },
        {
          "internalType": "bool",
          "name": "isPublic",
          "type": "bool"
        }
      ],
      "stateMutability": "view",
      "type": "function"
    },
    {
      "inputs": [],
      "name": "gdvDiscount",
      "outputs": [
        {
          "internalType": "uint256",
          "name": "",
          "type": "uint256"
        }
      ],
      "stateMutability": "view",
      "type": "function"
    },
    {
      "inputs": [],
      "name": "gdvEnabled",
      "outputs": [
        {
          "internalType": "bool",
          "name": "",
          "type": "bool"
        }
      ],
      "stateMutability": "view",
      "type": "function"
    },
    {
      "inputs": [],
      "name": "gdvToken",
      "outputs": [
        {
          "internalType": "contract IGDVToken",
          "name": "",
          "type": "address"
        }
      ],
      "stateMutability": "view",
      "type": "function"
    },
    {
      "inputs": [
        {
          "internalType": "bytes32",
          "name": "fileId",
          "type": "bytes32"
        }
      ],
      "name": "getFileDetails",
      "outputs": [
        {
          "internalType": "string",
          "name": "name",
          "type": "string"
        },
        {
          "internalType": "string",
          "name": "fileType",
          "type": "string"
        },
        {
          "internalType": "string",
          "name": "cid",
          "type": "string"
        },
        {
          "internalType": "uint128",
          "name": "size",
          "type": "uint128"
        },
        {
          "internalType": "uint64",
          "name": "uploadDate",
          "type": "uint64"
        },
        {
          "internalType": "bool",
          "name": "isEncrypted",
          "type": "bool"
        },
        {
          "internalType": "address",
          "name": "owner",
          "type": "address"
        },
        {
          "internalType": "string",
          "name": "description",
          "type": "string"
        },
        {
          "internalType": "uint64",
          "name": "expiryDate",
          "type": "uint64"
        },
        {
          "internalType": "uint32",
          "name": "downloadCount",
          "type": "uint32"
        },
        {
          "internalType": "uint16",
          "name": "version",
          "type": "uint16"
        }
      ],
      "stateMutability": "view",
      "type": "function"
    },
    {
      "inputs": [
        {
          "internalType": "bytes32",
          "name": "linkId",
          "type": "bytes32"
        }
      ],
      "name": "getPaidShareLink",
      "outputs": [
        {
          "internalType": "bytes32",
          "name": "fileId",
          "type": "bytes32"
        },
        {
          "internalType": "address",
          "name": "creator",
          "type": "address"
        },
        {
          "internalType": "uint128",
          "name": "pricePerAccess",
          "type": "uint128"
        },
        {
          "internalType": "uint64",
          "name": "expiryDate",
          "type": "uint64"
        },
        {
          "internalType": "uint32",
          "name": "accessCount",
          "type": "uint32"
        },
        {
          "internalType": "uint32",
          "name": "maxAccess",
          "type": "uint32"
        },
        {
          "internalType": "string",
          "name": "password",
          "type": "string"
        },
        {
          "internalType": "bool",
          "name": "isActive",
          "type": "bool"
        }
      ],
      "stateMutability": "view",
      "type": "function"
    },
    {
      "inputs": [],
      "name": "getSubscriptionTiers",
      "outputs": [
        {
          "internalType": "uint128[4]",
          "name": "storageLimits",
          "type": "uint128[4]"
        },
        {
          "internalType": "uint128[4]",
          "name": "bandwidthLimits",
          "type": "uint128[4]"
        },
        {
          "internalType": "uint128[4]",
          "name": "prices",
          "type": "uint128[4]"
        }
      ],
      "stateMutability": "view",
      "type": "function"
    },
    {
      "inputs": [
        {
          "internalType": "address",
          "name": "user",
          "type": "address"
        }
      ],
      "name": "getUserStats",
      "outputs": [
        {
          "internalType": "uint128",
          "name": "storageUsed",
          "type": "uint128"
        },
        {
          "internalType": "uint128",
          "name": "storageLimit",
          "type": "uint128"
        },
        {
          "internalType": "uint128",
          "name": "bandwidthUsed",
          "type": "uint128"
        },
        {
          "internalType": "uint128",
          "name": "bandwidthLimit",
          "type": "uint128"
        },
        {
          "internalType": "uint256",
          "name": "fileCount",
          "type": "uint256"
        },
        {
          "internalType": "uint256",
          "name": "folderCount",
          "type": "uint256"
        },
        {
          "internalType": "uint8",
          "name": "tier",
          "type": "uint8"
        },
        {
          "internalType": "uint64",
          "name": "expiryDate",
          "type": "uint64"
        }
      ],
      "stateMutability": "view",
      "type": "function"
    },
    {
      "inputs": [
        {
          "internalType": "address",
          "name": "",
          "type": "address"
        }
      ],
      "name": "lastBandwidthReset",
      "outputs": [
        {
          "internalType": "uint64",
          "name": "",
          "type": "uint64"
        }
      ],
      "stateMutability": "view",
      "type": "function"
    },
    {
      "inputs": [],
      "name": "maxFileSize",
      "outputs": [
        {
          "internalType": "uint128",
          "name": "",
          "type": "uint128"
        }
      ],
      "stateMutability": "view",
      "type": "function"
    },
    {
      "inputs": [],
      "name": "minimumStoragePeriod",
      "outputs": [
        {
          "internalType": "uint64",
          "name": "",
          "type": "uint64"
        }
      ],
      "stateMutability": "view",
      "type": "function"
    },
    {
      "inputs": [],
      "name": "owner",
      "outputs": [
        {
          "internalType": "address",
          "name": "",
          "type": "address"
        }
      ],
      "stateMutability": "view",
      "type": "function"
    },
    {
      "inputs": [],
      "name": "pause",
      "outputs": [],
      "stateMutability": "nonpayable",
      "type": "function"
    },
    {
      "inputs": [],
      "name": "paused",
      "outputs": [
        {
          "internalType": "bool",
          "name": "",
          "type": "bool"
        }
      ],
      "stateMutability": "view",
      "type": "function"
    },
    {
      "inputs": [
        {
          "internalType": "uint256",
          "name": "",
          "type": "uint256"
        }
      ],
      "name": "publicFiles",
      "outputs": [
        {
          "internalType": "bytes32",
          "name": "",
          "type": "bytes32"
        }
      ],
      "stateMutability": "view",
      "type": "function"
    },
    {
      "inputs": [
        {
          "internalType": "uint256",
          "name": "",
          "type": "uint256"
        }
      ],
      "name": "publicFolders",
      "outputs": [
        {
          "internalType": "bytes32",
          "name": "",
          "type": "bytes32"
        }
      ],
      "stateMutability": "view",
      "type": "function"
    },
    {
      "inputs": [
        {
          "internalType": "uint8",
          "name": "tier",
          "type": "uint8"
        },
        {
          "internalType": "uint64",
          "name": "duration",
          "type": "uint64"
        },
        {
          "internalType": "address",
          "name": "referrer",
          "type": "address"
        }
      ],
      "name": "purchaseSubscription",
      "outputs": [],
      "stateMutability": "payable",
      "type": "function"
    },
    {
      "inputs": [
        {
          "internalType": "uint8",
          "name": "tier",
          "type": "uint8"
        },
        {
          "internalType": "uint64",
          "name": "duration",
          "type": "uint64"
        },
        {
          "internalType": "address",
          "name": "referrer",
          "type": "address"
        }
      ],
      "name": "purchaseSubscriptionWithGDV",
      "outputs": [],
      "stateMutability": "nonpayable",
      "type": "function"
    },
    {
      "inputs": [
        {
          "internalType": "uint8",
          "name": "tier",
          "type": "uint8"
        },
        {
          "internalType": "uint64",
          "name": "duration",
          "type": "uint64"
        },
        {
          "internalType": "address",
          "name": "referrer",
          "type": "address"
        },
        {
          "internalType": "address",
          "name": "token",
          "type": "address"
        }
      ],
      "name": "purchaseSubscriptionWithToken",
      "outputs": [],
      "stateMutability": "nonpayable",
      "type": "function"
    },
    {
      "inputs": [],
      "name": "referralRewardPercentage",
      "outputs": [
        {
          "internalType": "uint64",
          "name": "",
          "type": "uint64"
        }
      ],
      "stateMutability": "view",
      "type": "function"
    },
    {
      "inputs": [
        {
          "internalType": "address",
          "name": "",
          "type": "address"
        }
      ],
      "name": "referralRewards",
      "outputs": [
        {
          "internalType": "uint128",
          "name": "",
          "type": "uint128"
        }
      ],
      "stateMutability": "view",
      "type": "function"
    },
    {
      "inputs": [
        {
          "internalType": "address",
          "name": "",
          "type": "address"
        }
      ],
      "name": "referrers",
      "outputs": [
        {
          "internalType": "address",
          "name": "",
          "type": "address"
        }
      ],
      "stateMutability": "view",
      "type": "function"
    },
    {
      "inputs": [
        {
          "internalType": "address",
          "name": "token",
          "type": "address"
        }
      ],
      "name": "removePaymentToken",
      "outputs": [],
      "stateMutability": "nonpayable",
      "type": "function"
    },
    {
      "inputs": [
        {
          "internalType": "bytes32",
          "name": "fileId",
          "type": "bytes32"
        },
        {
          "internalType": "uint64",
          "name": "additionalPeriod",
          "type": "uint64"
        }
      ],
      "name": "renewFile",
      "outputs": [],
      "stateMutability": "payable",
      "type": "function"
    },
    {
      "inputs": [],
      "name": "renounceOwnership",
      "outputs": [],
      "stateMutability": "nonpayable",
      "type": "function"
    },
    {
      "inputs": [
        {
          "internalType": "uint128",
          "name": "_rate",
          "type": "uint128"
        }
      ],
      "name": "setBandwidthRate",
      "outputs": [],
      "stateMutability": "nonpayable",
      "type": "function"
    },
    {
      "inputs": [
        {
          "internalType": "address",
          "name": "token",
          "type": "address"
        }
      ],
      "name": "setDefaultPaymentToken",
      "outputs": [],
      "stateMutability": "nonpayable",
      "type": "function"
    },
    {
      "inputs": [
        {
          "internalType": "bool",
          "name": "enabled",
          "type": "bool"
        }
      ],
      "name": "setGDVEnabled",
      "outputs": [],
      "stateMutability": "nonpayable",
      "type": "function"
    },
    {
      "inputs": [
        {
          "internalType": "address",
          "name": "token",
          "type": "address"
        }
      ],
      "name": "setGDVToken",
      "outputs": [],
      "stateMutability": "nonpayable",
      "type": "function"
    },
    {
      "inputs": [
        {
          "internalType": "uint128",
          "name": "_rate",
          "type": "uint128"
        }
      ],
      "name": "setStorageRate",
      "outputs": [],
      "stateMutability": "nonpayable",
      "type": "function"
    },
    {
      "inputs": [
        {
          "internalType": "bytes32",
          "name": "",
          "type": "bytes32"
        }
      ],
      "name": "shareLinkPasswords",
      "outputs": [
        {
          "internalType": "string",
          "name": "",
          "type": "string"
        }
      ],
      "stateMutability": "view",
      "type": "function"
    },
    {
      "inputs": [
        {
          "internalType": "bytes32",
          "name": "",
          "type": "bytes32"
        }
      ],
      "name": "shareLinks",
      "outputs": [
        {
          "internalType": "bytes32",
          "name": "fileId",
          "type": "bytes32"
        },
        {
          "internalType": "address",
          "name": "creator",
          "type": "address"
        },
        {
          "internalType": "uint64",
          "name": "expiryDate",
          "type": "uint64"
        },
        {
          "internalType": "uint32",
          "name": "accessCount",
          "type": "uint32"
        },
        {
          "internalType": "uint32",
          "name": "maxAccess",
          "type": "uint32"
        },
        {
          "internalType": "bool",
          "name": "isActive",
          "type": "bool"
        }
      ],
      "stateMutability": "view",
      "type": "function"
    },
    {
      "inputs": [],
      "name": "storageRatePerMBPerYear",
      "outputs": [
        {
          "internalType": "uint128",
          "name": "",
          "type": "uint128"
        }
      ],
      "stateMutability": "view",
      "type": "function"
    },
    {
      "inputs": [
        {
          "internalType": "address",
          "name": "",
          "type": "address"
        }
      ],
      "name": "subscriptions",
      "outputs": [
        {
          "internalType": "address",
          "name": "user",
          "type": "address"
        },
        {
          "internalType": "uint128",
          "name": "storageLimit",
          "type": "uint128"
        },
        {
          "internalType": "uint128",
          "name": "bandwidthLimit",
          "type": "uint128"
        },
        {
          "internalType": "uint64",
          "name": "expiryDate",
          "type": "uint64"
        },
        {
          "internalType": "uint8",
          "name": "tier",
          "type": "uint8"
        },
        {
          "internalType": "bool",
          "name": "isActive",
          "type": "bool"
        }
      ],
      "stateMutability": "view",
      "type": "function"
    },
    {
      "inputs": [
        {
          "internalType": "address",
          "name": "",
          "type": "address"
        }
      ],
      "name": "supportedTokens",
      "outputs": [
        {
          "internalType": "bool",
          "name": "",
          "type": "bool"
        }
      ],
      "stateMutability": "view",
      "type": "function"
    },
    {
      "inputs": [
        {
          "internalType": "string",
          "name": "",
          "type": "string"
        },
        {
          "internalType": "uint256",
          "name": "",
          "type": "uint256"
        }
      ],
      "name": "taggedFiles",
      "outputs": [
        {
          "internalType": "bytes32",
          "name": "",
          "type": "bytes32"
        }
      ],
      "stateMutability": "view",
      "type": "function"
    },
    {
      "inputs": [
        {
          "internalType": "uint256",
          "name": "",
          "type": "uint256"
        }
      ],
      "name": "tierBandwidthLimits",
      "outputs": [
        {
          "internalType": "uint128",
          "name": "",
          "type": "uint128"
        }
      ],
      "stateMutability": "view",
      "type": "function"
    },
    {
      "inputs": [
        {
          "internalType": "uint256",
          "name": "",
          "type": "uint256"
        }
      ],
      "name": "tierPrices",
      "outputs": [
        {
          "internalType": "uint128",
          "name": "",
          "type": "uint128"
        }
      ],
      "stateMutability": "view",
      "type": "function"
    },
    {
      "inputs": [
        {
          "internalType": "uint256",
          "name": "",
          "type": "uint256"
        }
      ],
      "name": "tierStorageLimits",
      "outputs": [
        {
          "internalType": "uint128",
          "name": "",
          "type": "uint128"
        }
      ],
      "stateMutability": "view",
      "type": "function"
    },
    {
      "inputs": [
        {
          "internalType": "address",
          "name": "",
          "type": "address"
        }
      ],
      "name": "tokenPrices",
      "outputs": [
        {
          "internalType": "uint256",
          "name": "",
          "type": "uint256"
        }
      ],
      "stateMutability": "view",
      "type": "function"
    },
    {
      "inputs": [
        {
          "internalType": "address",
          "name": "newOwner",
          "type": "address"
        }
      ],
      "name": "transferOwnership",
      "outputs": [],
      "stateMutability": "nonpayable",
      "type": "function"
    },
    {
      "inputs": [],
      "name": "unpause",
      "outputs": [],
      "stateMutability": "nonpayable",
      "type": "function"
    },
    {
      "inputs": [
        {
          "internalType": "bytes32",
          "name": "fileId",
          "type": "bytes32"
        },
        {
          "internalType": "string",
          "name": "newCID",
          "type": "string"
        },
        {
          "internalType": "uint128",
          "name": "newSize",
          "type": "uint128"
        }
      ],
      "name": "updateFileVersion",
      "outputs": [],
      "stateMutability": "nonpayable",
      "type": "function"
    },
    {
      "inputs": [
        {
          "internalType": "uint256",
          "name": "discount",
          "type": "uint256"
        }
      ],
      "name": "updateGDVDiscount",
      "outputs": [],
      "stateMutability": "nonpayable",
      "type": "function"
    },
    {
      "inputs": [
        {
          "internalType": "uint8",
          "name": "tier",
          "type": "uint8"
        },
        {
          "internalType": "uint128",
          "name": "storageLimit",
          "type": "uint128"
        },
        {
          "internalType": "uint128",
          "name": "bandwidthLimit",
          "type": "uint128"
        },
        {
          "internalType": "uint128",
          "name": "price",
          "type": "uint128"
        }
      ],
      "name": "updateTierConfig",
      "outputs": [],
      "stateMutability": "nonpayable",
      "type": "function"
    },
    {
      "inputs": [
        {
          "internalType": "address",
          "name": "token",
          "type": "address"
        },
        {
          "internalType": "uint256",
          "name": "newPrice",
          "type": "uint256"
        }
      ],
      "name": "updateTokenPrice",
      "outputs": [],
      "stateMutability": "nonpayable",
      "type": "function"
    },
    {
      "inputs": [
        {
          "internalType": "bytes",
          "name": "params",
          "type": "bytes"
        }
      ],
      "name": "uploadFile",
      "outputs": [
        {
          "internalType": "bytes32",
          "name": "fileId",
          "type": "bytes32"
        }
      ],
      "stateMutability": "payable",
      "type": "function"
    },
    {
      "inputs": [
        {
          "internalType": "bytes",
          "name": "params",
          "type": "bytes"
        }
      ],
      "name": "uploadFileWithGDV",
      "outputs": [
        {
          "internalType": "bytes32",
          "name": "fileId",
          "type": "bytes32"
        }
      ],
      "stateMutability": "nonpayable",
      "type": "function"
    },
    {
      "inputs": [
        {
          "internalType": "bytes",
          "name": "params",
          "type": "bytes"
        },
        {
          "internalType": "address",
          "name": "token",
          "type": "address"
        }
      ],
      "name": "uploadFileWithToken",
      "outputs": [
        {
          "internalType": "bytes32",
          "name": "fileId",
          "type": "bytes32"
        }
      ],
      "stateMutability": "nonpayable",
      "type": "function"
    },
    {
      "inputs": [
        {
          "internalType": "address",
          "name": "",
          "type": "address"
        }
      ],
      "name": "userBalances",
      "outputs": [
        {
          "internalType": "uint128",
          "name": "",
          "type": "uint128"
        }
      ],
      "stateMutability": "view",
      "type": "function"
    },
    {
      "inputs": [
        {
          "internalType": "address",
          "name": "",
          "type": "address"
        }
      ],
      "name": "userBandwidthUsed",
      "outputs": [
        {
          "internalType": "uint128",
          "name": "",
          "type": "uint128"
        }
      ],
      "stateMutability": "view",
      "type": "function"
    },
    {
      "inputs": [
        {
          "internalType": "address",
          "name": "",
          "type": "address"
        },
        {
          "internalType": "uint256",
          "name": "",
          "type": "uint256"
        }
      ],
      "name": "userFiles",
      "outputs": [
        {
          "internalType": "bytes32",
          "name": "",
          "type": "bytes32"
        }
      ],
      "stateMutability": "view",
      "type": "function"
    },
    {
      "inputs": [
        {
          "internalType": "address",
          "name": "",
          "type": "address"
        },
        {
          "internalType": "uint256",
          "name": "",
          "type": "uint256"
        }
      ],
      "name": "userFolders",
      "outputs": [
        {
          "internalType": "bytes32",
          "name": "",
          "type": "bytes32"
        }
      ],
      "stateMutability": "view",
      "type": "function"
    },
    {
      "inputs": [
        {
          "internalType": "address",
          "name": "",
          "type": "address"
        }
      ],
      "name": "userStorageUsed",
      "outputs": [
        {
          "internalType": "uint128",
          "name": "",
          "type": "uint128"
        }
      ],
      "stateMutability": "view",
      "type": "function"
    },
    {
      "inputs": [],
      "name": "withdrawEarnings",
      "outputs": [],
      "stateMutability": "nonpayable",
      "type": "function"
    },
    {
      "inputs": [
        {
          "internalType": "address",
          "name": "token",
          "type": "address"
        },
        {
          "internalType": "uint256",
          "name": "amount",
          "type": "uint256"
        }
      ],
      "name": "withdrawTokens",
      "outputs": [],
      "stateMutability": "nonpayable",
      "type": "function"
    },
    {
      "stateMutability": "payable",
      "type": "receive"
    }
  ],
  "transactionHash": "0xf19c656c9489498d9aeae62798519576700c68cede5e01ec19df93e1080ff0f2",
  "args": [
    "0xdeFe84043EA9eC2E14747685d7295574b6bFbde7"
  ],
  "numDeployments": 1,
  "solcInputHash": "03bccd68b40dc89b41b8f0170c02b28f",
  "bytecode": "0x608034620002b5576001600160401b0390601f6200552838819003918201601f1916830192919084841183851017620002ba578160209284926040968752833981010312620002b557516001600160a01b03929083811690819003620002b55780156200029d57600080546001600160a01b0319808216841783559591929190829082167f8be0079c531659141344cd1fd0a4f28419497f9722a3daafe3b4186f6b6457e08580a360018055600280546001600160881b0319166609184e72a0000017905574014000000000000000000000000000048c27395000600355600480546001600160801b03199081166903e80000000000278d00179091557419000000000000000000000000000000004000000060205574fa0000000000000000000000000000000280000000602255642386f26fc160901b6024557509c4000000000000000000000000000000fa000000006021557561a8000000000000000000000000000009c4000000006023557702c68af0bb140000000000000000000000b1a2bc2ec50000602555426301e1338081019391908410620002895786519060c08201828110888211176200027557918899600292899a99948a5285835260208301634000000081528a840192640280000000845286606086019a168a5260808501988b8a5260a086019860018a528c52600a6020528c8c209551169085541617845560018060801b03905116915160801b161760018201550193511669ff00000000000000000068ff000000000000000085549451881b169251151560481b169260018060501b0319161717179055600f6020522090421660018060401b0319825416179055516152579081620002d18239f35b634e487b7160e01b87526041600452602487fd5b634e487b7160e01b85526011600452602485fd5b8251631e4fbdf760e01b815260006004820152602490fd5b600080fd5b634e487b7160e01b600052604160045260246000fdfe6080604052600436101561001b575b361561001957600080fd5b005b60003560e01c80630573a0dd14613c9957806306b091f914613c04578063128034d1146139ac5780631376d0171461398b5780631fd45a6a1461393a5780632002ccad1461390a578063204120bc146138d057806323ced80b146138b257806326224c641461386f578063267275e11461383d5780632a7c4677146138175780632b8578fe146137cd578063300eccab1461379d578063313b8ec3146135575780633c4dd94f146134635780633ccfc7c31461342e5780633f4ba83a146133c457806343404cc2146133395780634506708e146133105780634a3b68cc146132d55780634e43603a1461322157806353aaa63b146131de578063550b3a99146130d6578063560dc342146130935780635b39515914612ef15780635c975abb14612ece5780635ce3957d14612e545780635d8e858414612dd75780635e3fddf314612d875780636412173e14612d5e5780636621599414612d2d57806368c4ac2614612cee5780636ab799f1146128755780636e4c5f011461284e5780636ec33bb6146127cb578063715018a614612772578063718f38a614612728578063776facd9146124dd5780637cb570ab146124965780637dbc96fa1461246f5780637f50e7cc146124465780638456cb59146123ec5780638b32a3e7146123685780638da5cb5b1461233f578063920a253e1461231557806393b6aac01461228f578063954da27f1461224c57806396d3ea891461213657806398c9adff1461208357806398f7733e14612043578063a02b827714611f35578063a22064d414611ec6578063a41ca8b114611e83578063a43bcc1214611ded578063a512542114611d3d578063a56360f814611ce9578063a57b8b7514611c81578063b73c6ce914611bf5578063bb29758114611bb5578063bbcffbc71461186b578063bd44a64f1461183a578063be26264414611429578063c89515a4146113e6578063c90bab4d146113b1578063d09e067e1461135c578063d3ab4b4214611209578063d4ee651b1461116d578063d8ed9a6c14611101578063d91dd84f146110be578063db2e21bc14611077578063dca2996114611025578063e371817e14610fff578063e704a34d14610c32578063e83306dd14610b01578063e85d35011461087a578063f0258b4f14610854578063f046395a146107cc578063f0a2580a14610673578063f2fde38b146105ea578063f479dd5814610470578063f74b059e146103d55763fe75e3380361000e57346103d05760003660031901126103d05760206001600160801b0360025460081c16604051908152f35b600080fd5b346103d05760203660031901126103d0576103ee613e59565b6103f661418b565b6001600160a01b031680151580610457575b61044557602880546001600160a01b031916821790557f334a8f7281ef0ee35ea90f5cf0308e16a1cfd42188da6400fbe6673116e52add600080a2005b604051633dd1b30560e01b8152600490fd5b5080600052602660205260ff6040600020541615610408565b346103d0576020806003193601126103d0576001600160401b036004358181116103d0576104a2903690600401613e9b565b6104ad9291926141d5565b6104b56141b7565b6029549160ff8360a01c16156105d857610516906104d58386018661420f565b97505050505050925050620fffff670de0b6b3a7640000936301e13380856001600160801b03928360025460081c169516020493160160141c020204615183565b6040516323b872dd60e01b815233600482015230602482015260448101829052909390928590849060649082906000906001600160a01b03165af19283156105cc576105679361059f575b50614436565b906040519081527f7e01bdfcb9e374847e0052332dc2e9561d204d892ab54122b8c8f79a3708aad4833392a260018055604051908152f35b6105be90863d88116105c5575b6105b68183613d4a565b810190614f8b565b5085610561565b503d6105ac565b6040513d6000823e3d90fd5b6040516395ebbfa760e01b8152600490fd5b346103d05760203660031901126103d057610603613e59565b61060b61418b565b6001600160a01b0390811690811561065a57600054826001600160601b0360a01b821617600055167f8be0079c531659141344cd1fd0a4f28419497f9722a3daafe3b4186f6b6457e0600080a3005b604051631e4fbdf760e01b815260006004820152602490fd5b346103d05760403660031901126103d0576001600160401b036004358181116103d0576106a4903690600401613e9b565b6106af929192613e85565b926106b86141d5565b6106c06141b7565b60018060a01b03841692836000526020946026865260ff604060002054161561044557610734916106f38585018561420f565b97505050505050925050620fffff670de0b6b3a7640000936301e13380856001600160801b03928360025460081c169516020493160160141c020204614ef5565b6040516323b872dd60e01b8152336004820152306024820152604481018290529092909185836064816000895af19283156105cc57610777936107af5750614436565b916040519182527fc7e4cc89b0a980a194012a15142f99855680e1a060fc1955ce40af0800a7b1e8843393a360018055604051908152f35b6107c590873d89116105c5576105b68183613d4a565b5086610561565b346103d05760203660031901126103d05760c06001600160a01b03806107f0613e59565b16600052600a60205260ff6040600020918254169160026001820154910154906040519384526001600160801b038116602085015260801c60408401526001600160401b0381166060840152818160401c16608084015260481c16151560a0820152f35b346103d05760203660031901126103d0576020610872600435615183565b604051908152f35b346103d05760603660031901126103d0576001600160401b036004356024358281116103d0576108ae903690600401613e9b565b6108b9939193614137565b836000526020926006845260019260018060a01b038460406000200154163303610aef5785600052600685528160026040600020015460801c1615610add57856000526006855260406000209133600052600a8652604060002093600d87526001600160801b0390610932818360406000205416614350565b90600286019683808a610949828c54168097614da9565b93015416911611610acb57829133600052600d8a52604060002090815490846001600160801b03199687928603168184160116911617905516908554161784558111610ab5576109a38161099d8454613cd9565b84614382565b6000601f8211600114610a305781907f7a22a9ee3d48ed0e5124a8483a35d03987ec822583eb91b03ffc68044832442e9798600092610a25575b5050600019600383901b1c191690841b1790555b805461ffff60e01b19811660e091821c61ffff90811690940190911b61ffff60e01b161781555460e01c16604051908152a2005b0135905088806109dd565b601f1982169083600052866000209160005b818110610aa057509883929187947f7a22a9ee3d48ed0e5124a8483a35d03987ec822583eb91b03ffc68044832442e9a9b10610a86575b505050811b0190556109f1565b0135600019600384901b60f8161c19169055888080610a79565b8a830135845592870192918801918801610a42565b634e487b7160e01b600052604160045260246000fd5b604051634ba8b0a960e01b8152600490fd5b604051633b4835d960e21b8152600490fd5b60405163abea322960e01b8152600490fd5b6020806003193601126103d0576001600160401b03906004358281116103d057366023820112156103d0578060040135928084116103d057600560243686831b85018201116103d057610b5795919493956141d5565b610b5f6141b7565b610b68826141f8565b94610b766040519687613d4a565b828652610b82836141f8565b8686019790601f190136893736819003604219019160005b858110610be25789898960019081805560405192818401908285525180915260408401949160005b828110610bcf5785870386f35b8351875295810195928101928401610bc2565b8481839b999a9b1b84010135848112156103d05783019085820135918883116103d05760440182360381136103d057600192610c1d91614436565b610c27828d614d95565b520198979698610b9a565b346103d05760a03660031901126103d057610c4b614121565b604435906001600160401b03821682036103d0576064359063ffffffff821682036103d0576084356001600160401b0381116103d057610c8f903690600401613e9b565b90600435600052600660205260018060a01b03600160406000200154163303610aef5760043560005260066020526001600160401b0360026040600020015460801c1615610add576001600160801b038316158015610fec575b610fda576005805467ffffffffffffffff1981166001600160401b03918216600101918216179091556040805160043560208201523360601b6bffffffffffffffffffffffff19169181019190915242605482015260c09190911b6001600160c01b0319166074820152610dc6929063ffffffff90610d7581607c81015b03601f198101835282613d4a565b60208151910120956001600160401b0360405198610d928a613d13565b6004358a523360208b01526001600160801b03881660408b0152166060890152600060808901521660a08701523691613f9b565b60c0840152600160e084015281600052601e602052604060002092805184556001840160018060a01b036020830151166001600160601b0360a01b825416179055610eac600285016001600160801b036040840151166001600160801b0319825416178155610e646001600160401b0360608501511682908154906001600160401b0360801b9060801b16906001600160401b0360801b1916179055565b6080830151815463ffffffff60c01b191660c09190911b63ffffffff60c01b1617815560a083015181546001600160e01b031660e09190911b6001600160e01b031916179055565b600384019360c08201519485516001600160401b038111610ab557602096610ede82610ed88554613cd9565b85614382565b8790601f8311600114610f6e5791806004949260e09694600092610f63575b50508160011b916000199060031b1c19161790555b01910151151560ff801983541691161790556001600160801b0360405191168152817f1015d323bc2f29aaf19d900ccbc6b1856888b72307ec5a75c5a9c43cd4fb0c628460043593a3604051908152f35b015190508a80610efd565b90601f1983169184600052896000209260005b818110610fc3575092600192859260e098966004989610610faa575b505050811b019055610f12565b015160001960f88460031b161c191690558a8080610f9d565b92938b600181928786015181550195019301610f81565b60405163b4fa3fb360e01b8152600490fd5b50426001600160401b0386161115610ce9565b346103d05760403660031901126103d057602061087261101d613e85565b600435614ef5565b60203660031901126103d0576004356001600160401b0381116103d05761106b6110556020923690600401613e9b565b9061105e6141d5565b6110666141b7565b614436565b60018055604051908152f35b346103d05760003660031901126103d05761109061418b565b6000805481908190819047906001600160a01b03168282156110b5575bf1156105cc57005b506108fc6110ad565b346103d05760203660031901126103d0576001600160a01b036110df613e59565b16600052600d60205260206001600160801b0360406000205416604051908152f35b346103d05760203660031901126103d0576004358015158091036103d05760207f1d3a2e9f214b18b25530f3e0058585b6ec740535caa59cd1770ccbfd90c397ac9161114b61418b565b6029805460ff60a01b191660a083901b60ff60a01b16179055604051908152a1005b346103d05760403660031901126103d057611186613e59565b6024359061119261418b565b6001600160a01b031660008181526026602052604090205490919060ff16156104455780156111f75760207fceb40be0a58aa33916c199e469842b614ef313295573c15d82f85cc9d1a89d3291836000526027825280604060002055604051908152a2005b604051637841c2c960e11b8152600490fd5b346103d05760003660031901126103d05760405161122681613d2f565b608080913690378060405161123a81613d2f565b3690378060405161124a81613d2f565b369037604051602090600082825b60016004818501101561128a57604060029284546001600160801b0381168252891c8882015201920192019190611258565b5050505061129781613d2f565b60405191600090602290845b600190600482860110156112d75790604060029285546001600160801b03811682528a1c85820152019301930192916112a3565b878688856112e482613d2f565b60405192600091602491855b600190600482870110156113245790604060029286546001600160801b03811682528b1c86820152019401940193926112f0565b6101808361135a8a61134f8b8e61133a84613d2f565b611347604051809761415a565b85019061415a565b61010083019061415a565bf35b346103d057602061138461136f36613fff565b92908160405193828580945193849201613e11565b8101601881520301902080548210156103d0576020916113a391613f32565b90546040519160031b1c8152f35b346103d05760203660031901126103d057600435600052601260205260206001600160801b0360406000205416604051908152f35b346103d05760203660031901126103d0576001600160a01b03611407613e59565b16600052600f60205260206001600160401b0360406000205416604051908152f35b346103d05760603660031901126103d0576004356001600160401b0381116103d057611459903690600401613e9b565b604435151580604435036103d05733600052600a60205260026040600020015460ff8160481c1615908115611825575b50611813578115610fda5760243561175e575b6004546001600160401b0360c01b60018260c01c0160c01b16809160018060c01b0316176004556040516114fb605c82602081019487898737878201903360601b6020830152426034830152605482015203603c810184520182613d4a565b519020916040519360a08501918583106001600160401b03841117610ab557611528926040523691613f9b565b835233602084015260243560408401526001600160401b0342166060840152608083015280600052600860205260406000209180519283516001600160401b038111610ab55761157c8161099d8454613cd9565b6020601f82116001146116f257819060039495966000926116e7575b50508160011b9160001990851b1c19161781555b6001810160018060a01b036020850151166001600160601b0360a01b8254161790556040830151600282015501906001600160401b0360608201511660ff60401b60808454930151151560401b169168ffffffffffffffffff19161717905533600052600c602052611622816040600020614410565b6024356116c9575b604435611663575b60405160209133817f4e611b5a9758c78c82d7492e2f9bb1969b31be7f6463f3ffb3834d20310d1d4d600080a38152f35b601a5490600160401b821015610ab5576001820180601a558210156116b357601a6000527f057c384a7d1c54f3a1b2e5e67b2617b8224fdfd1ea7234eea573a6ff665ff63e909101819055611632565b634e487b7160e01b600052603260045260246000fd5b60243560005260156020526116e2816040600020614410565b61162a565b015190508680611598565b8260005260206000209560005b601f198416811061174657509582916003959697600194601f1981161061172e575b505050811b0181556115ac565b015160001983871b60f8161c19169055868080611721565b828201518855600190970196602092830192016116ff565b60243560005260086020526001600160401b036003604060002001541615611801576024356000908152600860205260409020600101546001600160a01b0316331415806117bf575b1561149c575b60405163061cbdd360e51b8152600490fd5b50601160205260406000203360005260205260ff6040600020541660048110156117eb576002116117a7565b634e487b7160e01b600052602160045260246000fd5b60405163fc061e9f60e01b8152600490fd5b604051630fb532db60e11b8152600490fd5b90506001600160401b03429116111584611489565b346103d0576118483661408f565b906000526015602052604060002080548210156103d0576020916113a391613f32565b346103d05760803660031901126103d057611884614066565b6044359063ffffffff821682036103d0576064356001600160401b0381116103d0576118b4903690600401613e9b565b926004356000526006602052604060002060018060a01b036001820154163314159081611b87575b81611b77575b506117ad5760043560005260066020526001600160401b0360026040600020015460801c1615610add57426001600160401b0384161115610fda576005805467ffffffffffffffff1981166001600160401b039182166001019182161790915560408051600435602082019081523360601b6bffffffffffffffffffffffff19169282019290925242605482015260c09290921b6001600160c01b03191660748301529061199381607c8101610d67565b519020926040518060c08101106001600160401b0360c083011117610ab55760c08101604090815260043582523360208084019182526001600160401b039490941682840190815260006060850181815263ffffffff97881660808701908152600160a08089018281528d86526009909a5296909320965187559351925190516001600160e01b031960e09190911b166001600160a01b0390931667ffffffffffffffff60a01b9190951b16939093171791830191909155929060020192511664ff0000000083549251151560201b169164ffffffffff19161717905582611aaa575b60208260405190600435817fe858c17ec4703e144d651708aca8173d9af23b71bb0e3515c585dfe932c2eff9600080a38152f35b90601b60205260406000206001600160401b038411610ab55783611ad460209561099d8454613cd9565b6000601f8211600114611b135781929394600092611b08575b50508160011b916000199060031b1c19161790555b82611a76565b013590508580611aed565b601f1982169483600052866000209160005b878110611b60575083600195969710611b46575b505050811b019055611b02565b0135600019600384901b60f8161c19169055858080611b39565b909288600181928686013581550194019101611b25565b60029150015460f81c15856118e2565b9050601060205260406000203360005260205260ff6040600020541660048110156117eb57600111906118dc565b346103d05760203660031901126103d05760043560048110156103d0576001600160801b03611be5602092613f80565b9190546040519260031b1c168152f35b346103d05760003660031901126103d05733600052601f6020526001600160801b03604060002054168015611c4e57600080808093338252601f602052604082206001600160801b031981541690553382f1156105cc57005b60405162461bcd60e51b815260206004820152600b60248201526a4e6f206561726e696e677360a81b6044820152606490fd5b346103d05760203660031901126103d057600435611c9d61418b565b6127108111611cd7576020817fe4fa623f284b85c795e990f9cc4f6b5b0626280c3889f62851b8989a2609a47a92602a55604051908152a1005b60405163d027d9d760e01b8152600490fd5b346103d05760403660031901126103d057611d02613e85565b600435600052601160205260406000209060018060a01b0316600052602052611d3960ff604060002054166040519182918261407c565b0390f35b346103d05760203660031901126103d057611d56613e59565b611d5e61418b565b6001600160a01b0390811660008181526026602052604090205490919060ff161561044557816000526026602052604060002060ff1981541690556027602052600060408120558160285491821614611dda575b507f4c910b69fe65a61f7531b9c5042b2329ca7179c77290aa7e2eb3afa3c8511fd3600080a2005b6001600160a01b03191660285581611db2565b346103d05760803660031901126103d057611e06614056565b611e0e614121565b90611e17614137565b606435916001600160801b03831683036103d057611e3361418b565b600360ff821611610fda57611e7e611e5592611e7561001996611e5585613f80565b90919082549060031b916001600160801b03809116831b921b1916179055565b611e5583613f4a565b613f65565b346103d05760203660031901126103d0576004356000908152601e6020526040902060018101546001600160a01b03163303610aef57600401805460ff19169055005b346103d05760203660031901126103d057611edf613e59565b611ee761418b565b6001600160a01b03168015610fda57602980546001600160a81b0319168217600160a01b1790557f64395189a34ae5d780e1c8be6d937d798e5d7f5ade1c691495b59e9169e875d5600080a2005b60403660031901126103d057600435611f4c614066565b6000828152600660205260409020600101546001600160a01b03163303610aef578160005260066020526001600160401b03908160026040600020015460801c1615610add578260005260066020526001600160801b03928360026040600020015416670de0b6b3a7640000908560025460081c16620fffff6301e13380848888160204920160141c02020434106120315760005260136020526040600020918254918183160116906001600160401b031916179055601260205260406000209081549061201e813416828416614350565b6001600160801b03199092169116179055005b60405163cd1c886760e01b8152600490fd5b346103d05760203660031901126103d0576001600160801b0361206461410b565b61206c61418b565b166001600160801b03196003541617600355600080f35b346103d05760203660031901126103d05760043560005260066020526120d760406000206120b081613d6b565b90600260018060a01b03600183015416910154604051938493610100808652850190613e34565b9160208401526001600160801b03811660408401526001600160401b038160801c16606084015263ffffffff8160c01c16608084015261ffff8160e01c1660a084015260ff8160f01c16151560c084015260f81c151560e08301520390f35b346103d0576020806003193601126103d0576004356121536141d5565b60295460ff8160a01c16156105d8576040516323b872dd60e01b815233600482015230602482015260448101839052906001600160a01b039084908390606490829060009086165af19182156105cc57849261222f575b506029541691602460405180948193638fc7a25d60e01b835260048301525afa9182156105cc57600092612200575b50506000808080938181156121f7575b3390f1156105cc5760018055005b506108fc6121e9565b90809250813d8311612228575b6122178183613d4a565b810103126103d057516000806121d9565b503d61220d565b61224590833d85116105c5576105b68183613d4a565b50846121aa565b346103d05760203660031901126103d0576001600160a01b0361226d613e59565b16600052601f60205260206001600160801b0360406000205416604051908152f35b346103d05760203660031901126103d05760043560005260086020526122ec60406000206122bc81613d6b565b9060ff60018060a01b0360018301541691600360028201549101549060405195869560a0875260a0870190613e34565b93602086015260408501526001600160401b038116606085015260401c16151560808301520390f35b346103d05760003660031901126103d05760206001600160401b0360045460401c16604051908152f35b346103d05760003660031901126103d0576000546040516001600160a01b039091168152602090f35b346103d05760203660031901126103d057600435600052601e6020526040600020805490611d3960018060a01b036001830154169260028301549260ff60046123b360038401613d6b565b92015416916040519585879660e01c9263ffffffff8260c01c16926001600160801b036001600160401b038460801c16931691896140a5565b346103d05760003660031901126103d05761240561418b565b61240d6141b7565b600160ff1960025416176002557f62e78cea01bee320cd4e420270b5ea74000d11b0c9f74754ebdbfc544b05a2586020604051338152a1005b346103d05760003660031901126103d0576029546040516001600160a01b039091168152602090f35b346103d05760003660031901126103d05760206001600160401b0360045416604051908152f35b346103d05760203660031901126103d0576124af61410b565b6124b761418b565b610100600160881b036002549160081b1690610100600160881b03191617600255600080f35b60603660031901126103d0576124f1614056565b6124f9614066565b612501613e6f565b9061250a6141d5565b600360ff841611610fda576004546001600160401b03828116929181168310610fda576125378286614dfb565b3410612031577f12f97e9c312855c3f48ec2b207c7ed3789fdf1e5250bceda743d6b99db15e549936126bf9361269a926001926001600160a01b0390811690811515908161271d575b81612704575b506126de575b5033600052600a60205260406000209160028301908282549142828416116000146126c8575050815467ffffffffffffffff19811690841688018416178255505b82546001600160a01b0319163317835561263b6125e98a613f80565b95906001600160801b03968791549060031b1c1694016001600160801b031994858254161781558561261a8c613f4a565b90549060031b1c166001600160801b0382549181199060801b169116179055565b805460ff60401b191660408a901b60ff60401b16178155600160481b60ff60481b1982541617905533600052600f60205260406000209042166001600160401b0319825416179055600e60205260406000209081541690553416614e2e565b6040805160ff90951685526001600160401b0390911660208501523393918291820190565b0390a260018055005b420116906001600160401b0319161781556125cd565b33600052601c6020526040600020906001600160601b0360a01b8254161790558861258c565b905033600052601c60205260406000205416158a612586565b338314159150612580565b346103d05760403660031901126103d057612741613e59565b6001600160a01b03166000908152600b60205260409020805460243591908210156103d0576020916113a391613f32565b346103d05760003660031901126103d05761278b61418b565b600080546001600160a01b0319811682556001600160a01b03167f8be0079c531659141344cd1fd0a4f28419497f9722a3daafe3b4186f6b6457e08280a3005b346103d05760203660031901126103d057600435600052601e60205260406000208054611d3960018060a01b0360018401541692600281015492612819600360ff6004850154169301613d6b565b906040519585879660e01c9263ffffffff8260c01c16926001600160801b036001600160401b038460801c16931691896140a5565b346103d05760003660031901126103d05760206001600160801b0360035416604051908152f35b346103d0576020806003193601126103d057600435600081815260068352604090206001908101546001600160a01b03163303610aef5781600052600683526001600160401b0360026040600020015460801c1615610add5782908260005260068252604060002060078352604060002090600391600283820192019161290285845460f81c9301613d6b565b815461290d816141f8565b9261291b6040519485613d4a565b81845260009081528881208985015b838310612cc357505050508661294d918160405193828580945193849201613e11565b81016018815203019020856000905b612c43575b5050846000905b612b7b575b5050612a97575b33600052600d84526040600020908154906001600160801b0390818154168284161015600014612a845754835492506129b1908216838316614da9565b16906001600160801b0319161790555b836000526006835260006002604082206129da816143c7565b82858201550155836000526007835260406000206129f7816143c7565b612a028382016143c7565b612a0e600282016143c7565b018054906000815581612a5f575b84601385826000525260406000206001600160401b031981541690557f88efefb1eaec3d3a0e08ed74bc99a3407d454b5da66112fed68b20d54837ccae600080a2005b60005282600020908101905b81811015612a1c5780612a7e84926143c7565b01612a6b565b50506001600160801b03191690556129c1565b6000835b612aa6575b50612974565b8360199182549283821015612b735788612abf83613efb565b905490881b1c14612adc5750612ad6919250614dc2565b90612a9b565b915060001992838101908111612b5d57612b07612afb612b1e92613efb565b905490881b1c92613efb565b819391549060031b91821b91600019901b19161790565b905580548015612b4757820191612b3483613efb565b9091825491871b1b191690555585612aa0565b634e487b7160e01b600052603160045260246000fd5b634e487b7160e01b600052601160045260246000fd5b505050612aa0565b8151811015612c3e579081612b9a612b94889484614d95565b51614030565b6000845b612bb5575b5050612bae90614dc2565b9091612968565b81929394915480821015612c33578b612bce8386613f32565b9054908b1b1c14612bed5750612be390614dc2565b8194939291612b9e565b9092949391506000198101908111612b5d5784612bae93612c25612b07612c18612c2c958e9a613f32565b9054908d1b1c9284613f32565b9055614dd1565b908a612ba3565b508194939250612ba3565b61296d565b81548781831015612cbc575089612c5a8385613f32565b905490891b1c14612c84575090612c778798979695949392614dc2565b909192939495969761295c565b9092916000198201918211612b5d578793612c25612b07612ca8612cb59585613f32565b9054908b1b1c9284613f32565b9088612961565b5050612961565b898b8192612cd8979e9d9b9a99989785613d6b565b8152019201920191909a9394959697999a61292a565b346103d05760203660031901126103d0576001600160a01b03612d0f613e59565b166000526026602052602060ff604060002054166040519015158152f35b346103d057612d3b3661408f565b906000526016602052604060002080548210156103d0576020916113a391613f32565b346103d05760003660031901126103d0576028546040516001600160a01b039091168152602090f35b346103d05760403660031901126103d057612da0613e85565b600435600052601060205260406000209060018060a01b0316600052602052611d3960ff604060002054166040519182918261407c565b346103d05760203660031901126103d0576004356000526007602052612e386040600020611d39612e0782613d6b565b91612e46612e236002612e1c60018501613d6b565b9301613d6b565b91604051958695606087526060870190613e34565b908582036020870152613e34565b908382036040850152613e34565b346103d05760203660031901126103d057600435600052600960205260c0604060002060ff815491600260018201549101549060405193845260018060a01b03811660208501526001600160401b038160a01c16604085015260e01c606084015263ffffffff8116608084015260201c16151560a0820152f35b346103d05760003660031901126103d057602060ff600254166040519015158152f35b346103d0576020806003193601126103d0576004359081600052600681526001600160401b038060026040600020015460801c1615610add57826000526006825260406000209260018060a01b0393846001820154163314159081613067575b81613057575b506117ad57612fde9361ffff91600052600684526130326040600020936007865260406000209460028101549360018201541660138852612ff8836040600020541697612fea612fa682613d6b565b9a612fc86002612fc1612fbb60018701613d6b565b98613d6b565b9401613d6b565b95604051809e819e610160808452830190613e34565b92818403910152613e34565b908a820360408c0152613e34565b926001600160801b03861660608a01528560801c16608089015260ff8560f01c16151560a089015260c088015286820360e0880152613e34565b9261010085015263ffffffff8160c01c1661012085015260e01c166101408301520390f35b60029150015460f81c1585612f57565b905060108452604060002033600052845260ff6040600020541660048110156117eb5760011190612f51565b346103d05760203660031901126103d0576001600160a01b036130b4613e59565b16600052600e60205260206001600160801b0360406000205416604051908152f35b346103d05760803660031901126103d0576130ef614056565b6130f7614066565b90613100613e6f565b6064356001600160a01b0381169291908381036103d05761311f6141d5565b83600052602660205260ff604060002054161561044557613149906131448685614dfb565b614ef5565b6040516323b872dd60e01b815233600482015230602482015260448101829052909490926020846064816000895af19384156105cc5761318e946131c0575b50614fa3565b6040519182527fc7e4cc89b0a980a194012a15142f99855680e1a060fc1955ce40af0800a7b1e860203393a360018055005b6131d79060203d81116105c5576105b68183613d4a565b5086613188565b346103d05760203660031901126103d0576001600160a01b036131ff613e59565b16600052601d60205260206001600160801b0360406000205416604051908152f35b346103d0576020806003193601126103d057610100906001600160a01b03613247613e59565b16600052600a81526001600160401b036040600020600d83526001600160801b03908160406000205416936001820154600e82528360406000205416600b835260406000205492600c8152600260406000205495015495604051988952831690880152604087015260801c6060860152608085015260a084015260ff8160401c1660c08401521660e0820152f35b346103d05760203660031901126103d05760206001600160a01b03806132f9613e59565b16600052601c825260406000205416604051908152f35b346103d05760203660031901126103d0576004356019548110156103d0576113a3602091613efb565b346103d05760403660031901126103d057613352613e59565b6024359061335e61418b565b6001600160a01b0316908115610fda5780156111f75760207ff4c563a3ea86ff1f4275e8c207df0375a51963f2b831b7bf4da8be938d92876c9183600052602682526040600020600160ff198254161790556027825280604060002055604051908152a2005b346103d05760003660031901126103d0576133dd61418b565b60025460ff81161561341c5760ff19166002557f5db9ee0a495bf2e6ff9c91a7834c1ba4fdd244a5e8aa4e537bd38aeae4b073aa6020604051338152a1005b604051638dfc202b60e01b8152600490fd5b346103d05760203660031901126103d057600435600052601360205260206001600160401b0360406000205416604051908152f35b346103d05760603660031901126103d05761347c614056565b613484614066565b61348c613e6f565b6134946141d5565b6029549160ff8360a01c16156105d8576134b66134b18286614dfb565b615183565b6040516323b872dd60e01b81523360048201523060248201526044810182905290949093602090859060649082906000906001600160a01b03165af19384156105cc57613507946135395750614fa3565b6040519081527f7e01bdfcb9e374847e0052332dc2e9561d204d892ab54122b8c8f79a3708aad460203392a260018055005b6135509060203d81116105c5576105b68183613d4a565b5085613188565b61356036613ec8565b6135686141d5565b82600052602092601e845260406000209060ff6004830154161561378b576002820192835494426001600160401b038760801c16111561378b578560e01c8015159081613777575b506137655760038401906135c48254613cd9565b15159283613737575b5050506117ad576001600160801b0380851634106120315782546000526006865261366460016002604060002061363661360682613d6b565b895463ffffffff60c01b191660c09b8c1c63ffffffff908116909601909b1b63ffffffff60c01b169a909a178955565b01805463ffffffff60c01b19811660c091821c8416600101909316901b63ffffffff60c01b16919091179055565b600183015493548116936001600160a01b031660008582811561372d575b600092839283928392f1156105cc57611d39947f0d59d45505505a9661a4d8f5a34cf177bb24da7babb871d6496a5da4e824461b92604092600052601f895282600020908154906136d584828416614350565b16906001600160801b03191617905581519033825288820152a2549160405193849333907f867558aef063b7f1f5ee4daa8d18b1811be91a77d9eb7890b94188892e11ff17600080a360018055808452830190613e34565b6108fc9250613682565b61375592935090613749913691613f9b565b87815191012091613d6b565b86815191012014158680806135cd565b6040516381a36e7f60e01b8152600490fd5b905063ffffffff8760c01c161015886135b0565b604051630614853960e21b8152600490fd5b346103d05760203660031901126103d05760043560048110156103d0576001600160801b03611be5602092613f65565b346103d05760403660031901126103d0576137e6613e59565b6001600160a01b03166000908152600c60205260409020805460243591908210156103d0576020916113a391613f32565b346103d05760003660031901126103d057602060ff60295460a01c166040519015158152f35b346103d057602061385061136f36613fff565b8101601781520301902080548210156103d0576020916113a391613f32565b346103d05760203660031901126103d0576001600160a01b03613890613e59565b16600052601460205260206001600160801b0360406000205416604051908152f35b346103d05760003660031901126103d0576020602a54604051908152f35b346103d05760203660031901126103d0576001600160a01b036138f1613e59565b1660005260276020526020604060002054604051908152f35b346103d05760203660031901126103d05760043560048110156103d0576001600160801b03611be5602092613f4a565b346103d05760203660031901126103d057600435601a548110156103d057602090601a6000527f057c384a7d1c54f3a1b2e5e67b2617b8224fdfd1ea7234eea573a6ff665ff63e0154604051908152f35b346103d05760003660031901126103d057602060035460801c604051908152f35b346103d0576139ba36613ec8565b918060005260209260098452604060002060028101549160ff83871c161561378b5760018201948554946001600160401b039542878260a01c1611156137655763ffffffff8096168015159182613bf6575b505061376557600052601b8752604060002091613a298354613cd9565b613bd4575b5050505490816000526006855260406000209233600052600a865260406000209060ff600283015460481c16613b03575b505083546001600160e01b03811660e091821c600101831690911b6001600160e01b03191617909355613aee92613ac2905b60028401805463ffffffff60c01b19811660c091821c8416600101909316901b63ffffffff60c01b16919091179055565b33907f867558aef063b7f1f5ee4daa8d18b1811be91a77d9eb7890b94188892e11ff17600080a3613d6b565b90611d39604051928284938452830190613e34565b600f87939293528062278d0081604060002054160116421015613b9c575b50600e86526001600160801b0391826040600020541690836001613b4c8260028a0154168095614350565b92015460801c911611613b8a57336000908152600e88526040902080546001600160801b031981169085169092019093161790915580613a91613a5f565b604051635c31fe0f60e11b8152600490fd5b600e875260406000206001600160801b03198154169055600f875260406000209042166001600160401b031982541617905586613b21565b613be391613749913691613f9b565b868151910120036117ad57858080613a2e565b60e01c101590508980613a0c565b346103d05760403660031901126103d057613c1d613e59565b613c2561418b565b6001600160a01b0390811660008181526026602052604090205490919060ff1615610445576000916044602092845416604051948593849263a9059cbb60e01b8452600484015260243560248401525af180156105cc57613c8257005b6100199060203d81116105c5576105b68183613d4a565b346103d05760203660031901126103d057600435600052601b602052611d39613cc56040600020613d6b565b604051918291602083526020830190613e34565b90600182811c92168015613d09575b6020831014613cf357565b634e487b7160e01b600052602260045260246000fd5b91607f1691613ce8565b61010081019081106001600160401b03821117610ab557604052565b608081019081106001600160401b03821117610ab557604052565b90601f801991011681019081106001600160401b03821117610ab557604052565b9060405191826000825492613d7f84613cd9565b908184526001948581169081600014613dee5750600114613dab575b5050613da992500383613d4a565b565b9093915060005260209081600020936000915b818310613dd6575050613da993508201013880613d9b565b85548884018501529485019487945091830191613dbe565b915050613da994506020925060ff191682840152151560051b8201013880613d9b565b60005b838110613e245750506000910152565b8181015183820152602001613e14565b90602091613e4d81518092818552858086019101613e11565b601f01601f1916010190565b600435906001600160a01b03821682036103d057565b604435906001600160a01b03821682036103d057565b602435906001600160a01b03821682036103d057565b9181601f840112156103d0578235916001600160401b0383116103d057602083818601950101116103d057565b9060406003198301126103d05760043591602435906001600160401b0382116103d057613ef791600401613e9b565b9091565b6019548110156116b35760196000527f944998273e477b495144fb8794c914197f3ccb46be2900f4698fd0ef743c96950190600090565b80548210156116b35760005260206000200190600090565b9060048210156116b35760108260011c6022019260041b1690565b9060048210156116b35760108260011c6024019260041b1690565b9060048210156116b35760108260011c6020019260041b1690565b9291926001600160401b038211610ab55760405191613fc4601f8201601f191660200184613d4a565b8294818452818301116103d0578281602093846000960137010152565b9080601f830112156103d057816020613ffc93359101613f9b565b90565b60406003198201126103d057600435906001600160401b0382116103d05761402991600401613fe1565b9060243590565b6020614049918160405193828580945193849201613e11565b8101601781520301902090565b6004359060ff821682036103d057565b602435906001600160401b03821682036103d057565b9190602083019260048210156117eb5752565b60409060031901126103d0576004359060243590565b96936001600160801b03614103969460e098946001600160401b03949c9b9c8b5260018060a01b031660208b015216604089015216606087015263ffffffff80921660808701521660a08501526101008060c0860152840190613e34565b931515910152565b600435906001600160801b03821682036103d057565b602435906001600160801b03821682036103d057565b604435906001600160801b03821682036103d057565b359081151582036103d057565b6000915b6004831061416b57505050565b6001906001600160801b038351168152602080910192019201919061415e565b6000546001600160a01b0316330361419f57565b60405163118cdaa760e01b8152336004820152602490fd5b60ff600254166141c357565b60405163d93c066560e01b8152600490fd5b6002600154146141e6576002600155565b604051633ee5aeb560e01b8152600490fd5b6001600160401b038111610ab55760051b60200190565b610140818303126103d0576001600160401b039080358281116103d05783614238918301613fe1565b93602093848301358481116103d05781614253918501613fe1565b9460408401358581116103d0578261426c918601613fe1565b9460608501356001600160801b03811681036103d0579460808101358281116103d0578461429b918301613fe1565b946142a860a0830161414d565b946142b560c0840161414d565b9460e08401358581116103d05784019180601f840112156103d0578235926142dc846141f8565b936142ea6040519586613d4a565b808552838086019160051b830101928084116103d057848301915b84831061432b575050505050509261012061010084013593013590811681036103d05790565b82358a81116103d057869161434584848094890101613fe1565b815201920191614305565b9190916001600160801b0380809416911601918211612b5d57565b818110614376575050565b6000815560010161436b565b9190601f811161439157505050565b613da9926000526020600020906020601f840160051c830193106143bd575b601f0160051c019061436b565b90915081906143b0565b6143d18154613cd9565b90816143db575050565b81601f600093116001146143ed575055565b90808391825261440c601f60208420940160051c84016001850161436b565b5555565b805490600160401b821015610ab55781612b0791600161443294018155613f32565b9055565b6144429181019061420f565b969793989092959194885115610fda576001600160801b038316158015614d7e575b614d6c576004546001600160401b0381166001600160401b038a1610610fda5733600052600a6020526040600020600281015460ff8160481c1615908115614d57575b506118135733600052600d6020526001600160801b038060016144d1888360406000205416614350565b93015416911611610acb57670de0b6b3a76400006001600160801b0360025460081c166301e13380826001600160401b038d16020490620fffff6001600160801b0388160160141c02020434106120315789906001600160401b0360801b60016001600160401b038360801c160160801b16906001600160401b0360801b191617806004556145aa605c604051809360206145758184019788815193849201613e11565b8201903360601b60208301524260348301526001600160401b0360c01b9060401b16605482015203603c810184520182613d4a565b51902099604051906145bb82613d13565b8a82523360208301526001600160801b03851660408301526001600160401b034216606083015260006080830152600160a0830152151560c082015287151560e08201528a600052600660205260406000209080518051906001600160401b038211610ab5576146358261462f8654613cd9565b86614382565b602090601f8311600114614cea57600293929160009183614cdf575b50508160011b916000199060031b1c19161783555b60208101516001840180546001600160a01b039092166001600160a01b0319909216919091179055604080820151606083015160808085015160a086015160c08088015160e0988901519290981b61ffff60e01b1692901b63ffffffff60c01b1667ffffffffffffffff60801b94841b949094166001600160801b0390951694909417929092179190911793151560f01b60ff60f01b169390931790151560f81b6001600160f81b031916179290930191909155905192906001600160401b0390840190811190841117610ab557608083016040528252846020830152604082015284606082015288600052600760205260406000209080518051906001600160401b038211610ab5578190614786826147808754613cd9565b87614382565b602090601f8311600114614c7357600092614c68575b50508160011b916000199060031b1c19161782555b60208101518051906001600160401b038211610ab55781906147e3826147da6001880154613cd9565b60018801614382565b602090601f8311600114614bf657600092614beb575b50508160011b916000199060031b1c19161760018301555b60408101518051906001600160401b038211610ab557614841826148386002870154613cd9565b60028701614382565b602090601f8311600114614b7857606093929160009183614b6d575b50508160011b916000199060031b1c19161760028401555b0151805190600160401b8211610ab5576003830154826003850155808310614b3a575b5090600360208c969594930192016000526020600020916000905b828210614a4b5750505050614934936149259260209233600052600b84526148df866040600020614410565b33600052600d84526040600020906001600160801b038254918183160116906001600160801b03191617905580614a30575b508160405193828580945193849201613e11565b81016018815203019020614410565b80519060005b828110614a11575050506149e1575b6149a2906001600160801b033416908460005260126020526040600020826001600160801b031982541617905560136020526001600160401b0380604060002092164201166001600160401b0319825416179055614e2e565b817f7237b089d1a252ec5312d4f64b1378a99d12760dfcaa22429ba0bd7c31d3fc8860405160208152806149db33956020830190613e34565b0390a390565b60195490600160401b821015610ab55783614a08612b078460016149a29601601955613efb565b90559050614949565b80614a2a88614a25612b9460019587614d95565b614410565b0161493a565b60005260168252614a45846040600020614410565b38614911565b8091929394959650518051906001600160401b038211610ab557614a7982614a738854613cd9565b88614382565b602090601f8311600114614aca579282600194936020938695600092614abf575b5050600019600383901b1c191690841b1787555b01940191018b9594939291926148b3565b015190503880614a9a565b908660005260206000209160005b601f1985168110614b22575083602093600196938796938794601f19811610614b09575b505050811b018755614aae565b015160001960f88460031b161c19169055388080614afc565b91926020600181928685015181550194019201614ad8565b600384016000526020600020908382015b8183018110614b5b575050614898565b80614b676001926143c7565b01614b4b565b01519050388061485d565b906002850160005260206000209160005b601f1985168110614bd3575091839160019360609695601f19811610614bba575b505050811b016002840155614875565b015160001960f88460031b161c19169055388080614baa565b91926020600181928685015181550194019201614b89565b0151905038806147f9565b9250600185016000526020600020906000935b601f1984168510614c4d576001945083601f19811610614c34575b505050811b016001830155614811565b015160001960f88460031b161c19169055388080614c24565b81810151835560209485019460019093019290910190614c09565b01519050388061479c565b9250846000526020600020906000935b601f1984168510614cc4576001945083601f19811610614cab575b505050811b0182556147b1565b015160001960f88460031b161c19169055388080614c9e565b81810151835560209485019460019093019290910190614c83565b015190503880614651565b908460005260206000209160005b601f1985168110614d3f575091839160019360029695601f19811610614d26575b505050811b018355614666565b015160001960f88460031b161c19169055388080614d19565b91926020600181928685015181550194019201614cf8565b90506001600160401b034291161115386144a7565b604051637ff0f53960e01b8152600490fd5b5060035460801c6001600160801b03841611614464565b80518210156116b35760209160051b010190565b6001600160801b039182169082160391908211612b5d57565b6000198114612b5d5760010190565b8054908115612b475760001991820191614deb8383613f32565b909182549160031b1b1916905555565b6001600160401b039162278d0062263b80614e1d6001600160801b0394613f65565b959054931601049260031b1c160290565b336000908152601c60205260408120546001600160a01b0316919082614e5357505050565b612710916001600160801b03928380926001600160401b0360045460401c160216041691838252601d6020526040822090815490848183160116906001600160801b031916179055808284828215614eec575b839283928392f115614ee0575060207fa81d02e535011fd802e58bd5357645a72a434aa58d1d854c19616ea74ca58d4091604051908152a2565b604051903d90823e3d90fd5b506108fc614ea6565b6001600160a01b039091166000818152602660205260408120549092919060ff16156104455782526027602052604082205491670de0b6b3a764000091828102928184041490151715614f7757828201809211614f77576000198201918211614f77578215614f6357500490565b634e487b7160e01b81526012600452602490fd5b634e487b7160e01b81526011600452602490fd5b908160209103126103d0575180151581036103d05790565b91600360ff841611610fda576001600160401b03918260045416838216908110610fda577f12f97e9c312855c3f48ec2b207c7ed3789fdf1e5250bceda743d6b99db15e5499361511e936001600160a01b03908116908115159081615178575b8161515f575b50615139575b5033600052600a6020526040600020916002830190828254914282841611600014615123575050815467ffffffffffffffff19811690841686018416178255505b82546001600160a01b0319163317835561509f600161506e89613f80565b91906001600160801b03928391549060031b1c169501906001600160801b0319958683541617825561261a8a613f4a565b805460ff60401b1916604088901b60ff60401b16178155600160481b60ff60481b1982541617905533600052600f60205260406000209042166001600160401b0319825416179055600e60205260406000209081541690556040519182913395839092916001600160401b0360209160ff604085019616845216910152565b0390a2565b420116906001600160401b031916178155615050565b33600052601c6020526040600020906001600160601b0360a01b8254161790553861500f565b905033600052601c602052604060002054161538615009565b338314159150615003565b6029549060ff8260a01c16156105d857602a5461271090810391818311612b5d57828102928184041490151715612b5d5760405163c2507ac160e01b81529104600482015290602090829060249082906001600160a01b03165afa9081156105cc576000916151f0575090565b906020823d8211615219575b8161520960209383613d4a565b8101031261521657505190565b80fd5b3d91506151fc56fea26469706673582212209416b84ba658e1c5f74207197de95c5589f5199c97a8707683e332b98b3dfa2f64736f6c63430008140033",
  "devdoc": {
    "author": "GDrive Team",
    "details": "A comprehensive, gas-efficient decentralized storage solution",
    "errors": {
      "EnforcedPause()": [
        {
          "details": "The operation failed because the contract is paused."
        }
      ],
      "ExpectedPause()": [
        {
          "details": "The operation failed because the contract is not paused."
        }
      ],
      "OwnableInvalidOwner(address)": [
        {
          "details": "The owner is not a valid owner account. (eg. `address(0)`)"
        }
      ],
      "OwnableUnauthorizedAccount(address)": [
        {
          "details": "The caller account is not authorized to perform an operation."
        }
      ],
      "ReentrancyGuardReentrantCall()": [
        {
          "details": "Unauthorized reentrant call."
        }
      ]
    },
    "events": {
      "Paused(address)": {
        "details": "Emitted when the pause is triggered by `account`."
      },
      "Unpaused(address)": {
        "details": "Emitted when the pause is lifted by `account`."
      }
    },
    "kind": "dev",
    "methods": {
      "accessFileViaLink(bytes32,string)": {
        "details": "Access file through share link (gas optimized)"
      },
      "addPaymentToken(address,uint256)": {
        "details": "Add a new supported payment token",
        "params": {
          "price": "Price in wei per token",
          "token": "Address of the ERC20 token"
        }
      },
      "calculateGDVAmount(uint256)": {
        "details": "Calculate GDV amount needed for payment with discount",
        "params": {
          "ethAmount": "Amount in wei"
        },
        "returns": {
          "gdvAmount": "Amount of GDV tokens needed"
        }
      },
      "calculateTokenAmount(uint256,address)": {
        "details": "Calculate token amount needed for payment",
        "params": {
          "ethAmount": "Amount in wei",
          "token": "Address of the payment token"
        },
        "returns": {
          "tokenAmount": "Amount of tokens needed"
        }
      },
      "convertGDVToEth(uint256)": {
        "details": "Convert GDV tokens to ETH",
        "params": {
          "gdvAmount": "Amount of GDV tokens to convert"
        }
      },
      "createFolder(string,bytes32,bool)": {
        "details": "Create a new folder (gas optimized)"
      },
      "createShareLink(bytes32,uint64,uint32,string)": {
        "details": "Create a shareable link for a file"
      },
      "getFileDetails(bytes32)": {
        "details": "Get file details with access control"
      },
      "getSubscriptionTiers()": {
        "details": "Get subscription pricing"
      },
      "getUserStats(address)": {
        "details": "Get user's storage statistics"
      },
      "owner()": {
        "details": "Returns the address of the current owner."
      },
      "paused()": {
        "details": "Returns true if the contract is paused, and false otherwise."
      },
      "purchaseSubscription(uint8,uint64,address)": {
        "details": "Purchase or upgrade subscription (gas optimized)"
      },
      "purchaseSubscriptionWithGDV(uint8,uint64,address)": {
        "details": "Purchase subscription with GDV payment",
        "params": {
          "duration": "Duration in seconds",
          "referrer": "Referrer address",
          "tier": "Subscription tier"
        }
      },
      "purchaseSubscriptionWithToken(uint8,uint64,address,address)": {
        "details": "Purchase subscription with token payment",
        "params": {
          "duration": "Duration in seconds",
          "referrer": "Referrer address",
          "tier": "Subscription tier",
          "token": "Address of the payment token"
        }
      },
      "removePaymentToken(address)": {
        "details": "Remove a supported payment token",
        "params": {
          "token": "Address of the ERC20 token"
        }
      },
      "renounceOwnership()": {
        "details": "Leaves the contract without owner. It will not be possible to call `onlyOwner` functions. Can only be called by the current owner. NOTE: Renouncing ownership will leave the contract without an owner, thereby disabling any functionality that is only available to the owner."
      },
      "setDefaultPaymentToken(address)": {
        "details": "Set default payment token",
        "params": {
          "token": "Address of the ERC20 token"
        }
      },
      "setGDVEnabled(bool)": {
        "details": "Enable/disable GDV payments",
        "params": {
          "enabled": "Whether GDV payments should be enabled"
        }
      },
      "setGDVToken(address)": {
        "details": "Set GDV token address",
        "params": {
          "token": "Address of the GDV token contract"
        }
      },
      "transferOwnership(address)": {
        "details": "Transfers ownership of the contract to a new account (`newOwner`). Can only be called by the current owner."
      },
      "updateGDVDiscount(uint256)": {
        "details": "Update GDV discount percentage",
        "params": {
          "discount": "New discount percentage in basis points"
        }
      },
      "updateTokenPrice(address,uint256)": {
        "details": "Update token price",
        "params": {
          "newPrice": "New price in wei per token",
          "token": "Address of the ERC20 token"
        }
      },
      "uploadFileWithGDV(bytes)": {
        "details": "Upload file with GDV payment",
        "params": {
          "params": "Encoded parameters"
        }
      },
      "uploadFileWithToken(bytes,address)": {
        "details": "Upload file with token payment",
        "params": {
          "params": "Encoded parameters",
          "token": "Address of the payment token"
        }
      },
      "withdrawTokens(address,uint256)": {
        "details": "Withdraw tokens from contract",
        "params": {
          "amount": "Amount to withdraw",
          "token": "Address of the token to withdraw"
        }
      }
    },
    "title": "GDrive 2.0 - Gas Optimized Decentralized Storage Contract",
    "version": 1
  },
  "userdoc": {
    "kind": "user",
    "methods": {},
    "version": 1
  },
  "storageLayout": {
    "storage": [
      {
        "astId": 8,
        "contract": "contracts/GDrive.sol:GDrive",
        "label": "_owner",
        "offset": 0,
        "slot": "0",
        "type": "t_address"
      },
      {
        "astId": 1061,
        "contract": "contracts/GDrive.sol:GDrive",
        "label": "_status",
        "offset": 0,
        "slot": "1",
        "type": "t_uint256"
      },
      {
        "astId": 942,
        "contract": "contracts/GDrive.sol:GDrive",
        "label": "_paused",
        "offset": 0,
        "slot": "2",
        "type": "t_bool"
      },
      {
        "astId": 1517,
        "contract": "contracts/GDrive.sol:GDrive",
        "label": "storageRatePerMBPerYear",
        "offset": 1,
        "slot": "2",
        "type": "t_uint128"
      },
      {
        "astId": 1520,
        "contract": "contracts/GDrive.sol:GDrive",
        "label": "bandwidthRatePerGB",
        "offset": 0,
        "slot": "3",
        "type": "t_uint128"
      },
      {
        "astId": 1529,
        "contract": "contracts/GDrive.sol:GDrive",
        "label": "maxFileSize",
        "offset": 16,
        "slot": "3",
        "type": "t_uint128"
      },
      {
        "astId": 1532,
        "contract": "contracts/GDrive.sol:GDrive",
        "label": "minimumStoragePeriod",
        "offset": 0,
        "slot": "4",
        "type": "t_uint64"
      },
      {
        "astId": 1535,
        "contract": "contracts/GDrive.sol:GDrive",
        "label": "referralRewardPercentage",
        "offset": 8,
        "slot": "4",
        "type": "t_uint64"
      },
      {
        "astId": 1537,
        "contract": "contracts/GDrive.sol:GDrive",
        "label": "_fileIdCounter",
        "offset": 16,
        "slot": "4",
        "type": "t_uint64"
      },
      {
        "astId": 1539,
        "contract": "contracts/GDrive.sol:GDrive",
        "label": "_folderIdCounter",
        "offset": 24,
        "slot": "4",
        "type": "t_uint64"
      },
      {
        "astId": 1541,
        "contract": "contracts/GDrive.sol:GDrive",
        "label": "_shareLinkIdCounter",
        "offset": 0,
        "slot": "5",
        "type": "t_uint64"
      },
      {
        "astId": 1543,
        "contract": "contracts/GDrive.sol:GDrive",
        "label": "_reserved",
        "offset": 8,
        "slot": "5",
        "type": "t_uint64"
      },
      {
        "astId": 1548,
        "contract": "contracts/GDrive.sol:GDrive",
        "label": "files",
        "offset": 0,
        "slot": "6",
        "type": "t_mapping(t_bytes32,t_struct(File)1427_storage)"
      },
      {
        "astId": 1553,
        "contract": "contracts/GDrive.sol:GDrive",
        "label": "fileMetadata",
        "offset": 0,
        "slot": "7",
        "type": "t_mapping(t_bytes32,t_struct(FileMetadata)1454_storage)"
      },
      {
        "astId": 1558,
        "contract": "contracts/GDrive.sol:GDrive",
        "label": "folders",
        "offset": 0,
        "slot": "8",
        "type": "t_mapping(t_bytes32,t_struct(Folder)1465_storage)"
      },
      {
        "astId": 1563,
        "contract": "contracts/GDrive.sol:GDrive",
        "label": "shareLinks",
        "offset": 0,
        "slot": "9",
        "type": "t_mapping(t_bytes32,t_struct(ShareLink)1478_storage)"
      },
      {
        "astId": 1568,
        "contract": "contracts/GDrive.sol:GDrive",
        "label": "subscriptions",
        "offset": 0,
        "slot": "10",
        "type": "t_mapping(t_address,t_struct(Subscription)1491_storage)"
      },
      {
        "astId": 1573,
        "contract": "contracts/GDrive.sol:GDrive",
        "label": "userFiles",
        "offset": 0,
        "slot": "11",
        "type": "t_mapping(t_address,t_array(t_bytes32)dyn_storage)"
      },
      {
        "astId": 1578,
        "contract": "contracts/GDrive.sol:GDrive",
        "label": "userFolders",
        "offset": 0,
        "slot": "12",
        "type": "t_mapping(t_address,t_array(t_bytes32)dyn_storage)"
      },
      {
        "astId": 1582,
        "contract": "contracts/GDrive.sol:GDrive",
        "label": "userStorageUsed",
        "offset": 0,
        "slot": "13",
        "type": "t_mapping(t_address,t_uint128)"
      },
      {
        "astId": 1586,
        "contract": "contracts/GDrive.sol:GDrive",
        "label": "userBandwidthUsed",
        "offset": 0,
        "slot": "14",
        "type": "t_mapping(t_address,t_uint128)"
      },
      {
        "astId": 1590,
        "contract": "contracts/GDrive.sol:GDrive",
        "label": "lastBandwidthReset",
        "offset": 0,
        "slot": "15",
        "type": "t_mapping(t_address,t_uint64)"
      },
      {
        "astId": 1597,
        "contract": "contracts/GDrive.sol:GDrive",
        "label": "filePermissions",
        "offset": 0,
        "slot": "16",
        "type": "t_mapping(t_bytes32,t_mapping(t_address,t_enum(Permission)1496))"
      },
      {
        "astId": 1604,
        "contract": "contracts/GDrive.sol:GDrive",
        "label": "folderPermissions",
        "offset": 0,
        "slot": "17",
        "type": "t_mapping(t_bytes32,t_mapping(t_address,t_enum(Permission)1496))"
      },
      {
        "astId": 1608,
        "contract": "contracts/GDrive.sol:GDrive",
        "label": "filePayments",
        "offset": 0,
        "slot": "18",
        "type": "t_mapping(t_bytes32,t_uint128)"
      },
      {
        "astId": 1612,
        "contract": "contracts/GDrive.sol:GDrive",
        "label": "fileExpiryDates",
        "offset": 0,
        "slot": "19",
        "type": "t_mapping(t_bytes32,t_uint64)"
      },
      {
        "astId": 1616,
        "contract": "contracts/GDrive.sol:GDrive",
        "label": "userBalances",
        "offset": 0,
        "slot": "20",
        "type": "t_mapping(t_address,t_uint128)"
      },
      {
        "astId": 1621,
        "contract": "contracts/GDrive.sol:GDrive",
        "label": "folderSubFolders",
        "offset": 0,
        "slot": "21",
        "type": "t_mapping(t_bytes32,t_array(t_bytes32)dyn_storage)"
      },
      {
        "astId": 1626,
        "contract": "contracts/GDrive.sol:GDrive",
        "label": "folderFiles",
        "offset": 0,
        "slot": "22",
        "type": "t_mapping(t_bytes32,t_array(t_bytes32)dyn_storage)"
      },
      {
        "astId": 1631,
        "contract": "contracts/GDrive.sol:GDrive",
        "label": "taggedFiles",
        "offset": 0,
        "slot": "23",
        "type": "t_mapping(t_string_memory_ptr,t_array(t_bytes32)dyn_storage)"
      },
      {
        "astId": 1636,
        "contract": "contracts/GDrive.sol:GDrive",
        "label": "fileTypeIndex",
        "offset": 0,
        "slot": "24",
        "type": "t_mapping(t_string_memory_ptr,t_array(t_bytes32)dyn_storage)"
      },
      {
        "astId": 1639,
        "contract": "contracts/GDrive.sol:GDrive",
        "label": "publicFiles",
        "offset": 0,
        "slot": "25",
        "type": "t_array(t_bytes32)dyn_storage"
      },
      {
        "astId": 1642,
        "contract": "contracts/GDrive.sol:GDrive",
        "label": "publicFolders",
        "offset": 0,
        "slot": "26",
        "type": "t_array(t_bytes32)dyn_storage"
      },
      {
        "astId": 1646,
        "contract": "contracts/GDrive.sol:GDrive",
        "label": "shareLinkPasswords",
        "offset": 0,
        "slot": "27",
        "type": "t_mapping(t_bytes32,t_string_storage)"
      },
      {
        "astId": 1650,
        "contract": "contracts/GDrive.sol:GDrive",
        "label": "referrers",
        "offset": 0,
        "slot": "28",
        "type": "t_mapping(t_address,t_address)"
      },
      {
        "astId": 1654,
        "contract": "contracts/GDrive.sol:GDrive",
        "label": "referralRewards",
        "offset": 0,
        "slot": "29",
        "type": "t_mapping(t_address,t_uint128)"
      },
      {
        "astId": 1659,
        "contract": "contracts/GDrive.sol:GDrive",
        "label": "PaidShareLinks",
        "offset": 0,
        "slot": "30",
        "type": "t_mapping(t_bytes32,t_struct(PaidShareLink)1444_storage)"
      },
      {
        "astId": 1663,
        "contract": "contracts/GDrive.sol:GDrive",
        "label": "earnedRevenue",
        "offset": 0,
        "slot": "31",
        "type": "t_mapping(t_address,t_uint128)"
      },
      {
        "astId": 1667,
        "contract": "contracts/GDrive.sol:GDrive",
        "label": "tierStorageLimits",
        "offset": 0,
        "slot": "32",
        "type": "t_array(t_uint128)4_storage"
      },
      {
        "astId": 1671,
        "contract": "contracts/GDrive.sol:GDrive",
        "label": "tierBandwidthLimits",
        "offset": 0,
        "slot": "34",
        "type": "t_array(t_uint128)4_storage"
      },
      {
        "astId": 1675,
        "contract": "contracts/GDrive.sol:GDrive",
        "label": "tierPrices",
        "offset": 0,
        "slot": "36",
        "type": "t_array(t_uint128)4_storage"
      },
      {
        "astId": 1679,
        "contract": "contracts/GDrive.sol:GDrive",
        "label": "supportedTokens",
        "offset": 0,
        "slot": "38",
        "type": "t_mapping(t_address,t_bool)"
      },
      {
        "astId": 1683,
        "contract": "contracts/GDrive.sol:GDrive",
        "label": "tokenPrices",
        "offset": 0,
        "slot": "39",
        "type": "t_mapping(t_address,t_uint256)"
      },
      {
        "astId": 1685,
        "contract": "contracts/GDrive.sol:GDrive",
        "label": "defaultPaymentToken",
        "offset": 0,
        "slot": "40",
        "type": "t_address"
      },
      {
        "astId": 1796,
        "contract": "contracts/GDrive.sol:GDrive",
        "label": "gdvToken",
        "offset": 0,
        "slot": "41",
        "type": "t_contract(IGDVToken)1403"
      },
      {
        "astId": 1798,
        "contract": "contracts/GDrive.sol:GDrive",
        "label": "gdvEnabled",
        "offset": 20,
        "slot": "41",
        "type": "t_bool"
      },
      {
        "astId": 1800,
        "contract": "contracts/GDrive.sol:GDrive",
        "label": "gdvDiscount",
        "offset": 0,
        "slot": "42",
        "type": "t_uint256"
      }
    ],
    "types": {
      "t_address": {
        "encoding": "inplace",
        "label": "address",
        "numberOfBytes": "20"
      },
      "t_array(t_bytes32)dyn_storage": {
        "base": "t_bytes32",
        "encoding": "dynamic_array",
        "label": "bytes32[]",
        "numberOfBytes": "32"
      },
      "t_array(t_string_storage)dyn_storage": {
        "base": "t_string_storage",
        "encoding": "dynamic_array",
        "label": "string[]",
        "numberOfBytes": "32"
      },
      "t_array(t_uint128)4_storage": {
        "base": "t_uint128",
        "encoding": "inplace",
        "label": "uint128[4]",
        "numberOfBytes": "64"
      },
      "t_bool": {
        "encoding": "inplace",
        "label": "bool",
        "numberOfBytes": "1"
      },
      "t_bytes32": {
        "encoding": "inplace",
        "label": "bytes32",
        "numberOfBytes": "32"
      },
      "t_contract(IGDVToken)1403": {
        "encoding": "inplace",
        "label": "contract IGDVToken",
        "numberOfBytes": "20"
      },
      "t_enum(Permission)1496": {
        "encoding": "inplace",
        "label": "enum GDrive.Permission",
        "numberOfBytes": "1"
      },
      "t_mapping(t_address,t_address)": {
        "encoding": "mapping",
        "key": "t_address",
        "label": "mapping(address => address)",
        "numberOfBytes": "32",
        "value": "t_address"
      },
      "t_mapping(t_address,t_array(t_bytes32)dyn_storage)": {
        "encoding": "mapping",
        "key": "t_address",
        "label": "mapping(address => bytes32[])",
        "numberOfBytes": "32",
        "value": "t_array(t_bytes32)dyn_storage"
      },
      "t_mapping(t_address,t_bool)": {
        "encoding": "mapping",
        "key": "t_address",
        "label": "mapping(address => bool)",
        "numberOfBytes": "32",
        "value": "t_bool"
      },
      "t_mapping(t_address,t_enum(Permission)1496)": {
        "encoding": "mapping",
        "key": "t_address",
        "label": "mapping(address => enum GDrive.Permission)",
        "numberOfBytes": "32",
        "value": "t_enum(Permission)1496"
      },
      "t_mapping(t_address,t_struct(Subscription)1491_storage)": {
        "encoding": "mapping",
        "key": "t_address",
        "label": "mapping(address => struct GDrive.Subscription)",
        "numberOfBytes": "32",
        "value": "t_struct(Subscription)1491_storage"
      },
      "t_mapping(t_address,t_uint128)": {
        "encoding": "mapping",
        "key": "t_address",
        "label": "mapping(address => uint128)",
        "numberOfBytes": "32",
        "value": "t_uint128"
      },
      "t_mapping(t_address,t_uint256)": {
        "encoding": "mapping",
        "key": "t_address",
        "label": "mapping(address => uint256)",
        "numberOfBytes": "32",
        "value": "t_uint256"
      },
      "t_mapping(t_address,t_uint64)": {
        "encoding": "mapping",
        "key": "t_address",
        "label": "mapping(address => uint64)",
        "numberOfBytes": "32",
        "value": "t_uint64"
      },
      "t_mapping(t_bytes32,t_array(t_bytes32)dyn_storage)": {
        "encoding": "mapping",
        "key": "t_bytes32",
        "label": "mapping(bytes32 => bytes32[])",
        "numberOfBytes": "32",
        "value": "t_array(t_bytes32)dyn_storage"
      },
      "t_mapping(t_bytes32,t_mapping(t_address,t_enum(Permission)1496))": {
        "encoding": "mapping",
        "key": "t_bytes32",
        "label": "mapping(bytes32 => mapping(address => enum GDrive.Permission))",
        "numberOfBytes": "32",
        "value": "t_mapping(t_address,t_enum(Permission)1496)"
      },
      "t_mapping(t_bytes32,t_string_storage)": {
        "encoding": "mapping",
        "key": "t_bytes32",
        "label": "mapping(bytes32 => string)",
        "numberOfBytes": "32",
        "value": "t_string_storage"
      },
      "t_mapping(t_bytes32,t_struct(File)1427_storage)": {
        "encoding": "mapping",
        "key": "t_bytes32",
        "label": "mapping(bytes32 => struct GDrive.File)",
        "numberOfBytes": "32",
        "value": "t_struct(File)1427_storage"
      },
      "t_mapping(t_bytes32,t_struct(FileMetadata)1454_storage)": {
        "encoding": "mapping",
        "key": "t_bytes32",
        "label": "mapping(bytes32 => struct GDrive.FileMetadata)",
        "numberOfBytes": "32",
        "value": "t_struct(FileMetadata)1454_storage"
      },
      "t_mapping(t_bytes32,t_struct(Folder)1465_storage)": {
        "encoding": "mapping",
        "key": "t_bytes32",
        "label": "mapping(bytes32 => struct GDrive.Folder)",
        "numberOfBytes": "32",
        "value": "t_struct(Folder)1465_storage"
      },
      "t_mapping(t_bytes32,t_struct(PaidShareLink)1444_storage)": {
        "encoding": "mapping",
        "key": "t_bytes32",
        "label": "mapping(bytes32 => struct GDrive.PaidShareLink)",
        "numberOfBytes": "32",
        "value": "t_struct(PaidShareLink)1444_storage"
      },
      "t_mapping(t_bytes32,t_struct(ShareLink)1478_storage)": {
        "encoding": "mapping",
        "key": "t_bytes32",
        "label": "mapping(bytes32 => struct GDrive.ShareLink)",
        "numberOfBytes": "32",
        "value": "t_struct(ShareLink)1478_storage"
      },
      "t_mapping(t_bytes32,t_uint128)": {
        "encoding": "mapping",
        "key": "t_bytes32",
        "label": "mapping(bytes32 => uint128)",
        "numberOfBytes": "32",
        "value": "t_uint128"
      },
      "t_mapping(t_bytes32,t_uint64)": {
        "encoding": "mapping",
        "key": "t_bytes32",
        "label": "mapping(bytes32 => uint64)",
        "numberOfBytes": "32",
        "value": "t_uint64"
      },
      "t_mapping(t_string_memory_ptr,t_array(t_bytes32)dyn_storage)": {
        "encoding": "mapping",
        "key": "t_string_memory_ptr",
        "label": "mapping(string => bytes32[])",
        "numberOfBytes": "32",
        "value": "t_array(t_bytes32)dyn_storage"
      },
      "t_string_memory_ptr": {
        "encoding": "bytes",
        "label": "string",
        "numberOfBytes": "32"
      },
      "t_string_storage": {
        "encoding": "bytes",
        "label": "string",
        "numberOfBytes": "32"
      },
      "t_struct(File)1427_storage": {
        "encoding": "inplace",
        "label": "struct GDrive.File",
        "members": [
          {
            "astId": 1412,
            "contract": "contracts/GDrive.sol:GDrive",
            "label": "cid",
            "offset": 0,
            "slot": "0",
            "type": "t_string_storage"
          },
          {
            "astId": 1414,
            "contract": "contracts/GDrive.sol:GDrive",
            "label": "owner",
            "offset": 0,
            "slot": "1",
            "type": "t_address"
          },
          {
            "astId": 1416,
            "contract": "contracts/GDrive.sol:GDrive",
            "label": "size",
            "offset": 0,
            "slot": "2",
            "type": "t_uint128"
          },
          {
            "astId": 1418,
            "contract": "contracts/GDrive.sol:GDrive",
            "label": "uploadDate",
            "offset": 16,
            "slot": "2",
            "type": "t_uint64"
          },
          {
            "astId": 1420,
            "contract": "contracts/GDrive.sol:GDrive",
            "label": "downloadCount",
            "offset": 24,
            "slot": "2",
            "type": "t_uint32"
          },
          {
            "astId": 1422,
            "contract": "contracts/GDrive.sol:GDrive",
            "label": "version",
            "offset": 28,
            "slot": "2",
            "type": "t_uint16"
          },
          {
            "astId": 1424,
            "contract": "contracts/GDrive.sol:GDrive",
            "label": "isEncrypted",
            "offset": 30,
            "slot": "2",
            "type": "t_bool"
          },
          {
            "astId": 1426,
            "contract": "contracts/GDrive.sol:GDrive",
            "label": "isPublic",
            "offset": 31,
            "slot": "2",
            "type": "t_bool"
          }
        ],
        "numberOfBytes": "96"
      },
      "t_struct(FileMetadata)1454_storage": {
        "encoding": "inplace",
        "label": "struct GDrive.FileMetadata",
        "members": [
          {
            "astId": 1446,
            "contract": "contracts/GDrive.sol:GDrive",
            "label": "name",
            "offset": 0,
            "slot": "0",
            "type": "t_string_storage"
          },
          {
            "astId": 1448,
            "contract": "contracts/GDrive.sol:GDrive",
            "label": "fileType",
            "offset": 0,
            "slot": "1",
            "type": "t_string_storage"
          },
          {
            "astId": 1450,
            "contract": "contracts/GDrive.sol:GDrive",
            "label": "description",
            "offset": 0,
            "slot": "2",
            "type": "t_string_storage"
          },
          {
            "astId": 1453,
            "contract": "contracts/GDrive.sol:GDrive",
            "label": "tags",
            "offset": 0,
            "slot": "3",
            "type": "t_array(t_string_storage)dyn_storage"
          }
        ],
        "numberOfBytes": "128"
      },
      "t_struct(Folder)1465_storage": {
        "encoding": "inplace",
        "label": "struct GDrive.Folder",
        "members": [
          {
            "astId": 1456,
            "contract": "contracts/GDrive.sol:GDrive",
            "label": "name",
            "offset": 0,
            "slot": "0",
            "type": "t_string_storage"
          },
          {
            "astId": 1458,
            "contract": "contracts/GDrive.sol:GDrive",
            "label": "owner",
            "offset": 0,
            "slot": "1",
            "type": "t_address"
          },
          {
            "astId": 1460,
            "contract": "contracts/GDrive.sol:GDrive",
            "label": "parentFolderId",
            "offset": 0,
            "slot": "2",
            "type": "t_bytes32"
          },
          {
            "astId": 1462,
            "contract": "contracts/GDrive.sol:GDrive",
            "label": "createdDate",
            "offset": 0,
            "slot": "3",
            "type": "t_uint64"
          },
          {
            "astId": 1464,
            "contract": "contracts/GDrive.sol:GDrive",
            "label": "isPublic",
            "offset": 8,
            "slot": "3",
            "type": "t_bool"
          }
        ],
        "numberOfBytes": "128"
      },
      "t_struct(PaidShareLink)1444_storage": {
        "encoding": "inplace",
        "label": "struct GDrive.PaidShareLink",
        "members": [
          {
            "astId": 1429,
            "contract": "contracts/GDrive.sol:GDrive",
            "label": "fileId",
            "offset": 0,
            "slot": "0",
            "type": "t_bytes32"
          },
          {
            "astId": 1431,
            "contract": "contracts/GDrive.sol:GDrive",
            "label": "creator",
            "offset": 0,
            "slot": "1",
            "type": "t_address"
          },
          {
            "astId": 1433,
            "contract": "contracts/GDrive.sol:GDrive",
            "label": "pricePerAccess",
            "offset": 0,
            "slot": "2",
            "type": "t_uint128"
          },
          {
            "astId": 1435,
            "contract": "contracts/GDrive.sol:GDrive",
            "label": "expiryDate",
            "offset": 16,
            "slot": "2",
            "type": "t_uint64"
          },
          {
            "astId": 1437,
            "contract": "contracts/GDrive.sol:GDrive",
            "label": "accessCount",
            "offset": 24,
            "slot": "2",
            "type": "t_uint32"
          },
          {
            "astId": 1439,
            "contract": "contracts/GDrive.sol:GDrive",
            "label": "maxAccess",
            "offset": 28,
            "slot": "2",
            "type": "t_uint32"
          },
          {
            "astId": 1441,
            "contract": "contracts/GDrive.sol:GDrive",
            "label": "password",
            "offset": 0,
            "slot": "3",
            "type": "t_string_storage"
          },
          {
            "astId": 1443,
            "contract": "contracts/GDrive.sol:GDrive",
            "label": "isActive",
            "offset": 0,
            "slot": "4",
            "type": "t_bool"
          }
        ],
        "numberOfBytes": "160"
      },
      "t_struct(ShareLink)1478_storage": {
        "encoding": "inplace",
        "label": "struct GDrive.ShareLink",
        "members": [
          {
            "astId": 1467,
            "contract": "contracts/GDrive.sol:GDrive",
            "label": "fileId",
            "offset": 0,
            "slot": "0",
            "type": "t_bytes32"
          },
          {
            "astId": 1469,
            "contract": "contracts/GDrive.sol:GDrive",
            "label": "creator",
            "offset": 0,
            "slot": "1",
            "type": "t_address"
          },
          {
            "astId": 1471,
            "contract": "contracts/GDrive.sol:GDrive",
            "label": "expiryDate",
            "offset": 20,
            "slot": "1",
            "type": "t_uint64"
          },
          {
            "astId": 1473,
            "contract": "contracts/GDrive.sol:GDrive",
            "label": "accessCount",
            "offset": 28,
            "slot": "1",
            "type": "t_uint32"
          },
          {
            "astId": 1475,
            "contract": "contracts/GDrive.sol:GDrive",
            "label": "maxAccess",
            "offset": 0,
            "slot": "2",
            "type": "t_uint32"
          },
          {
            "astId": 1477,
            "contract": "contracts/GDrive.sol:GDrive",
            "label": "isActive",
            "offset": 4,
            "slot": "2",
            "type": "t_bool"
          }
        ],
        "numberOfBytes": "96"
      },
      "t_struct(Subscription)1491_storage": {
        "encoding": "inplace",
        "label": "struct GDrive.Subscription",
        "members": [
          {
            "astId": 1480,
            "contract": "contracts/GDrive.sol:GDrive",
            "label": "user",
            "offset": 0,
            "slot": "0",
            "type": "t_address"
          },
          {
            "astId": 1482,
            "contract": "contracts/GDrive.sol:GDrive",
            "label": "storageLimit",
            "offset": 0,
            "slot": "1",
            "type": "t_uint128"
          },
          {
            "astId": 1484,
            "contract": "contracts/GDrive.sol:GDrive",
            "label": "bandwidthLimit",
            "offset": 16,
            "slot": "1",
            "type": "t_uint128"
          },
          {
            "astId": 1486,
            "contract": "contracts/GDrive.sol:GDrive",
            "label": "expiryDate",
            "offset": 0,
            "slot": "2",
            "type": "t_uint64"
          },
          {
            "astId": 1488,
            "contract": "contracts/GDrive.sol:GDrive",
            "label": "tier",
            "offset": 8,
            "slot": "2",
            "type": "t_uint8"
          },
          {
            "astId": 1490,
            "contract": "contracts/GDrive.sol:GDrive",
            "label": "isActive",
            "offset": 9,
            "slot": "2",
            "type": "t_bool"
          }
        ],
        "numberOfBytes": "96"
      },
      "t_uint128": {
        "encoding": "inplace",
        "label": "uint128",
        "numberOfBytes": "16"
      },
      "t_uint16": {
        "encoding": "inplace",
        "label": "uint16",
        "numberOfBytes": "2"
      },
      "t_uint256": {
        "encoding": "inplace",
        "label": "uint256",
        "numberOfBytes": "32"
      },
      "t_uint32": {
        "encoding": "inplace",
        "label": "uint32",
        "numberOfBytes": "4"
      },
      "t_uint64": {
        "encoding": "inplace",
        "label": "uint64",
        "numberOfBytes": "8"
      },
      "t_uint8": {
        "encoding": "inplace",
        "label": "uint8",
        "numberOfBytes": "1"
      }
    }
  }
}