{
  "address": "0x0e14D3b0c258ca41F17Beafaca9e3339eC61d591",
  "abi": [
    {
      "inputs": [
        {
          "internalType": "address",
          "name": "initialOwner",
          "type": "address"
        }
      ],
      "stateMutability": "nonpayable",
      "type": "constructor"
    },
    {
      "inputs": [],
      "name": "BandwidthLimitExceeded",
      "type": "error"
    },
    {
      "inputs": [],
      "name": "EnforcedPause",
      "type": "error"
    },
    {
      "inputs": [],
      "name": "ExpectedPause",
      "type": "error"
    },
    {
      "inputs": [],
      "name": "FileNotFound",
      "type": "error"
    },
    {
      "inputs": [],
      "name": "FileSizeTooLarge",
      "type": "error"
    },
    {
      "inputs": [],
      "name": "FolderNotFound",
      "type": "error"
    },
    {
      "inputs": [],
      "name": "GDVNotEnabled",
      "type": "error"
    },
    {
      "inputs": [],
      "name": "InsufficientPayment",
      "type": "error"
    },
    {
      "inputs": [],
      "name": "InsufficientPermissions",
      "type": "error"
    },
    {
      "inputs": [],
      "name": "InsufficientTokenAllowance",
      "type": "error"
    },
    {
      "inputs": [],
      "name": "InvalidGDVDiscount",
      "type": "error"
    },
    {
      "inputs": [],
      "name": "InvalidInput",
      "type": "error"
    },
    {
      "inputs": [],
      "name": "InvalidMaxAccess",
      "type": "error"
    },
    {
      "inputs": [],
      "name": "InvalidPrice",
      "type": "error"
    },
    {
      "inputs": [],
      "name": "InvalidSubscription",
      "type": "error"
    },
    {
      "inputs": [],
      "name": "InvalidTokenPrice",
      "type": "error"
    },
    {
      "inputs": [],
      "name": "LinkExpired",
      "type": "error"
    },
    {
      "inputs": [],
      "name": "LinkMaxAccessReached",
      "type": "error"
    },
    {
      "inputs": [],
      "name": "LinkNotActive",
      "type": "error"
    },
    {
      "inputs": [],
      "name": "NotFileOwner",
      "type": "error"
    },
    {
      "inputs": [],
      "name": "NotFolderOwner",
      "type": "error"
    },
    {
      "inputs": [
        {
          "internalType": "address",
          "name": "owner",
          "type": "address"
        }
      ],
      "name": "OwnableInvalidOwner",
      "type": "error"
    },
    {
      "inputs": [
        {
          "internalType": "address",
          "name": "account",
          "type": "address"
        }
      ],
      "name": "OwnableUnauthorizedAccount",
      "type": "error"
    },
    {
      "inputs": [],
      "name": "ReentrancyGuardReentrantCall",
      "type": "error"
    },
    {
      "inputs": [],
      "name": "StorageLimitExceeded",
      "type": "error"
    },
    {
      "inputs": [],
      "name": "TokenNotSupported",
      "type": "error"
    },
    {
      "inputs": [],
      "name": "TokenTransferFailed",
      "type": "error"
    },
    {
      "anonymous": false,
      "inputs": [
        {
          "indexed": true,
          "internalType": "address",
          "name": "newDefaultToken",
          "type": "address"
        }
      ],
      "name": "DefaultTokenChanged",
      "type": "event"
    },
    {
      "anonymous": false,
      "inputs": [
        {
          "indexed": true,
          "internalType": "bytes32",
          "name": "fileId",
          "type": "bytes32"
        },
        {
          "indexed": true,
          "internalType": "address",
          "name": "accessor",
          "type": "address"
        }
      ],
      "name": "FileAccessed",
      "type": "event"
    },
    {
      "anonymous": false,
      "inputs": [
        {
          "indexed": true,
          "internalType": "bytes32",
          "name": "fileId",
          "type": "bytes32"
        }
      ],
      "name": "FileDeleted",
      "type": "event"
    },
    {
      "anonymous": false,
      "inputs": [
        {
          "indexed": true,
          "internalType": "bytes32",
          "name": "fileId",
          "type": "bytes32"
        },
        {
          "indexed": false,
          "internalType": "uint16",
          "name": "version",
          "type": "uint16"
        }
      ],
      "name": "FileUpdated",
      "type": "event"
    },
    {
      "anonymous": false,
      "inputs": [
        {
          "indexed": true,
          "internalType": "bytes32",
          "name": "fileId",
          "type": "bytes32"
        },
        {
          "indexed": true,
          "internalType": "address",
          "name": "owner",
          "type": "address"
        },
        {
          "indexed": false,
          "internalType": "string",
          "name": "cid",
          "type": "string"
        }
      ],
      "name": "FileUploaded",
      "type": "event"
    },
    {
      "anonymous": false,
      "inputs": [
        {
          "indexed": true,
          "internalType": "bytes32",
          "name": "folderId",
          "type": "bytes32"
        },
        {
          "indexed": true,
          "internalType": "address",
          "name": "owner",
          "type": "address"
        }
      ],
      "name": "FolderCreated",
      "type": "event"
    },
    {
      "anonymous": false,
      "inputs": [
        {
          "indexed": false,
          "internalType": "uint256",
          "name": "newDiscount",
          "type": "uint256"
        }
      ],
      "name": "GDVDiscountUpdated",
      "type": "event"
    },
    {
      "anonymous": false,
      "inputs": [
        {
          "indexed": false,
          "internalType": "bool",
          "name": "enabled",
          "type": "bool"
        }
      ],
      "name": "GDVEnabled",
      "type": "event"
    },
    {
      "anonymous": false,
      "inputs": [
        {
          "indexed": true,
          "internalType": "address",
          "name": "from",
          "type": "address"
        },
        {
          "indexed": false,
          "internalType": "uint256",
          "name": "amount",
          "type": "uint256"
        }
      ],
      "name": "GDVPaymentReceived",
      "type": "event"
    },
    {
      "anonymous": false,
      "inputs": [
        {
          "indexed": true,
          "internalType": "address",
          "name": "token",
          "type": "address"
        }
      ],
      "name": "GDVTokenSet",
      "type": "event"
    },
    {
      "anonymous": false,
      "inputs": [
        {
          "indexed": true,
          "internalType": "address",
          "name": "previousOwner",
          "type": "address"
        },
        {
          "indexed": true,
          "internalType": "address",
          "name": "newOwner",
          "type": "address"
        }
      ],
      "name": "OwnershipTransferred",
      "type": "event"
    },
    {
      "anonymous": false,
      "inputs": [
        {
          "indexed": true,
          "internalType": "bytes32",
          "name": "linkId",
          "type": "bytes32"
        },
        {
          "indexed": true,
          "internalType": "address",
          "name": "accessor",
          "type": "address"
        },
        {
          "indexed": false,
          "internalType": "uint256",
          "name": "amount",
          "type": "uint256"
        }
      ],
      "name": "PaidAccessCompleted",
      "type": "event"
    },
    {
      "anonymous": false,
      "inputs": [
        {
          "indexed": true,
          "internalType": "bytes32",
          "name": "linkId",
          "type": "bytes32"
        },
        {
          "indexed": true,
          "internalType": "bytes32",
          "name": "fileId",
          "type": "bytes32"
        },
        {
          "indexed": true,
          "internalType": "address",
          "name": "creator",
          "type": "address"
        },
        {
          "indexed": false,
          "internalType": "uint256",
          "name": "pricePerAccess",
          "type": "uint256"
        },
        {
          "indexed": false,
          "internalType": "uint64",
          "name": "expiryDate",
          "type": "uint64"
        },
        {
          "indexed": false,
          "internalType": "uint32",
          "name": "maxAccess",
          "type": "uint32"
        }
      ],
      "name": "PaidShareLinkCreated",
      "type": "event"
    },
    {
      "anonymous": false,
      "inputs": [
        {
          "indexed": false,
          "internalType": "address",
          "name": "account",
          "type": "address"
        }
      ],
      "name": "Paused",
      "type": "event"
    },
    {
      "anonymous": false,
      "inputs": [
        {
          "indexed": true,
          "internalType": "address",
          "name": "referrer",
          "type": "address"
        },
        {
          "indexed": false,
          "internalType": "uint128",
          "name": "amount",
          "type": "uint128"
        }
      ],
      "name": "ReferralRewardPaid",
      "type": "event"
    },
    {
      "anonymous": false,
      "inputs": [
        {
          "indexed": true,
          "internalType": "address",
          "name": "user",
          "type": "address"
        },
        {
          "indexed": false,
          "internalType": "uint256",
          "name": "amount",
          "type": "uint256"
        }
      ],
      "name": "RevenueWithdrawn",
      "type": "event"
    },
    {
      "anonymous": false,
      "inputs": [
        {
          "indexed": true,
          "internalType": "bytes32",
          "name": "linkId",
          "type": "bytes32"
        },
        {
          "indexed": true,
          "internalType": "bytes32",
          "name": "fileId",
          "type": "bytes32"
        }
      ],
      "name": "ShareLinkCreated",
      "type": "event"
    },
    {
      "anonymous": false,
      "inputs": [
        {
          "indexed": true,
          "internalType": "address",
          "name": "user",
          "type": "address"
        },
        {
          "indexed": false,
          "internalType": "uint8",
          "name": "tier",
          "type": "uint8"
        },
        {
          "indexed": false,
          "internalType": "uint64",
          "name": "duration",
          "type": "uint64"
        }
      ],
      "name": "SubscriptionPurchased",
      "type": "event"
    },
    {
      "anonymous": false,
      "inputs": [
        {
          "indexed": true,
          "internalType": "address",
          "name": "token",
          "type": "address"
        },
        {
          "indexed": false,
          "internalType": "uint256",
          "name": "price",
          "type": "uint256"
        }
      ],
      "name": "TokenAdded",
      "type": "event"
    },
    {
      "anonymous": false,
      "inputs": [
        {
          "indexed": true,
          "internalType": "address",
          "name": "token",
          "type": "address"
        },
        {
          "indexed": true,
          "internalType": "address",
          "name": "from",
          "type": "address"
        },
        {
          "indexed": false,
          "internalType": "uint256",
          "name": "amount",
          "type": "uint256"
        }
      ],
      "name": "TokenPaymentReceived",
      "type": "event"
    },
    {
      "anonymous": false,
      "inputs": [
        {
          "indexed": true,
          "internalType": "address",
          "name": "token",
          "type": "address"
        },
        {
          "indexed": false,
          "internalType": "uint256",
          "name": "newPrice",
          "type": "uint256"
        }
      ],
      "name": "TokenPriceUpdated",
      "type": "event"
    },
    {
      "anonymous": false,
      "inputs": [
        {
          "indexed": true,
          "internalType": "address",
          "name": "token",
          "type": "address"
        }
      ],
      "name": "TokenRemoved",
      "type": "event"
    },
    {
      "anonymous": false,
      "inputs": [
        {
          "indexed": false,
          "internalType": "address",
          "name": "account",
          "type": "address"
        }
      ],
      "name": "Unpaused",
      "type": "event"
    },
    {
      "inputs": [
        {
          "internalType": "bytes32",
          "name": "linkId",
          "type": "bytes32"
        },
        {
          "internalType": "string",
          "name": "password",
          "type": "string"
        }
      ],
      "name": "accessFileViaLink",
      "outputs": [
        {
          "internalType": "string",
          "name": "cid",
          "type": "string"
        }
      ],
      "stateMutability": "nonpayable",
      "type": "function"
    },
    {
      "inputs": [
        {
          "internalType": "bytes32",
          "name": "linkId",
          "type": "bytes32"
        },
        {
          "internalType": "string",
          "name": "password",
          "type": "string"
        }
      ],
      "name": "accessPaidShareLink",
      "outputs": [
        {
          "internalType": "string",
          "name": "cid",
          "type": "string"
        }
      ],
      "stateMutability": "payable",
      "type": "function"
    },
    {
      "inputs": [
        {
          "internalType": "address",
          "name": "token",
          "type": "address"
        },
        {
          "internalType": "uint256",
          "name": "price",
          "type": "uint256"
        }
      ],
      "name": "addPaymentToken",
      "outputs": [],
      "stateMutability": "nonpayable",
      "type": "function"
    },
    {
      "inputs": [],
      "name": "bandwidthRatePerGB",
      "outputs": [
        {
          "internalType": "uint128",
          "name": "",
          "type": "uint128"
        }
      ],
      "stateMutability": "view",
      "type": "function"
    },
    {
      "inputs": [
        {
          "internalType": "bytes[]",
          "name": "paramsArray",
          "type": "bytes[]"
        }
      ],
      "name": "batchUploadFiles",
      "outputs": [
        {
          "internalType": "bytes32[]",
          "name": "fileIds",
          "type": "bytes32[]"
        }
      ],
      "stateMutability": "payable",
      "type": "function"
    },
    {
      "inputs": [
        {
          "internalType": "uint256",
          "name": "ethAmount",
          "type": "uint256"
        }
      ],
      "name": "calculateGDVAmount",
      "outputs": [
        {
          "internalType": "uint256",
          "name": "gdvAmount",
          "type": "uint256"
        }
      ],
      "stateMutability": "view",
      "type": "function"
    },
    {
      "inputs": [
        {
          "internalType": "uint256",
          "name": "ethAmount",
          "type": "uint256"
        },
        {
          "internalType": "address",
          "name": "token",
          "type": "address"
        }
      ],
      "name": "calculateTokenAmount",
      "outputs": [
        {
          "internalType": "uint256",
          "name": "tokenAmount",
          "type": "uint256"
        }
      ],
      "stateMutability": "view",
      "type": "function"
    },
    {
      "inputs": [
        {
          "internalType": "uint256",
          "name": "gdvAmount",
          "type": "uint256"
        }
      ],
      "name": "convertGDVToEth",
      "outputs": [],
      "stateMutability": "nonpayable",
      "type": "function"
    },
    {
      "inputs": [
        {
          "internalType": "string",
          "name": "name",
          "type": "string"
        },
        {
          "internalType": "bytes32",
          "name": "parentFolderId",
          "type": "bytes32"
        },
        {
          "internalType": "bool",
          "name": "isPublic",
          "type": "bool"
        }
      ],
      "name": "createFolder",
      "outputs": [
        {
          "internalType": "bytes32",
          "name": "folderId",
          "type": "bytes32"
        }
      ],
      "stateMutability": "nonpayable",
      "type": "function"
    },
    {
      "inputs": [
        {
          "internalType": "bytes32",
          "name": "fileId",
          "type": "bytes32"
        },
        {
          "internalType": "uint256",
          "name": "pricePerAccess",
          "type": "uint256"
        },
        {
          "internalType": "uint64",
          "name": "expiryDate",
          "type": "uint64"
        },
        {
          "internalType": "uint32",
          "name": "maxAccess",
          "type": "uint32"
        },
        {
          "internalType": "string",
          "name": "password",
          "type": "string"
        }
      ],
      "name": "createPaidShareLink",
      "outputs": [
        {
          "internalType": "bytes32",
          "name": "linkId",
          "type": "bytes32"
        }
      ],
      "stateMutability": "nonpayable",
      "type": "function"
    },
    {
      "inputs": [
        {
          "internalType": "bytes32",
          "name": "fileId",
          "type": "bytes32"
        },
        {
          "internalType": "uint64",
          "name": "expiryDate",
          "type": "uint64"
        },
        {
          "internalType": "uint32",
          "name": "maxAccess",
          "type": "uint32"
        },
        {
          "internalType": "string",
          "name": "password",
          "type": "string"
        }
      ],
      "name": "createShareLink",
      "outputs": [
        {
          "internalType": "bytes32",
          "name": "linkId",
          "type": "bytes32"
        }
      ],
      "stateMutability": "nonpayable",
      "type": "function"
    },
    {
      "inputs": [
        {
          "internalType": "bytes32",
          "name": "linkId",
          "type": "bytes32"
        }
      ],
      "name": "deactivatePaidShareLink",
      "outputs": [],
      "stateMutability": "nonpayable",
      "type": "function"
    },
    {
      "inputs": [],
      "name": "defaultPaymentToken",
      "outputs": [
        {
          "internalType": "address",
          "name": "",
          "type": "address"
        }
      ],
      "stateMutability": "view",
      "type": "function"
    },
    {
      "inputs": [
        {
          "internalType": "bytes32",
          "name": "fileId",
          "type": "bytes32"
        }
      ],
      "name": "deleteFile",
      "outputs": [],
      "stateMutability": "nonpayable",
      "type": "function"
    },
    {
      "inputs": [
        {
          "internalType": "address",
          "name": "",
          "type": "address"
        }
      ],
      "name": "earnedRevenue",
      "outputs": [
        {
          "internalType": "uint128",
          "name": "",
          "type": "uint128"
        }
      ],
      "stateMutability": "view",
      "type": "function"
    },
    {
      "inputs": [],
      "name": "emergencyWithdraw",
      "outputs": [],
      "stateMutability": "nonpayable",
      "type": "function"
    },
    {
      "inputs": [
        {
          "internalType": "bytes32",
          "name": "",
          "type": "bytes32"
        }
      ],
      "name": "fileExpiryDates",
      "outputs": [
        {
          "internalType": "uint64",
          "name": "",
          "type": "uint64"
        }
      ],
      "stateMutability": "view",
      "type": "function"
    },
    {
      "inputs": [
        {
          "internalType": "bytes32",
          "name": "",
          "type": "bytes32"
        }
      ],
      "name": "fileMetadata",
      "outputs": [
        {
          "internalType": "string",
          "name": "name",
          "type": "string"
        },
        {
          "internalType": "string",
          "name": "fileType",
          "type": "string"
        },
        {
          "internalType": "string",
          "name": "description",
          "type": "string"
        }
      ],
      "stateMutability": "view",
      "type": "function"
    },
    {
      "inputs": [
        {
          "internalType": "bytes32",
          "name": "",
          "type": "bytes32"
        }
      ],
      "name": "filePayments",
      "outputs": [
        {
          "internalType": "uint128",
          "name": "",
          "type": "uint128"
        }
      ],
      "stateMutability": "view",
      "type": "function"
    },
    {
      "inputs": [
        {
          "internalType": "bytes32",
          "name": "",
          "type": "bytes32"
        },
        {
          "internalType": "address",
          "name": "",
          "type": "address"
        }
      ],
      "name": "filePermissions",
      "outputs": [
        {
          "internalType": "enum GDrive.Permission",
          "name": "",
          "type": "uint8"
        }
      ],
      "stateMutability": "view",
      "type": "function"
    },
    {
      "inputs": [
        {
          "internalType": "string",
          "name": "",
          "type": "string"
        },
        {
          "internalType": "uint256",
          "name": "",
          "type": "uint256"
        }
      ],
      "name": "fileTypeIndex",
      "outputs": [
        {
          "internalType": "bytes32",
          "name": "",
          "type": "bytes32"
        }
      ],
      "stateMutability": "view",
      "type": "function"
    },
    {
      "inputs": [
        {
          "internalType": "bytes32",
          "name": "",
          "type": "bytes32"
        }
      ],
      "name": "files",
      "outputs": [
        {
          "internalType": "string",
          "name": "cid",
          "type": "string"
        },
        {
          "internalType": "address",
          "name": "owner",
          "type": "address"
        },
        {
          "internalType": "uint128",
          "name": "size",
          "type": "uint128"
        },
        {
          "internalType": "uint64",
          "name": "uploadDate",
          "type": "uint64"
        },
        {
          "internalType": "uint32",
          "name": "downloadCount",
          "type": "uint32"
        },
        {
          "internalType": "uint16",
          "name": "version",
          "type": "uint16"
        },
        {
          "internalType": "bool",
          "name": "isEncrypted",
          "type": "bool"
        },
        {
          "internalType": "bool",
          "name": "isPublic",
          "type": "bool"
        }
      ],
      "stateMutability": "view",
      "type": "function"
    },
    {
      "inputs": [
        {
          "internalType": "bytes32",
          "name": "",
          "type": "bytes32"
        },
        {
          "internalType": "uint256",
          "name": "",
          "type": "uint256"
        }
      ],
      "name": "folderFiles",
      "outputs": [
        {
          "internalType": "bytes32",
          "name": "",
          "type": "bytes32"
        }
      ],
      "stateMutability": "view",
      "type": "function"
    },
    {
      "inputs": [
        {
          "internalType": "bytes32",
          "name": "",
          "type": "bytes32"
        },
        {
          "internalType": "address",
          "name": "",
          "type": "address"
        }
      ],
      "name": "folderPermissions",
      "outputs": [
        {
          "internalType": "enum GDrive.Permission",
          "name": "",
          "type": "uint8"
        }
      ],
      "stateMutability": "view",
      "type": "function"
    },
    {
      "inputs": [
        {
          "internalType": "bytes32",
          "name": "",
          "type": "bytes32"
        },
        {
          "internalType": "uint256",
          "name": "",
          "type": "uint256"
        }
      ],
      "name": "folderSubFolders",
      "outputs": [
        {
          "internalType": "bytes32",
          "name": "",
          "type": "bytes32"
        }
      ],
      "stateMutability": "view",
      "type": "function"
    },
    {
      "inputs": [
        {
          "internalType": "bytes32",
          "name": "",
          "type": "bytes32"
        }
      ],
      "name": "folders",
      "outputs": [
        {
          "internalType": "string",
          "name": "name",
          "type": "string"
        },
        {
          "internalType": "address",
          "name": "owner",
          "type": "address"
        },
        {
          "internalType": "bytes32",
          "name": "parentFolderId",
          "type": "bytes32"
        },
        {
          "internalType": "uint64",
          "name": "createdDate",
          "type": "uint64"
        },
        {
          "internalType": "bool",
          "name": "isPublic",
          "type": "bool"
        }
      ],
      "stateMutability": "view",
      "type": "function"
    },
    {
      "inputs": [],
      "name": "gdvDiscount",
      "outputs": [
        {
          "internalType": "uint256",
          "name": "",
          "type": "uint256"
        }
      ],
      "stateMutability": "view",
      "type": "function"
    },
    {
      "inputs": [],
      "name": "gdvEnabled",
      "outputs": [
        {
          "internalType": "bool",
          "name": "",
          "type": "bool"
        }
      ],
      "stateMutability": "view",
      "type": "function"
    },
    {
      "inputs": [],
      "name": "gdvToken",
      "outputs": [
        {
          "internalType": "contract IGDVToken",
          "name": "",
          "type": "address"
        }
      ],
      "stateMutability": "view",
      "type": "function"
    },
    {
      "inputs": [
        {
          "internalType": "bytes32",
          "name": "fileId",
          "type": "bytes32"
        }
      ],
      "name": "getFileDetails",
      "outputs": [
        {
          "internalType": "string",
          "name": "name",
          "type": "string"
        },
        {
          "internalType": "string",
          "name": "fileType",
          "type": "string"
        },
        {
          "internalType": "string",
          "name": "cid",
          "type": "string"
        },
        {
          "internalType": "uint128",
          "name": "size",
          "type": "uint128"
        },
        {
          "internalType": "uint64",
          "name": "uploadDate",
          "type": "uint64"
        },
        {
          "internalType": "bool",
          "name": "isEncrypted",
          "type": "bool"
        },
        {
          "internalType": "address",
          "name": "owner",
          "type": "address"
        },
        {
          "internalType": "string",
          "name": "description",
          "type": "string"
        },
        {
          "internalType": "uint64",
          "name": "expiryDate",
          "type": "uint64"
        },
        {
          "internalType": "uint32",
          "name": "downloadCount",
          "type": "uint32"
        },
        {
          "internalType": "uint16",
          "name": "version",
          "type": "uint16"
        }
      ],
      "stateMutability": "view",
      "type": "function"
    },
    {
      "inputs": [
        {
          "internalType": "string",
          "name": "cid",
          "type": "string"
        }
      ],
      "name": "getFileIdByCid",
      "outputs": [
        {
          "internalType": "bytes32",
          "name": "",
          "type": "bytes32"
        }
      ],
      "stateMutability": "view",
      "type": "function"
    },
    {
      "inputs": [
        {
          "internalType": "bytes32",
          "name": "folderId",
          "type": "bytes32"
        }
      ],
      "name": "getFolderContents",
      "outputs": [
        {
          "internalType": "bytes32[]",
          "name": "subFolderIds",
          "type": "bytes32[]"
        },
        {
          "internalType": "bytes32[]",
          "name": "fileIds",
          "type": "bytes32[]"
        }
      ],
      "stateMutability": "view",
      "type": "function"
    },
    {
      "inputs": [
        {
          "internalType": "bytes32",
          "name": "linkId",
          "type": "bytes32"
        }
      ],
      "name": "getPaidShareLink",
      "outputs": [
        {
          "internalType": "bytes32",
          "name": "fileId",
          "type": "bytes32"
        },
        {
          "internalType": "address",
          "name": "creator",
          "type": "address"
        },
        {
          "internalType": "uint256",
          "name": "pricePerAccess",
          "type": "uint256"
        },
        {
          "internalType": "uint64",
          "name": "expiryDate",
          "type": "uint64"
        },
        {
          "internalType": "uint32",
          "name": "accessCount",
          "type": "uint32"
        },
        {
          "internalType": "uint32",
          "name": "maxAccess",
          "type": "uint32"
        },
        {
          "internalType": "string",
          "name": "password",
          "type": "string"
        },
        {
          "internalType": "bool",
          "name": "isActive",
          "type": "bool"
        }
      ],
      "stateMutability": "view",
      "type": "function"
    },
    {
      "inputs": [
        {
          "internalType": "bytes32",
          "name": "fileId",
          "type": "bytes32"
        }
      ],
      "name": "getPaidShareLinksForFile",
      "outputs": [
        {
          "internalType": "bytes32[]",
          "name": "linkIds",
          "type": "bytes32[]"
        }
      ],
      "stateMutability": "view",
      "type": "function"
    },
    {
      "inputs": [],
      "name": "getSubscriptionTiers",
      "outputs": [
        {
          "internalType": "uint128[4]",
          "name": "storageLimits",
          "type": "uint128[4]"
        },
        {
          "internalType": "uint128[4]",
          "name": "bandwidthLimits",
          "type": "uint128[4]"
        },
        {
          "internalType": "uint128[4]",
          "name": "prices",
          "type": "uint128[4]"
        }
      ],
      "stateMutability": "view",
      "type": "function"
    },
    {
      "inputs": [
        {
          "internalType": "address",
          "name": "user",
          "type": "address"
        }
      ],
      "name": "getUserFiles",
      "outputs": [
        {
          "internalType": "bytes32[]",
          "name": "fileIds",
          "type": "bytes32[]"
        },
        {
          "internalType": "string[]",
          "name": "names",
          "type": "string[]"
        },
        {
          "internalType": "string[]",
          "name": "cids",
          "type": "string[]"
        },
        {
          "internalType": "uint128[]",
          "name": "sizes",
          "type": "uint128[]"
        },
        {
          "internalType": "uint64[]",
          "name": "uploadDates",
          "type": "uint64[]"
        },
        {
          "internalType": "bool[]",
          "name": "isPublics",
          "type": "bool[]"
        },
        {
          "internalType": "string[]",
          "name": "fileTypes",
          "type": "string[]"
        }
      ],
      "stateMutability": "view",
      "type": "function"
    },
    {
      "inputs": [
        {
          "internalType": "address",
          "name": "user",
          "type": "address"
        }
      ],
      "name": "getUserStats",
      "outputs": [
        {
          "internalType": "uint128",
          "name": "storageUsed",
          "type": "uint128"
        },
        {
          "internalType": "uint128",
          "name": "storageLimit",
          "type": "uint128"
        },
        {
          "internalType": "uint128",
          "name": "bandwidthUsed",
          "type": "uint128"
        },
        {
          "internalType": "uint128",
          "name": "bandwidthLimit",
          "type": "uint128"
        },
        {
          "internalType": "uint256",
          "name": "fileCount",
          "type": "uint256"
        },
        {
          "internalType": "uint256",
          "name": "folderCount",
          "type": "uint256"
        },
        {
          "internalType": "uint8",
          "name": "tier",
          "type": "uint8"
        },
        {
          "internalType": "uint64",
          "name": "expiryDate",
          "type": "uint64"
        }
      ],
      "stateMutability": "view",
      "type": "function"
    },
    {
      "inputs": [
        {
          "internalType": "address",
          "name": "",
          "type": "address"
        }
      ],
      "name": "lastBandwidthReset",
      "outputs": [
        {
          "internalType": "uint64",
          "name": "",
          "type": "uint64"
        }
      ],
      "stateMutability": "view",
      "type": "function"
    },
    {
      "inputs": [],
      "name": "maxFileSize",
      "outputs": [
        {
          "internalType": "uint128",
          "name": "",
          "type": "uint128"
        }
      ],
      "stateMutability": "view",
      "type": "function"
    },
    {
      "inputs": [],
      "name": "minimumStoragePeriod",
      "outputs": [
        {
          "internalType": "uint64",
          "name": "",
          "type": "uint64"
        }
      ],
      "stateMutability": "view",
      "type": "function"
    },
    {
      "inputs": [],
      "name": "owner",
      "outputs": [
        {
          "internalType": "address",
          "name": "",
          "type": "address"
        }
      ],
      "stateMutability": "view",
      "type": "function"
    },
    {
      "inputs": [
        {
          "internalType": "bytes32",
          "name": "",
          "type": "bytes32"
        }
      ],
      "name": "paidShareLinks",
      "outputs": [
        {
          "internalType": "bytes32",
          "name": "fileId",
          "type": "bytes32"
        },
        {
          "internalType": "address",
          "name": "creator",
          "type": "address"
        },
        {
          "internalType": "uint256",
          "name": "pricePerAccess",
          "type": "uint256"
        },
        {
          "internalType": "uint64",
          "name": "expiryDate",
          "type": "uint64"
        },
        {
          "internalType": "uint32",
          "name": "accessCount",
          "type": "uint32"
        },
        {
          "internalType": "uint32",
          "name": "maxAccess",
          "type": "uint32"
        },
        {
          "internalType": "string",
          "name": "password",
          "type": "string"
        },
        {
          "internalType": "bool",
          "name": "isActive",
          "type": "bool"
        }
      ],
      "stateMutability": "view",
      "type": "function"
    },
    {
      "inputs": [],
      "name": "pause",
      "outputs": [],
      "stateMutability": "nonpayable",
      "type": "function"
    },
    {
      "inputs": [],
      "name": "paused",
      "outputs": [
        {
          "internalType": "bool",
          "name": "",
          "type": "bool"
        }
      ],
      "stateMutability": "view",
      "type": "function"
    },
    {
      "inputs": [
        {
          "internalType": "uint256",
          "name": "",
          "type": "uint256"
        }
      ],
      "name": "publicFiles",
      "outputs": [
        {
          "internalType": "bytes32",
          "name": "",
          "type": "bytes32"
        }
      ],
      "stateMutability": "view",
      "type": "function"
    },
    {
      "inputs": [
        {
          "internalType": "uint256",
          "name": "",
          "type": "uint256"
        }
      ],
      "name": "publicFolders",
      "outputs": [
        {
          "internalType": "bytes32",
          "name": "",
          "type": "bytes32"
        }
      ],
      "stateMutability": "view",
      "type": "function"
    },
    {
      "inputs": [
        {
          "internalType": "uint8",
          "name": "tier",
          "type": "uint8"
        },
        {
          "internalType": "uint64",
          "name": "duration",
          "type": "uint64"
        },
        {
          "internalType": "address",
          "name": "referrer",
          "type": "address"
        }
      ],
      "name": "purchaseSubscription",
      "outputs": [],
      "stateMutability": "payable",
      "type": "function"
    },
    {
      "inputs": [
        {
          "internalType": "uint8",
          "name": "tier",
          "type": "uint8"
        },
        {
          "internalType": "uint64",
          "name": "duration",
          "type": "uint64"
        },
        {
          "internalType": "address",
          "name": "referrer",
          "type": "address"
        }
      ],
      "name": "purchaseSubscriptionWithGDV",
      "outputs": [],
      "stateMutability": "nonpayable",
      "type": "function"
    },
    {
      "inputs": [
        {
          "internalType": "uint8",
          "name": "tier",
          "type": "uint8"
        },
        {
          "internalType": "uint64",
          "name": "duration",
          "type": "uint64"
        },
        {
          "internalType": "address",
          "name": "referrer",
          "type": "address"
        },
        {
          "internalType": "address",
          "name": "token",
          "type": "address"
        }
      ],
      "name": "purchaseSubscriptionWithToken",
      "outputs": [],
      "stateMutability": "nonpayable",
      "type": "function"
    },
    {
      "inputs": [],
      "name": "referralRewardPercentage",
      "outputs": [
        {
          "internalType": "uint64",
          "name": "",
          "type": "uint64"
        }
      ],
      "stateMutability": "view",
      "type": "function"
    },
    {
      "inputs": [
        {
          "internalType": "address",
          "name": "",
          "type": "address"
        }
      ],
      "name": "referralRewards",
      "outputs": [
        {
          "internalType": "uint256",
          "name": "",
          "type": "uint256"
        }
      ],
      "stateMutability": "view",
      "type": "function"
    },
    {
      "inputs": [
        {
          "internalType": "address",
          "name": "",
          "type": "address"
        }
      ],
      "name": "referrers",
      "outputs": [
        {
          "internalType": "address",
          "name": "",
          "type": "address"
        }
      ],
      "stateMutability": "view",
      "type": "function"
    },
    {
      "inputs": [
        {
          "internalType": "address",
          "name": "token",
          "type": "address"
        }
      ],
      "name": "removePaymentToken",
      "outputs": [],
      "stateMutability": "nonpayable",
      "type": "function"
    },
    {
      "inputs": [
        {
          "internalType": "bytes32",
          "name": "fileId",
          "type": "bytes32"
        },
        {
          "internalType": "uint64",
          "name": "additionalPeriod",
          "type": "uint64"
        }
      ],
      "name": "renewFile",
      "outputs": [],
      "stateMutability": "payable",
      "type": "function"
    },
    {
      "inputs": [],
      "name": "renounceOwnership",
      "outputs": [],
      "stateMutability": "nonpayable",
      "type": "function"
    },
    {
      "inputs": [
        {
          "internalType": "uint128",
          "name": "_rate",
          "type": "uint128"
        }
      ],
      "name": "setBandwidthRate",
      "outputs": [],
      "stateMutability": "nonpayable",
      "type": "function"
    },
    {
      "inputs": [
        {
          "internalType": "address",
          "name": "token",
          "type": "address"
        }
      ],
      "name": "setDefaultPaymentToken",
      "outputs": [],
      "stateMutability": "nonpayable",
      "type": "function"
    },
    {
      "inputs": [
        {
          "internalType": "bool",
          "name": "enabled",
          "type": "bool"
        }
      ],
      "name": "setGDVEnabled",
      "outputs": [],
      "stateMutability": "nonpayable",
      "type": "function"
    },
    {
      "inputs": [
        {
          "internalType": "address",
          "name": "token",
          "type": "address"
        }
      ],
      "name": "setGDVToken",
      "outputs": [],
      "stateMutability": "nonpayable",
      "type": "function"
    },
    {
      "inputs": [
        {
          "internalType": "uint128",
          "name": "_rate",
          "type": "uint128"
        }
      ],
      "name": "setStorageRate",
      "outputs": [],
      "stateMutability": "nonpayable",
      "type": "function"
    },
    {
      "inputs": [
        {
          "internalType": "bytes32",
          "name": "",
          "type": "bytes32"
        }
      ],
      "name": "shareLinkPasswords",
      "outputs": [
        {
          "internalType": "string",
          "name": "",
          "type": "string"
        }
      ],
      "stateMutability": "view",
      "type": "function"
    },
    {
      "inputs": [
        {
          "internalType": "bytes32",
          "name": "",
          "type": "bytes32"
        }
      ],
      "name": "shareLinks",
      "outputs": [
        {
          "internalType": "bytes32",
          "name": "fileId",
          "type": "bytes32"
        },
        {
          "internalType": "address",
          "name": "creator",
          "type": "address"
        },
        {
          "internalType": "uint64",
          "name": "expiryDate",
          "type": "uint64"
        },
        {
          "internalType": "uint32",
          "name": "accessCount",
          "type": "uint32"
        },
        {
          "internalType": "uint32",
          "name": "maxAccess",
          "type": "uint32"
        },
        {
          "internalType": "bool",
          "name": "isActive",
          "type": "bool"
        }
      ],
      "stateMutability": "view",
      "type": "function"
    },
    {
      "inputs": [],
      "name": "storageRatePerMBPerYear",
      "outputs": [
        {
          "internalType": "uint128",
          "name": "",
          "type": "uint128"
        }
      ],
      "stateMutability": "view",
      "type": "function"
    },
    {
      "inputs": [
        {
          "internalType": "address",
          "name": "",
          "type": "address"
        }
      ],
      "name": "subscriptions",
      "outputs": [
        {
          "internalType": "address",
          "name": "user",
          "type": "address"
        },
        {
          "internalType": "uint128",
          "name": "storageLimit",
          "type": "uint128"
        },
        {
          "internalType": "uint128",
          "name": "bandwidthLimit",
          "type": "uint128"
        },
        {
          "internalType": "uint64",
          "name": "expiryDate",
          "type": "uint64"
        },
        {
          "internalType": "uint8",
          "name": "tier",
          "type": "uint8"
        },
        {
          "internalType": "bool",
          "name": "isActive",
          "type": "bool"
        }
      ],
      "stateMutability": "view",
      "type": "function"
    },
    {
      "inputs": [
        {
          "internalType": "address",
          "name": "",
          "type": "address"
        }
      ],
      "name": "supportedTokens",
      "outputs": [
        {
          "internalType": "bool",
          "name": "",
          "type": "bool"
        }
      ],
      "stateMutability": "view",
      "type": "function"
    },
    {
      "inputs": [
        {
          "internalType": "string",
          "name": "",
          "type": "string"
        },
        {
          "internalType": "uint256",
          "name": "",
          "type": "uint256"
        }
      ],
      "name": "taggedFiles",
      "outputs": [
        {
          "internalType": "bytes32",
          "name": "",
          "type": "bytes32"
        }
      ],
      "stateMutability": "view",
      "type": "function"
    },
    {
      "inputs": [
        {
          "internalType": "uint256",
          "name": "",
          "type": "uint256"
        }
      ],
      "name": "tierBandwidthLimits",
      "outputs": [
        {
          "internalType": "uint128",
          "name": "",
          "type": "uint128"
        }
      ],
      "stateMutability": "view",
      "type": "function"
    },
    {
      "inputs": [
        {
          "internalType": "uint256",
          "name": "",
          "type": "uint256"
        }
      ],
      "name": "tierPrices",
      "outputs": [
        {
          "internalType": "uint128",
          "name": "",
          "type": "uint128"
        }
      ],
      "stateMutability": "view",
      "type": "function"
    },
    {
      "inputs": [
        {
          "internalType": "uint256",
          "name": "",
          "type": "uint256"
        }
      ],
      "name": "tierStorageLimits",
      "outputs": [
        {
          "internalType": "uint128",
          "name": "",
          "type": "uint128"
        }
      ],
      "stateMutability": "view",
      "type": "function"
    },
    {
      "inputs": [
        {
          "internalType": "address",
          "name": "",
          "type": "address"
        }
      ],
      "name": "tokenPrices",
      "outputs": [
        {
          "internalType": "uint256",
          "name": "",
          "type": "uint256"
        }
      ],
      "stateMutability": "view",
      "type": "function"
    },
    {
      "inputs": [
        {
          "internalType": "address",
          "name": "newOwner",
          "type": "address"
        }
      ],
      "name": "transferOwnership",
      "outputs": [],
      "stateMutability": "nonpayable",
      "type": "function"
    },
    {
      "inputs": [],
      "name": "unpause",
      "outputs": [],
      "stateMutability": "nonpayable",
      "type": "function"
    },
    {
      "inputs": [
        {
          "internalType": "bytes32",
          "name": "fileId",
          "type": "bytes32"
        },
        {
          "internalType": "string",
          "name": "newCID",
          "type": "string"
        },
        {
          "internalType": "uint128",
          "name": "newSize",
          "type": "uint128"
        }
      ],
      "name": "updateFileVersion",
      "outputs": [],
      "stateMutability": "nonpayable",
      "type": "function"
    },
    {
      "inputs": [
        {
          "internalType": "uint256",
          "name": "discount",
          "type": "uint256"
        }
      ],
      "name": "updateGDVDiscount",
      "outputs": [],
      "stateMutability": "nonpayable",
      "type": "function"
    },
    {
      "inputs": [
        {
          "internalType": "uint8",
          "name": "tier",
          "type": "uint8"
        },
        {
          "internalType": "uint128",
          "name": "storageLimit",
          "type": "uint128"
        },
        {
          "internalType": "uint128",
          "name": "bandwidthLimit",
          "type": "uint128"
        },
        {
          "internalType": "uint128",
          "name": "price",
          "type": "uint128"
        }
      ],
      "name": "updateTierConfig",
      "outputs": [],
      "stateMutability": "nonpayable",
      "type": "function"
    },
    {
      "inputs": [
        {
          "internalType": "address",
          "name": "token",
          "type": "address"
        },
        {
          "internalType": "uint256",
          "name": "newPrice",
          "type": "uint256"
        }
      ],
      "name": "updateTokenPrice",
      "outputs": [],
      "stateMutability": "nonpayable",
      "type": "function"
    },
    {
      "inputs": [
        {
          "internalType": "bytes",
          "name": "params",
          "type": "bytes"
        }
      ],
      "name": "uploadFile",
      "outputs": [
        {
          "internalType": "bytes32",
          "name": "fileId",
          "type": "bytes32"
        }
      ],
      "stateMutability": "payable",
      "type": "function"
    },
    {
      "inputs": [
        {
          "internalType": "bytes",
          "name": "params",
          "type": "bytes"
        }
      ],
      "name": "uploadFileWithGDV",
      "outputs": [
        {
          "internalType": "bytes32",
          "name": "fileId",
          "type": "bytes32"
        }
      ],
      "stateMutability": "nonpayable",
      "type": "function"
    },
    {
      "inputs": [
        {
          "internalType": "bytes",
          "name": "params",
          "type": "bytes"
        },
        {
          "internalType": "address",
          "name": "token",
          "type": "address"
        }
      ],
      "name": "uploadFileWithToken",
      "outputs": [
        {
          "internalType": "bytes32",
          "name": "fileId",
          "type": "bytes32"
        }
      ],
      "stateMutability": "nonpayable",
      "type": "function"
    },
    {
      "inputs": [
        {
          "internalType": "address",
          "name": "",
          "type": "address"
        }
      ],
      "name": "userBalances",
      "outputs": [
        {
          "internalType": "uint128",
          "name": "",
          "type": "uint128"
        }
      ],
      "stateMutability": "view",
      "type": "function"
    },
    {
      "inputs": [
        {
          "internalType": "address",
          "name": "",
          "type": "address"
        }
      ],
      "name": "userBandwidthUsed",
      "outputs": [
        {
          "internalType": "uint128",
          "name": "",
          "type": "uint128"
        }
      ],
      "stateMutability": "view",
      "type": "function"
    },
    {
      "inputs": [
        {
          "internalType": "address",
          "name": "",
          "type": "address"
        },
        {
          "internalType": "string",
          "name": "",
          "type": "string"
        }
      ],
      "name": "userCidToFileId",
      "outputs": [
        {
          "internalType": "bytes32",
          "name": "",
          "type": "bytes32"
        }
      ],
      "stateMutability": "view",
      "type": "function"
    },
    {
      "inputs": [
        {
          "internalType": "address",
          "name": "",
          "type": "address"
        },
        {
          "internalType": "uint256",
          "name": "",
          "type": "uint256"
        }
      ],
      "name": "userFiles",
      "outputs": [
        {
          "internalType": "bytes32",
          "name": "",
          "type": "bytes32"
        }
      ],
      "stateMutability": "view",
      "type": "function"
    },
    {
      "inputs": [
        {
          "internalType": "address",
          "name": "",
          "type": "address"
        },
        {
          "internalType": "uint256",
          "name": "",
          "type": "uint256"
        }
      ],
      "name": "userFolders",
      "outputs": [
        {
          "internalType": "bytes32",
          "name": "",
          "type": "bytes32"
        }
      ],
      "stateMutability": "view",
      "type": "function"
    },
    {
      "inputs": [
        {
          "internalType": "address",
          "name": "",
          "type": "address"
        }
      ],
      "name": "userStorageUsed",
      "outputs": [
        {
          "internalType": "uint128",
          "name": "",
          "type": "uint128"
        }
      ],
      "stateMutability": "view",
      "type": "function"
    },
    {
      "inputs": [],
      "name": "withdrawEarnings",
      "outputs": [],
      "stateMutability": "nonpayable",
      "type": "function"
    },
    {
      "inputs": [
        {
          "internalType": "address",
          "name": "token",
          "type": "address"
        },
        {
          "internalType": "uint256",
          "name": "amount",
          "type": "uint256"
        }
      ],
      "name": "withdrawTokens",
      "outputs": [],
      "stateMutability": "nonpayable",
      "type": "function"
    },
    {
      "stateMutability": "payable",
      "type": "receive"
    }
  ],
  "transactionHash": "0xaf67a7e139dd302405e18d48203eca83cb085d955ac7f71419a8d3ea6da23fd5",
  "args": [
    "0xdeFe84043EA9eC2E14747685d7295574b6bFbde7"
  ],
  "numDeployments": 4,
  "solcInputHash": "a45a12886bb1ed59b2303347cc160f54",
  "bytecode": "0x608034620002b5576001600160401b0390601f620060d838819003918201601f1916830192919084841183851017620002ba578160209284926040968752833981010312620002b557516001600160a01b03929083811690819003620002b55780156200029d57600080546001600160a01b0319808216841783559591929190829082167f8be0079c531659141344cd1fd0a4f28419497f9722a3daafe3b4186f6b6457e08580a360018055600280546001600160881b0319166609184e72a0000017905574014000000000000000000000000000048c27395000600355600480546001600160801b03199081166903e80000000000278d00179091557419000000000000000000000000000000004000000060215574fa0000000000000000000000000000000280000000602355642386f26fc160901b6025557509c4000000000000000000000000000000fa000000006022557561a8000000000000000000000000000009c4000000006024557702c68af0bb140000000000000000000000b1a2bc2ec50000602655426301e1338081019391908410620002895786519060c08201828110888211176200027557918899600292899a99948a5285835260208301634000000081528a840192640280000000845286606086019a168a5260808501988b8a5260a086019860018a528c52600a6020528c8c209551169085541617845560018060801b03905116915160801b161760018201550193511669ff00000000000000000068ff000000000000000085549451881b169251151560481b169260018060501b0319161717179055600f6020522090421660018060401b031982541617905551615e079081620002d18239f35b634e487b7160e01b87526041600452602487fd5b634e487b7160e01b85526011600452602485fd5b8251631e4fbdf760e01b815260006004820152602490fd5b600080fd5b634e487b7160e01b600052604160045260246000fdfe6080604052600436101561001b575b361561001957600080fd5b005b60003560e01c80630573a0dd1461058b57806306b091f914610586578063128034d1146105815780631376d0171461057c5780631cb103fa146105775780631fc37922146105725780631fd45a6a1461056d5780632002ccad14610568578063204120bc1461056357806323ced80b1461055e57806326224c64146105595780632658601714610554578063267275e11461054f5780632a7c46771461054a5780632b8578fe14610545578063300eccab14610540578063313b8ec31461053b5780633c4dd94f146105365780633ccfc7c3146105315780633f4ba83a1461052c57806343404cc2146105275780634506708e146105225780634a3b68cc1461051d5780634e43603a1461051857806353aaa63b14610513578063550b3a991461050e578063560dc342146105095780635b395159146105045780635c975abb146104ff5780635ce3957d146104fa5780635d8e8584146104f55780635e3fddf3146104f05780636412173e146104eb57806366215994146104e657806368c4ac26146104e15780636ab799f1146104dc5780636e4c5f01146104d75780636ec33bb6146104d2578063715018a6146104cd578063718f38a6146104c8578063776facd9146104c35780637cb570ab146104be5780637dbc96fa146104b95780637f50e7cc146104b45780638456cb59146104af5780638da5cb5b146104aa578063920a253e146104a557806393b6aac0146104a05780639525b14b1461049b578063954da27f1461049657806396d3ea891461049157806398c9adff1461048c57806398f7733e14610487578063a02b827714610482578063a22064d41461047d578063a41ca8b114610478578063a43bcc1214610473578063a453aba51461046e578063a512542114610469578063a56360f814610464578063a57b8b751461045f578063b44d0d901461045a578063b73c6ce914610455578063bb29758114610450578063bbcffbc71461044b578063bd44a64f14610446578063be26264414610441578063c89515a41461043c578063c90bab4d14610437578063d09e067e14610432578063d3ab4b421461042d578063d4ee651b14610428578063d8ed9a6c14610423578063d91dd84f1461041e578063db2e21bc14610419578063dca2996114610414578063e371817e1461040f578063e3b72ed01461040a578063e83306dd14610405578063e85d350114610400578063f0258b4f146103fb578063f046395a146103f6578063f0a2580a146103f1578063f2fde38b146103ec578063f479dd58146103e7578063f74b059e146103e25763fe75e3380361000e576141d0565b614147565b614053565b613fdd565b613e9a565b613e14565b613df6565b613c10565b613b3a565b613aa8565b613a7a565b613a4a565b613a06565b6139c4565b613958565b6138db565b61382f565b6137b7565b613783565b613741565b6134be565b613470565b61339f565b613377565b6132f6565b6130dd565b61304f565b613019565b612f66565b612ee9565b612e4e565b612e0b565b612d9c565b612c5a565b612c17565b612b94565b6129f2565b6129b0565b61294c565b6128c7565b61289c565b612873565b612819565b6127f0565b6127c7565b61277f565b612521565b6124d7565b61248b565b61240d565b61237e565b61213e565b6120ff565b6120c6565b61209d565b612059565b611fa9565b611f30565b611f0d565b611e3d565b611d39565b611c69565b611c2f565b611b52565b611b17565b611ad8565b611a16565b6119ac565b611978565b61189e565b6115d4565b6115ac565b611562565b61153c565b611501565b61127b565b611228565b61120a565b6111d0565b611075565b610fe5565b610e1c565b610c09565b610bbe565b61095e565b610822565b610775565b6000526006602052604060002090565b6000526007602052604060002090565b600052601c602052604060002090565b6000526013602052604060002090565b6000526008602052604060002090565b90600182811c92168015610610575b60208310146105fa57565b634e487b7160e01b600052602260045260246000fd5b91607f16916105ef565b634e487b7160e01b600052604160045260246000fd5b608081019081106001600160401b0382111761064b57604052565b61061a565b601f909101601f19168101906001600160401b0382119082101761064b57604052565b9060405191826000825492610687846105e0565b9081845260019485811690816000146106f657506001146106b3575b50506106b192500383610650565b565b9093915060005260209081600020936000915b8183106106de5750506106b1935082010138806106a3565b855488840185015294850194879450918301916106c6565b9150506106b194506020925060ff191682840152151560051b82010138806106a3565b60005b83811061072c5750506000910152565b818101518382015260200161071c565b9060209161075581518092818552858086019101610719565b601f01601f1916010190565b90602061077292818152019061073c565b90565b346107b95760203660031901126107b957600435600052601b6020526107b56107a16040600020610673565b60405191829160208352602083019061073c565b0390f35b600080fd5b6001600160a01b031690565b600435906001600160a01b03821682036107b957565b604435906001600160a01b03821682036107b957565b606435906001600160a01b03821682036107b957565b602435906001600160a01b03821682036107b957565b346107b95760403660031901126107b95761083b6107ca565b6108436141fd565b61085d610859610852836110b6565b5460ff1690565b1590565b6108ec5760206108a760009261087384546107be565b60405163a9059cbb60e01b81526001600160a01b039091166004820152602480359082015293849283919082906044820190565b03926001600160a01b03165af180156108e7576108c057005b6100199060203d81116108e0575b6108d88183610650565b810190615b98565b503d6108ce565b61518e565b604051633dd1b30560e01b8152600490fd5b9181601f840112156107b9578235916001600160401b0383116107b957602083818601950101116107b957565b9060406003198301126107b95760043591602435906001600160401b0382116107b95761095a916004016108fe565b9091565b346107b95761096c3661092b565b610980836000526009602052604060002090565b9160028301549360ff8560201c1615610ba05760018401805490954260a083901c6001600160401b03161115610b8e5763ffffffff168015159182610b80575b5050610b6e576109da90600052601b602052604060002090565b916109e583546105e0565b610b2c575b505050546109f781610590565b91610a01336110d0565b600281015460481c60ff16610a85575b6107b5610a798585610a3d86610a37610a2b825460e01c90565b60010163ffffffff1690565b906156dd565b610a5f60028301610a59610a2b825463ffffffff9060c01c1690565b90614603565b3390600080516020615d92833981519152600080a3610673565b60405191829182610761565b929091610a9133615a1e565b610aa2610a9d336110ea565b612b1c565b93610ad0610acb6001610ac2610abb6002880154610bb2565b8099614418565b93015460801c90565b610bb2565b6001600160801b0390911611610b1a57610a3d610a7993610b106107b596610b0a610afa336110ea565b91610b058354610bb2565b614b4f565b906145e4565b9294505091610a11565b604051635c31fe0f60e11b8152600490fd5b610b4891610b3b9136916113fd565b6020815191012091610673565b6020815191012003610b5c573880806109ea565b60405163061cbdd360e51b8152600490fd5b60405163178d0a3d60e11b8152600490fd5b60e01c1015905038806109c0565b6040516381a36e7f60e01b8152600490fd5b604051630614853960e21b8152600490fd5b6001600160801b031690565b346107b95760003660031901126107b957602060035460801c604051908152f35b60206003198201126107b957600435906001600160401b0382116107b95761095a916004016108fe565b346107b9576020610c1936610bdf565b9190336000528180526040600020836040519485938437820190815203019020548015610c4b57602090604051908152f35b604051633b4835d960e21b8152600490fd5b90815180825260208080930193019160005b828110610c7d575050505090565b835185529381019392810192600101610c6f565b908082519081815260208091019281808460051b8301019501936000915b848310610cbf5750505050505090565b9091929394958480610cdd600193601f198682030187528a5161073c565b9801930193019194939290610caf565b6001600160401b031690565b90815180825260208080930193019160005b828110610d19575050505090565b83516001600160401b031685529381019392810192600101610d0b565b90815180825260208080930193019160005b828110610d56575050505090565b8351151585529381019392810192600101610d48565b959397969492610d99610d8a610da79360e08a5260e08a0190610c5d565b602094898203868b0152610c91565b908782036040890152610c91565b858103606087015281808951928381520198019160005b828110610dff575050505090610de386610df193866107729899036080880152610cf9565b9084820360a0860152610d36565b9160c0818403910152610c91565b83516001600160801b03168a529881019892810192600101610dbe565b346107b95760203660031901126107b957610e3d610e386107ca565b611104565b805490610e4982614eb3565b610e52836158ac565b91610e5c846158ac565b93610e6681614eb3565b610e6f82614eb3565b90610e7983614eb3565b92610e83816158ac565b9460005b828110610ea3575050506107b594959660405197889788610d6c565b80610f7760018a610f7160028f8f9087610f1891610f0e82610ed6610ecc8f9e610f929f610fcd565b90549060031b1c90565b95610ee087610590565b96610ef483610eee836105a0565b9c614ee5565b52610efe8a610673565b610f088383614ee5565b52614ee5565b50610efe84610673565b500154610f3f848060801b038216610f30888d614ee5565b6001600160801b039091169052565b610f5d8b610f5888878060401b038560801c1692614ee5565b61448d565b60f81c610f6a868d614ee5565b9015159052565b01610673565b610f81828a614ee5565b52610f8c8189614ee5565b5061522c565b610e87565b634e487b7160e01b600052603260045260246000fd5b601954811015610fc857601960005260206000200190600090565b610f97565b8054821015610fc85760005260206000200190600090565b346107b95760203660031901126107b957600435601a548110156107b957601a600052600080516020615d528339815191520154604051908152602090f35b906004821015610fc85760108260011c6023019260041b1690565b906004821015610fc85760108260011c6025019260041b1690565b906004821015610fc85760108260011c6021019260041b1690565b346107b95760203660031901126107b95760043560048110156107b95761109d602091611024565b905460405160039290921b1c6001600160801b03168152f35b6001600160a01b0316600090815260276020526040902090565b6001600160a01b03166000908152600a6020526040902090565b6001600160a01b03166000908152600e6020526040902090565b6001600160a01b03166000908152600b6020526040902090565b6001600160a01b03166000908152601d6020526040902090565b6001600160a01b0316600090815260286020526040902090565b6001600160a01b03166000908152600c6020526040902090565b6001600160a01b03166000908152602080526040902090565b6001600160a01b03166000908152600d6020526040902090565b6001600160a01b03166000908152601e6020526040902090565b9060018060a01b0316600052602052604060002090565b346107b95760203660031901126107b9576001600160a01b036111f16107ca565b1660005260286020526020604060002054604051908152f35b346107b95760003660031901126107b9576020602b54604051908152f35b346107b95760203660031901126107b9576001600160a01b036112496107ca565b166000526014602052602060018060801b0360406000205416604051908152f35b906020610772928181520190610c5d565b346107b9576020806003193601126107b957600435600081815260068352604090819020600201546001600160401b0393929060801c841615611381576005906112cd6112c88354610ced565b610ced565b916112d783614eb3565b9460009360015b8189821611156112f8578588528651806107b58a8261126a565b86518381019061131d8161130f8542338c88615078565b03601f198101835282610650565b5190208561132a826105b0565b541480611366575b611346575b50611341906157ed565b6112de565b8661135f9161135961134194998c614ee5565b5261522c565b9590611337565b5061137c85611374836105b0565b015460ff1690565b611332565b8151633b4835d960e21b8152600490fd5b6040519061010082016001600160401b0381118382101761064b57604052565b6040519060a082016001600160401b0381118382101761064b57604052565b604051906106b182610630565b6040519060c082016001600160401b0381118382101761064b57604052565b9192916001600160401b03821161064b5760405191611426601f8201601f191660200184610650565b8294818452818301116107b9578281602093846000960137010152565b9080601f830112156107b957816020610772933591016113fd565b60406003198201126107b957600435906001600160401b0382116107b95761148891600401611443565b9060243590565b60206114a8918160405193828580945193849201610719565b8101601781520301902090565b60206114ce918160405193828580945193849201610719565b8101601881520301902090565b6020906114f5928260405194838680955193849201610719565b82019081520301902090565b346107b9576115196115123661145e565b919061148f565b80548210156107b95760209161152e91610fcd565b90546040519160031b1c8152f35b346107b95760003660031901126107b957602060ff602a5460a01c166040519015158152f35b346107b95760403660031901126107b95761157b6107ca565b6001600160a01b03166000908152600c60205260409020805460243591908210156107b95760209161152e91610fcd565b346107b95760203660031901126107b95760043560048110156107b95761109d60209161103f565b6115dd3661092b565b916115e661427f565b6115ef816105b0565b9160058301611602610859825460ff1690565b610ba05760038401805495909190426001600160401b0388161115610b8e5763ffffffff90818860601c1680151590816117fa575b50610b6e576002870194855434106117e857600488019061165882546105e0565b151592836117c5575b505050610b5c57855461167390610590565b818061167e83610673565b9960401c166001011661169190856150b3565b600201805460c01c63ffffffff1660010163ffffffff166116b191614603565b83546116bc90610bb2565b92600187019384546116cd906107be565b6116d69061111e565b9081546116e290610bb2565b906116ec91614b4f565b6116f5916145e4565b5490808260601c169182151561172a6000968796838897889761172f9761172a976117b5575b5050506117a7575b50546107be565b6107be565b85549082821561179e575bf1156108e757546040519081523391907fc5e32a055e1b677181eebb53f495262069d6d8a2612092e3182050362c96b0a390602090a3546107b56040519283923390600080516020615d92833981519152600080a361179860018055565b82610761565b506108fc61173a565b805460ff1916905538611723565b60401c161015905038808061171b565b6117d792935090610b3b9136916113fd565b602081519101201415388080611661565b60405163cd1c886760e01b8152600490fd5b9050828960401c16101538611637565b6004359060ff821682036107b957565b602435906001600160401b03821682036107b957565b604435906001600160401b03821682036107b957565b35906001600160401b03821682036107b957565b60609060031901126107b95760043560ff811681036107b957906024356001600160401b03811681036107b957906044356001600160a01b03811681036107b95790565b346107b9576118ac3661185a565b6118b461427f565b602a549160ff8360a01c1615611966576118d66118d18286615971565b615c63565b93602060405180956323b872dd60e01b8252816000816118fb8b303360048501615bad565b03926001600160a01b03165af19384156108e75761191e94611948575b50615bcf565b6040519081523390600080516020615d328339815191529080602081015b0390a261001960018055565b61195f9060203d81116108e0576108d88183610650565b5038611918565b6040516395ebbfa760e01b8152600490fd5b346107b95760203660031901126107b9576004356000526013602052602060018060401b0360406000205416604051908152f35b346107b95760003660031901126107b9576119c56141fd565b60025460ff811615611a045760ff19166002557f5db9ee0a495bf2e6ff9c91a7834c1ba4fdd244a5e8aa4e537bd38aeae4b073aa6020604051338152a1005b604051638dfc202b60e01b8152600490fd5b346107b95760403660031901126107b957611a2f6107ca565b602435611a3a6141fd565b6001600160a01b038216918215611ac6578115611ab457817ff4c563a3ea86ff1f4275e8c207df0375a51963f2b831b7bf4da8be938d92876c92611a9e611aaf93866000526027602052611a996040600020600160ff19825416179055565b611138565b556040519081529081906020820190565b0390a2005b604051637841c2c960e11b8152600490fd5b60405163b4fa3fb360e01b8152600490fd5b346107b95760203660031901126107b9576004356019548110156107b9576019600052600080516020615db28339815191520154604051908152602090f35b346107b95760203660031901126107b95760206001600160a01b0380611b3b6107ca565b16600052601e825260406000205416604051908152f35b346107b95760203660031901126107b957611b6b6107ca565b60018060a01b038116600052600a6020526040600020600d6020526107b560018060801b0391826040600020541692600182015491600e602052611bb26040600020612b1c565b956002611bc8611bc183611104565b5492611152565b54920154604080516001600160801b039889168152948616881660208601529690971683870152608093841c60608401529282019290925260a08101919091529183901c60ff1660c08301526001600160401b0390921660e0820152908190610100820190565b346107b95760203660031901126107b9576001600160a01b03611c506107ca565b16600052601f6020526020604060002054604051908152f35b346107b95760803660031901126107b957611c8261180a565b611c8a61181a565b611c926107e0565b91611c9b6107f6565b92611ca461427f565b611cb3610859610852866110b6565b6108ec57611cca84611cc58585615971565b615b19565b6040516323b872dd60e01b815290946001600160a01b031693909260208480611cf889303360048501615bad565b03816000895af19384156108e757611d14946119485750615bcf565b6040519182523391600080516020615d1283398151915290602090a361001960018055565b346107b95760203660031901126107b9576001600160a01b03611d5a6107ca565b16600052600e602052602060018060801b0360406000205416604051908152f35b96611e0590611e33976106b19c979b9e9d9b611dd0611e1297611dc28d6101409f9899611db4611e259d9b61016080855284019061073c565b91602081840391015261073c565b8d810360408f01529061073c565b6001600160801b0390961660608c01526001600160401b031660808b0152151560a08a01526001600160a01b031660c0890152565b86820360e088015261073c565b6001600160401b03909916610100850152565b63ffffffff16610120830152565b019061ffff169052565b346107b95760203660031901126107b95760043560008181526006602052604090206002015460801c6001600160401b031615610c4b57806000526006602052604060002060018060a01b036001820154163314159081611ed9575b81611ec9575b50610b5c57611eb06107b591615805565b9760409b999b979197969296959395519b8c9b8c611d7b565b6002015460f81c15905038611e9f565b90506001611efd61085233611ef8866000526010602052604060002090565b6111b9565b611f0681612026565b1090611e99565b346107b95760003660031901126107b957602060ff600254166040519015158152f35b346107b95760203660031901126107b957600435600052600960205260c0604060002060ff815491600260018201549101549060405193845260018060a01b038116602085015260018060401b038160a01c16604085015260e01c606084015263ffffffff8116608084015260201c16151560a0820152f35b346107b95760203660031901126107b957600435600052600760205261200a60406000206107b5611fd982610673565b91612018611ff56002611fee60018501610673565b9301610673565b9160405195869560608752606087019061073c565b90858203602087015261073c565b90838203604085015261073c565b6004111561203057565b634e487b7160e01b600052602160045260246000fd5b9190602083019260048210156120305752565b346107b95760403660031901126107b9576107b560ff61208f61207a61080c565b600435600052601060205260406000206111b9565b541660405191829182612046565b346107b95760003660031901126107b9576029546040516001600160a01b039091168152602090f35b346107b95760403660031901126107b9576024356004356000526016602052604060002080548210156107b95760209161152e91610fcd565b346107b95760203660031901126107b9576001600160a01b036121206107ca565b166000526027602052602060ff604060002054166040519015158152f35b346107b95760203660031901126107b9576004356000818152600660205260408120600190810154919290916001600160a01b0316330361236c578083526006602052604083206002015460801c6001600160401b031615610c4b57816121a482610590565b6121ad836105a0565b90856121c16121bb3361116c565b8361519a565b556121cb33611104565b86955b6122e0575b5061225a939450600361224c6122446122539360026121f4610a9d33611185565b910190612204610acb8354610bb2565b6001600160801b03909116106122bf5761223d6122218254610bb2565b610b0a61222d33611185565b916122388354610bb2565b6152c6565b5460f81c90565b948401610673565b92016152df565b90846153ad565b61226b61226682610590565b615334565b61227c612277826105a0565b61534c565b612298612288826105c0565b80546001600160401b0319169055565b7f88efefb1eaec3d3a0e08ed74bc99a3407d454b5da66112fed68b20d54837ccae8280a280f35b6122db6122cb33611185565b80546001600160801b0319169055565b61223d565b80949394548087101561236357846122fb610ecc8985610fcd565b14612314575061230e859695949561522c565b956121ce565b6122446122539361235760039461235261225a9a999b61234c612345610ecc61233f61224c9a61523b565b86610fcd565b9184610fcd565b9061449c565b61529c565b935050508594506121d3565b509392936121d3565b60405163abea322960e01b8152600490fd5b346107b95760003660031901126107b9576003546040516001600160801b039091168152602090f35b9081526001600160a01b03909116602082015260408101919091526001600160401b03909116606082015263ffffffff9182166080820152911660a082015261010060c08201819052929392909160e091612405919084019061073c565b931515910152565b346107b95760203660031901126107b957600435600052601c60205260406000208054906107b560018060a01b0360018301541691600281015492600382015490612462600460ff6005860154169401610673565b9160405196879663ffffffff93848460601c16948460401c169360018060401b031692896123a7565b346107b9576000806003193601126124d4576124a56141fd565b80546001600160a01b03198116825581906001600160a01b0316600080516020615d728339815191528280a380f35b80fd5b346107b95760403660031901126107b9576124f06107ca565b6001600160a01b03166000908152600b60205260409020805460243591908210156107b95760209161152e91610fcd565b61252a3661185a565b61253261427f565b600360ff841611611ac65761254b6112c8600454610ced565b6001600160401b039290838216908110611ac6576125698286615971565b34106117e857600080516020615cf28339815191529361193c936126a39261267e916001600160a01b0381168015159081612734575b5080612711575b6126f9575b506126616125b8336110d0565b6002810192856125c88554610ced565b4290821611156126e75750506125f86125f2886125e58654610ced565b016001600160401b031690565b84614b5c565b6126023382614229565b61263160016126286126138d61105a565b905460039190911b1c6001600160801b031690565b920191826145e4565b61263d6126138b611024565b9080546001600160801b031660809290921b6001600160801b031916919091179055565b61266b888261578f565b805460ff60481b1916600160481b179055565b421661269e336001600160a01b03166000908152600f6020526040902090565b614b5c565b6126af6122cb336110ea565b6126c1346001600160801b0316615a7e565b60405191829133958360ff90911681526001600160401b03909116602082015260400190565b6126f49142011684614b5c565b6125f8565b61270b906127063361119f565b614229565b386125ab565b5061272e61172a6127213361119f565b546001600160a01b031690565b156125a6565b90503314153861259f565b600435906001600160801b03821682036107b957565b604435906001600160801b03821682036107b957565b35906001600160801b03821682036107b957565b346107b95760203660031901126107b95761279861273f565b6127a06141fd565b60028054610100600160881b03191660089290921b610100600160881b0316919091179055005b346107b95760003660031901126107b9576004546040516001600160401b039091168152602090f35b346107b95760003660031901126107b957602a546040516001600160a01b039091168152602090f35b346107b95760003660031901126107b9576128326141fd565b61283a614261565b600160ff1960025416176002557f62e78cea01bee320cd4e420270b5ea74000d11b0c9f74754ebdbfc544b05a2586020604051338152a1005b346107b95760003660031901126107b9576000546040516001600160a01b039091168152602090f35b346107b95760003660031901126107b9576004546040805191901c6001600160401b03168152602090f35b346107b95760203660031901126107b957600435600052600860205261292460406000206128f481610673565b9060ff60018060a01b0360018301541691600360028201549101549060405195869560a0875260a087019061073c565b936020860152604085015260018060401b038116606085015260401c16151560808301520390f35b346107b95760403660031901126107b9576129656107ca565b6024356001600160401b0381116107b95760209161298a6129a7923690600401611443565b6001600160a01b03909116600090815283805260409020906114db565b54604051908152f35b346107b95760203660031901126107b9576001600160a01b036129d16107ca565b16600052601d602052602060018060801b0360406000205416604051908152f35b346107b9576020806003193601126107b95760043590612a1061427f565b602a549160ff8360a01c1615611966576040516323b872dd60e01b815290828280612a4084303360048501615bad565b03816000809860018060a01b03165af19081156108e757612a91928492612aff575b50612a7161172a602a546107be565b6040518080958194638fc7a25d60e01b8352600483019190602083019252565b03915afa9081156108e75783808080948194878392612ad2575b5050818115612ac9575b3390f1156108e757612ac660018055565b80f35b506108fc612ab5565b612af19250803d10612af8575b612ae98183610650565b810190615c54565b8680612aab565b503d612adf565b612b1590833d85116108e0576108d88183610650565b5038612a62565b546001600160801b031690565b96939460e0969299989561ffff94612b4e63ffffffff94610100808d528c019061073c565b6001600160a01b03909c1660208b01526001600160801b031660408a01526001600160401b031660608901521660808701521660a0850152151560c08401521515910152565b346107b95760203660031901126107b95760043560005260066020526040600020612bbe81610673565b6107b5600260018060a01b03600185015416930154926040519384938160f81c9260ff8360f01c169261ffff8160e01c169263ffffffff8260c01c169260018060401b038360801c169260018060801b03169189612b29565b346107b95760203660031901126107b957612c3061273f565b612c386141fd565b600380546001600160801b0319166001600160801b0392909216919091179055005b6040806003193601126107b957600435612c7261181a565b60008281526006602052838120600101549092906001600160a01b03163303612d8b578083526006602052838320600201546001600160401b039060801c811615612d7a57818452600660205284842060029081015490546001600160801b039491670de0b6b3a7640000620fffff9187169190910160141c60089290921c8616919091026301e133806001600160401b03841683020402043410612d695791612d47612d5792612d41610b0a95889985612ac69a5260136020528a20928354169060018060401b0391011690565b90614b5c565b6000526012602052604060002090565b913416612d648354610bb2565b614418565b855163cd1c886760e01b8152600490fd5b8451633b4835d960e21b8152600490fd5b835163abea322960e01b8152600490fd5b346107b95760203660031901126107b957612db56107ca565b612dbd6141fd565b6001600160a01b03168015611ac657602a80546001600160a81b0319168217600160a01b1790557f64395189a34ae5d780e1c8be6d937d798e5d7f5ade1c691495b59e9169e875d5600080a2005b346107b95760203660031901126107b9576004356000908152601c6020526040902060018101546001600160a01b0316330361236c57600501805460ff19169055005b346107b95760803660031901126107b957612e6761180a565b602435906001600160801b039081831683036107b957612e85612755565b9060643592831683036107b957612e9a6141fd565b600360ff821611611ac657612ee4612ebc92612edb61001996612ebc8561105a565b90919082549060031b9160018060801b03809116831b921b1916179055565b612ebc83611024565b61103f565b346107b95760203660031901126107b957600435600052601c60205260406000208054906107b560018060a01b0360018301541660028301549260038101549160ff6005612f3960048501610673565b930154169260405196879663ffffffff93848460601c16948460401c169360018060401b031692896123a7565b346107b95760203660031901126107b957612f7f6107ca565b612f876141fd565b6001600160a01b03818116600081815260276020526040812054909391929060ff16156108ec5783612fca83611a99612fc087966110b6565b805460ff19169055565b55612fd66029546107be565b1614613004575b7f4c910b69fe65a61f7531b9c5042b2329ca7179c77290aa7e2eb3afa3c8511fd38280a280f35b602980546001600160a01b0319169055612fdd565b346107b95760403660031901126107b9576107b560ff61208f61303a61080c565b600435600052601160205260406000206111b9565b346107b95760203660031901126107b95760043561306b6141fd565b61271081116130a5576020817fe4fa623f284b85c795e990f9cc4f6b5b0626280c3889f62851b8989a2609a47a92602b55604051908152a1005b60405163d027d9d760e01b8152600490fd5b6064359063ffffffff821682036107b957565b6044359063ffffffff821682036107b957565b346107b95760a03660031901126107b957602435600480356130fd611830565b916131066130b7565b6001600160401b03936084358581116107b95761312690369085016108fe565b909385600052600660205260409660018060a01b0360018960002001541633036132e75786600052600660205280600289600020015460801c16156132d85788156132ca574290841611156132bc5763ffffffff8416156132ae576107b5613262888a89897f2720c0fef09cdc0d35721c3e1f934c09118edc01c7e88326f58f496c43b89b458a8a61327c8b6131f46131d26131c3600554610ced565b6001016001600160401b031690565b600580546001600160401b0319166001600160401b0392909216919091179055565b6131ff600554610ced565b89516132178161130f6020820194428d339088615078565b519020998a96613225611392565b92898452613236336020860161447e565b8a8c850152613248866060860161448d565b6000608085015263ffffffff871660a085015236916113fd565b60c0820152600160e0820152613277866105b0565b6150d6565b86519586526001600160401b0316602086015263ffffffff1660408501523393606090a4519081529081906020820190565b8651633e8ff74760e21b8152fd5b865163b4fa3fb360e01b8152fd5b50865162bfc92160e01b8152fd5b508651633b4835d960e21b8152fd5b50865163abea322960e01b8152fd5b346107b9576000806003193601126124d457338152601d60205260408120546001600160801b03168015611ac65761332d3361111e565b80546001600160801b031916905581808080843382f1156108e7576040519081527f86a5cc8fe9af9ae68fb50f62885307a7755a30cbd290131644377f0bd94a718160203392a280f35b346107b95760203660031901126107b95760043560048110156107b95761109d60209161105a565b346107b95760803660031901126107b9576004356133bb61181a565b906133c46130ca565b6064356001600160401b0381116107b9576133e39036906004016108fe565b91836000526006602052604060002060018060a01b036001820154163314159081613441575b81613431575b50610b5c576107b594613421946155c4565b6040519081529081906020820190565b6002015460f81c1590503861340f565b9050600161346061085233611ef8896000526010602052604060002090565b61346981612026565b1090613409565b346107b95760403660031901126107b9576024356004356000526015602052604060002080548210156107b95760209161152e91610fcd565b801515036107b957565b35906106b1826134a9565b346107b95760603660031901126107b95760046001600160401b0381358181116107b9576134ef90369084016108fe565b916044359160243591613501846134a9565b33600052600a602052604094600286600020015460ff8160481c1615908115613733575b50613723578015613713578315159182613670575b6135bd9695949392916135dc6135f29261358e8b6135876135626131c36107b59f5460c01c90565b600480546001600160c01b031660c09290921b6001600160c01b031916919091179055565b5460c01c90565b89516135a78161130f6020820194428c8a339189614ef9565b519020998a966135b56113b2565b9436916113fd565b83526135cc336020850161447e565b868984015242166060830161448d565b85151560808201526135ed846105d0565b614f58565b613604826135ff33611152565b614b16565b613652575b5050613644575b5191829133817f4e611b5a9758c78c82d7492e2f9bb1969b31be7f6463f3ffb3834d20310d1d4d600080a382526020820190565b61364d82614ae0565b613610565b6135ff613669926000526015602052604060002090565b3883613609565b8061368d600361367f886105d0565b01546001600160401b031690565b161561370357336001600160a01b036136b860016136aa896105d0565b01546001600160a01b031690565b161415806136d6575b1561353a57865163061cbdd360e51b81528890fd5b5060026136f461085233611ef8896000526011602052604060002090565b6136fd81612026565b106136c1565b865163fc061e9f60e01b81528890fd5b855163b4fa3fb360e01b81528790fd5b8551630fb532db60e11b81528790fd5b905082429116111538613525565b346107b95760203660031901126107b9576001600160a01b036137626107ca565b16600052600f602052602060018060401b0360406000205416604051908152f35b346107b95760203660031901126107b9576004356000526012602052602060018060801b0360406000205416604051908152f35b346107b9576115196137c83661145e565b91906114b5565b6000915b600483106137e057505050565b81516001600160801b0316815260019290920191602091820191016137d3565b610100906138286106b1949695939661381e836101808101996137cf565b60808301906137cf565b01906137cf565b346107b95760003660031901126107b957604080519061384e82610630565b6080809236903781815161386181610630565b36903781815161387081610630565b3690378051806021926000915b600190600482850110156138b15785546001600160801b0381168252871c602082015294019360029290920191810161387d565b82856138bc81610630565b6107b56138c76158f6565b926138d0615947565b905193849384613800565b346107b95760403660031901126107b9576138f46107ca565b6024356138ff6141fd565b6001600160a01b03821660008181526027602052604090205490929060ff16156108ec578115611ab457817fceb40be0a58aa33916c199e469842b614ef313295573c15d82f85cc9d1a89d3292611a9e611aaf93611138565b346107b95760203660031901126107b9577f1d3a2e9f214b18b25530f3e0058585b6ec740535caa59cd1770ccbfd90c397ac6020600435613998816134a9565b6139a06141fd565b1515602a5460ff60a01b8260a01b169060ff60a01b191617602a55604051908152a1005b346107b95760203660031901126107b9576001600160a01b036139e56107ca565b16600052600d602052602060018060801b0360406000205416604051908152f35b346107b9576000806003193601126124d457613a206141fd565b8080808060018060a01b038154164790828215613a41575bf1156108e75780f35b506108fc613a38565b6020613a6e613a5836610bdf565b90613a6161427f565b613a69614261565b614b7b565b60018055604051908152f35b346107b95760403660031901126107b9576020613aa0613a9861080c565b600435615b19565b604051908152f35b346107b95760203660031901126107b95760043580600052600860205260409060018060401b0360038360002001541615613b29576000526015602052806000209060166020526107b5613b08613b02836000209461579e565b9361579e565b613b1b8351948486958652850190610c5d565b908382036020850152610c5d565b815163fc061e9f60e01b8152600490fd5b60203660031901126107b9576001600160401b036004358181116107b957366023820112156107b95780600401358281116107b9576024600591368282851b860101116107b95791613b8a61427f565b613b92614261565b613b9b83614eb3565b9336819003604219019160005b858110613bc8576107b587613bbc60018055565b6040519182918261126a565b8481831b84010135848112156107b95783019085820135918983116107b95760440182360381136107b957600192613bff91614b7b565b613c09828a614ee5565b5201613ba8565b346107b95760603660031901126107b9576001600160401b036004356024358281116107b957613c449036906004016108fe565b613c4f939193612755565b90600094848652600660205260409360018060a01b0360018689200154163303613de55785875260066020526002858820015460801c1615613dd457613c9485610590565b613c9d336110d0565b93613cae81612d64610a9d33611185565b94613cd7610acb6001613ccf6002870199613cc98b54610bb2565b906152c6565b930154610bb2565b6001600160801b0390911611613dc3577f7a22a9ee3d48ed0e5124a8483a35d03987ec822583eb91b03ffc68044832442e9593613da993613dbd9693613d73613d78948c613d2d613d273361116c565b8561519a565b558b613d42613d3b3361116c565b8787614248565b55613d6d613d61613d538954610bb2565b83036001600160801b031690565b610b0a610afa33611185565b866145e4565b615505565b613d9e613d98613d8e835461ffff9060e01c1690565b60010161ffff1690565b82614626565b5460e01c61ffff1690565b905161ffff90911681529081906020820190565b0390a280f35b8551634ba8b0a960e01b8152600490fd5b8351633b4835d960e21b8152600490fd5b845163abea322960e01b8152600490fd5b346107b95760203660031901126107b9576020613aa0600435615c63565b346107b95760203660031901126107b95760c06001600160a01b0380613e386107ca565b16600052600a60205260ff60406000209182541691600260018201549101549060405193845260018060801b038116602085015260801c604084015260018060401b0381166060840152818160401c16608084015260481c16151560a0820152f35b346107b95760403660031901126107b9576001600160401b036004358181116107b957613ecb9036906004016108fe565b91613ed461080c565b90613edd61427f565b613ee5614261565b613ef4610859610852846110b6565b6108ec5781613f4991613f0986860186614339565b97505050505050925050620fffff670de0b6b3a7640000936301e133808560018060801b03928360025460081c169516020493160160141c020204615b19565b6040516323b872dd60e01b8152936001600160a01b0390921692909160208580613f7886303360048501615bad565b03816000885af19182156108e7576107b595613f9993613fbf575b50614b7b565b604051918252913391600080516020615d1283398151915290602090a361342160018055565b613fd69060203d81116108e0576108d88183610650565b5038613f93565b346107b95760203660031901126107b957613ff66107ca565b613ffe6141fd565b6001600160a01b03908116801561403a57600080546001600160a01b0319811683178255909216600080516020615d728339815191528380a380f35b604051631e4fbdf760e01b815260006004820152602490fd5b346107b95761406136610bdf565b61406961427f565b614071614261565b602a549160ff8360a01c1615611966576140d661409083830183614339565b98505050505050915050670de0b6b3a764000091620fffff60018060801b036301e13380858260025460081c169460018060401b0316020493160160141c020204615c63565b91602060405180956323b872dd60e01b8252816000816140fb89303360048501615bad565b03926001600160a01b03165af19182156108e7576107b59461412193613fbf5750614b7b565b604051918252903390600080516020615d3283398151915290602090a261342160018055565b346107b95760203660031901126107b9576141606107ca565b6141686141fd565b6001600160a01b0316801515806141b7575b6108ec57602980546001600160a01b031916821790557f334a8f7281ef0ee35ea90f5cf0308e16a1cfd42188da6400fbe6673116e52add600080a2005b5080600052602760205260ff604060002054161561417a565b346107b95760003660031901126107b95760025460405160089190911c6001600160801b03168152602090f35b6000546001600160a01b0316330361421157565b60405163118cdaa760e01b8152336004820152602490fd5b80546001600160a01b0319166001600160a01b03909216919091179055565b6020919283604051948593843782019081520301902090565b60ff6002541661426d57565b60405163d93c066560e01b8152600490fd5b600260015414614290576002600155565b604051633ee5aeb560e01b8152600490fd5b6001600160401b03811161064b5760051b60200190565b9080601f830112156107b9578135906142d1826142a2565b926142df6040519485610650565b828452602092838086019160051b830101928084116107b957848301915b84831061430d5750505050505090565b82356001600160401b0381116107b957869161432e84848094890101611443565b8152019201916142fd565b9190610140838203126107b9576001600160401b039183358381116107b95782614364918601611443565b9360208101358481116107b9578361437d918301611443565b9360408201358181116107b95784614396918401611443565b936143a36060840161276b565b9360808401358381116107b957826143bc918601611443565b936143c960a082016134b3565b936143d660c083016134b3565b9360e08301359182116107b9576143ee9183016142b9565b916107726101206101008401359301611846565b634e487b7160e01b600052601160045260246000fd5b6001600160801b03918216908216019190821161443157565b614402565b60209061444e603c9694959382815194859201610719565b60609490941b6001600160601b0319169301928352601483015260c01b6001600160c01b03191660348201520190565b6001600160a01b039091169052565b6001600160401b039091169052565b916144b69183549060031b91821b91600019901b19161790565b9055565b8181106144c5575050565b600081556001016144ba565b9190601f81116144e057505050565b6106b1926000526020600020906020601f840160051c8301931061450c575b601f0160051c01906144ba565b90915081906144ff565b81519192916001600160401b03811161064b5761453d8161453784546105e0565b846144d1565b602080601f831160011461457957508192939460009261456e575b50508160011b916000199060031b1c1916179055565b015190503880614558565b90601f1983169561458f85600052602060002090565b926000905b8882106145cc575050836001959697106145b3575b505050811b019055565b015160001960f88460031b161c191690553880806145a9565b80600185968294968601518155019501930190614594565b80546001600160801b0319166001600160801b03909216919091179055565b805463ffffffff60c01b191660c09290921b63ffffffff60c01b16919091179055565b805461ffff60e01b191660e09290921b61ffff60e01b16919091179055565b8151805190939291906001600160401b03811161064b5761466a8161453784546105e0565b6020948590601f831160011461479b57926146bf6146b66106b197988560e09660029661477099600092614790575b50508160011b916000199060031b1c19161784555b8701516107be565b60018301614229565b01926146d76146d16040830151610bb2565b856145e4565b61470d6146e76060830151610ced565b8554600160801b600160c01b03191660809190911b600160801b600160c01b0316178555565b614727614721608083015163ffffffff1690565b85614603565b61473f61473960a083015161ffff1690565b85614626565b61476961474f60c0830151151590565b855460ff60f01b191690151560f01b60ff60f01b16178555565b0151151590565b81546001600160f81b031690151560f81b6001600160f81b031916179055565b015190503880614699565b90601f198316916147b185600052602060002090565b9260005b81811061480457506106b1979860018660029661477099966146bf9660e09a6146b697106147eb575b505050811b0184556146ae565b015160001960f88460031b161c191690553880806147de565b9293896001819287860151815501950193016147b5565b8181029291811591840414171561443157565b61483881546105e0565b9081614842575050565b81601f60009311600114614854575055565b908083918252614873601f60208420940160051c8401600185016144ba565b5555565b90600160401b811161064b5781549181815582821061489557505050565b600052602060002091820191015b8181106148ae575050565b806148ba60019261482e565b016148a3565b908051906148ce8284614877565b600092835260208084209091849083015b8486106148ee57505050505050565b805180516001600160401b03811161064b5785916149168261491088546105e0565b886144d1565b8290601f831160011461495e579180600195928695948892614953575b5050600019600383901b1c191690841b1786555b019301950194916148df565b015190503880614933565b90601f1983169161497488600052602060002090565b92875b8181106149b7575091600196939185889796941061499e575b505050831b83018655614947565b015160001960f88460031b161c19169055388080614990565b8284015185558a966001909501949384019301614977565b81518051909392906001600160401b03811161064b576149f9816149f385546105e0565b856144d1565b6020948590601f8311600114614a67576106b195968360609460039694614a4294600092614a5c575b50508160011b9160001990881b1c19161786555b82015160018601614516565b614a53604082015160028601614516565b015191016148c0565b015190503880614a22565b90601f19831691614a7d86600052602060002090565b9260005b818110614ac957508460039694614a42946106b19a9b9460609860019510614ab1575b505050811b018655614a36565b0151600019838a1b60f8161c19169055388080614aa4565b929389600181928786015181550195019301614a81565b601a54600160401b81101561064b576001810180601a55811015610fc857601a600052600080516020615d528339815191520155565b805490600160401b82101561064b5781614b389160016144b694018155610fcd565b819391549060031b91821b91600019901b19161790565b016001600160801b031690565b80546001600160401b0319166001600160401b03909216919091179055565b614b8791810190614339565b93918798979996939195995115611ac6576001600160801b038481169790949088158015614e9c575b614e8a57600480546001600160401b039889169a8982168c10614e7957614bd6336110d0565b600281015460ff8160481c1615908115614e6b575b50614e5a5789614c11610acb6001614c098a612d64610a9d33611185565b940154610bb2565b911611614e4957670de0b6b3a7640000908c620fffff6301e13380848d60025460081c16930204920160141c0202043410614e395760048054600160801b600160c01b0319166001608093841c8c16018b1690921b600160801b600160c01b03169190911790555460801c6001600160401b0316604051808d60208201934233614c9b9387614436565b03601f1981018252614cad9082610650565b5190209b8c95868d614cbe3361116c565b614cc7916114db565b55614cd0611392565b8d815290614ce1336020840161447e565b6001600160801b0385166040830152614cff428b166060840161448d565b60006080830152600160a0830152151560c082015285151560e0820152614d2587610590565b90614d2f91614645565b614d376113d1565b9182528a60208301526040820152826060820152614d54856105a0565b90614d5e916149cf565b83614d6833611104565b90614d7291614b16565b614d7b33611185565b908154614d8790610bb2565b90614d9191614b4f565b614d9a916145e4565b614de497614ddf96614db39481614e1b575b90506159a7565b341692614dd384614dce896000526012602052604060002090565b6145e4565b42011661269e866105c0565b615a7e565b817f7237b089d1a252ec5312d4f64b1378a99d12760dfcaa22429ba0bd7c31d3fc8860405180614e15339582610761565b0390a390565b6135ff614e32926000526016602052604060002090565b388b614dac565b5060405163cd1c886760e01b8152fd5b604051634ba8b0a960e01b81528390fd5b604051630fb532db60e11b81528490fd5b90508b429116111538614beb565b60405163b4fa3fb360e01b81528390fd5b604051637ff0f53960e01b8152600490fd5b50614eac610acb60035460801c90565b8911614bb0565b90614ebd826142a2565b614eca6040519182610650565b8281528092614edb601f19916142a2565b0190602036910137565b8051821015610fc85760209160051b010190565b82603c9694959392823760609490941b6001600160601b0319169301928352601483015260c01b6001600160c01b03191660348201520190565b60ff60401b191660409190911b60ff60401b161790565b906144b69015158254614f33565b8151805190939291906001600160401b03811161064b57614f7d8161453784546105e0565b6020948590601f8311600114614ffa5792614fc76146b66106b1979885608096600396614fe999600092614fef575b50508160011b9160001990881b1c19161784558701516107be565b604085015160028201550192614769614fe36060830151610ced565b85614b5c565b90614f4a565b015190503880614fac565b90601f1983169161501085600052602060002090565b9260005b81811061506157506106b19798600186600396614fe99996614fc79660809a6146b6971061504957505050811b0184556146ae565b0151600019838a1b60f8161c191690553880806147de565b929389600181928786015181550195019301615014565b90815260609190911b6001600160601b0319166020820152603481019190915260c09190911b6001600160c01b0319166054820152605c0190565b805463ffffffff60401b191660409290921b63ffffffff60401b16919091179055565b600561517b60e06106b194805185556150fe60018060a01b0360208301511660018701614229565b6040810151600286015561516a6003860161512561511f6060850151610ced565b82614b5c565b61513f615139608085015163ffffffff1690565b826150b3565b60a083015163ffffffff16815463ffffffff60601b191660609190911b63ffffffff60601b16179055565b61476960c082015160048701614516565b91019060ff801983541691151516179055565b6040513d6000823e3d90fd5b90604051809260009080546151ae816105e0565b9160019180831690811561521257506001146151d4575b50505060209281520301902090565b60009081526020808220969450915b8382106151fc57505050602093508201909238806151c5565b86548883015295860195879550908201906151e3565b60ff191686525050508015150282019050602038806151c5565b60001981146144315760010190565b60001981019190821161443157565b9061271091820391821161443157565b601954801561528657600019818101919081831015610fc8576000916019835260208320010155601955565b634e487b7160e01b600052603160045260246000fd5b805490811561528657600019918201916152b68383610fcd565b909182549160031b1b1916905555565b6001600160801b03918216908216039190821161443157565b9081546152eb816142a2565b926152f96040519485610650565b818452600090815260208082208186015b848410615318575050505050565b600183819261532685610673565b81520192019301929061530a565b60026000916153428161482e565b8260018201550155565b6153558161482e565b600360019161536583820161482e565b6153716002820161482e565b01805490600081558161538357505050565b6000526020600020908101905b81811061539c57505050565b806153a7849261482e565b01615390565b939291906153ba906114b5565b9260005b8454808210156154fa57866153d6610ecc8489610fcd565b146153ea57506153e59061522c565b6153be565b615407929394959161234c612345610ecc61233f6123529561523b565b6000925b8251841015615490576154276154218585614ee5565b5161148f565b9260005b8454808210156154825787615443610ecc8489610fcd565b1461545757506154529061522c565b61542b565b946123526154779261234c612345610ecc61233f61547c999c989b61523b565b61522c565b9261540b565b505092509261547c9061522c565b915092915061549c5750565b60005b601954808210156154f557826154b7610ecc84610fad565b146154cb57506154c69061522c565b61549f565b6154ed92506154e7610ecc6154e261234c9361523b565b610fad565b91610fad565b6106b161525a565b505050565b505090919250615407565b9092916001600160401b03811161064b576155248161453784546105e0565b6000601f821160011461555d57819293946000926155525750508160011b916000199060031b1c1916179055565b013590503880614558565b601f1982169461557284600052602060002090565b91805b8781106155ac57508360019596971061559257505050811b019055565b0135600019600384901b60f8161c191690553880806145a9565b90926020600181928686013581550194019101615575565b9291939083600052600660205260018060401b038060026040600020015460801c1615610c4b57429082161115611ac65761568d9061560a6131d26131c3600554610ced565b61566d615618600554610ced565b6040516156308161130f602082019442338d88615078565b5190209661565961563f6113de565b93888552615650336020870161447e565b6040850161448d565b6000606084015263ffffffff166080830152565b600160a0820152615688866000526009602052604060002090565b615700565b806156be575b5050817fe858c17ec4703e144d651708aca8173d9af23b71bb0e3515c585dfe932c2eff9600080a390565b6156d691613d7385600052601b602052604060002090565b3880615693565b80546001600160e01b031660e09290921b6001600160e01b031916919091179055565b815181556020820151600182019291600291615725906001600160a01b031685614229565b60408301518454600160a01b600160e01b03191660a09190911b600160a01b600160e01b0316178455606083015163ffffffff94615765918616906156dd565b019160808201511682549160a060ff60201b910151151560201b169164ffffffffff191617179055565b9060ff6144b691168254614f33565b9060405191828154918282526020928383019160005283600020936000905b8282106157d3575050506106b192500383610650565b8554845260019586019588955093810193909101906157bd565b6001600160401b039081169081146144315760010190565b6000818152600660209081526040808320600790925290912060028201546001830154919492936001600160401b03926001600160a01b031690839061584a906105c0565b54169561585681610673565b9661586c61586660018401610673565b97610673565b956001600160801b03851695608086901c169460f081901c60ff16949361589590600201610673565b929161ffff63ffffffff8360c01c169260e01c1690565b906158b6826142a2565b6158c36040519182610650565b82815280926158d4601f19916142a2565b019060005b8281106158e557505050565b8060606020809385010152016158d9565b6040805191826023926000915b600190600482850110156159385785546001600160801b038116825260801c6020820152940193600292909201918101615903565b5050505090506106b182610630565b604080516025546001600160801b038116825260801c602082015291602691600290848101615903565b62278d0061598262263b809261103f565b905460039190911b1c6001600160801b03166001600160401b03909316909101040290565b929190836135ff6159b7926114b5565b80519060005b828110615a04575050506159ce5750565b601954600160401b81101561064b576001810180601955811015610fc8576019600052600080516020615db28339815191520155565b80615a18866135ff61542160019587614ee5565b016159bd565b6001600160a01b03166000908152600f60205260409020546001600160401b0390811662278d00018116421015615a525750565b6106b190600e602052604060002060018060801b03198154169055600f60205242166040600020614b5c565b6001600160a01b03615a8f3361119f565b54169081615a9b575050565b61271060018060801b03809260018060401b0360045460401c16021604166000828152601f60205260408120828154019055808381848015615b0f575b83928392f1156108e75760207fa81d02e535011fd802e58bd5357645a72a434aa58d1d854c19616ea74ca58d4091604051908152a2565b6108fc9150615ad8565b6001600160a01b0390911660008181526027602052604081205490919060ff16156108ec5781526028602052604081205491670de0b6b3a7640000908181029181830414901517156144315782810180911161443157615b789061523b565b908215615b8457500490565b634e487b7160e01b81526012600452602490fd5b908160209103126107b95751610772816134a9565b6001600160a01b03918216815291166020820152604081019190915260600190565b91600360ff841611611ac657615be96112c8600454610ced565b6001600160401b039290838216908110611ac657600080516020615cf283398151915293615c4f93615c439261267e916001600160a01b0381168015159081612734575080612711576126f957506126616125b8336110d0565b6126c16122cb336110ea565b0390a2565b908160209103126107b9575190565b602a549060ff8260a01c161561196657615cba91615c99615c91602093615c8b602b5461524a565b9061481b565b612710900490565b90604051808095819463c2507ac160e01b8352600483019190602083019252565b03916001600160a01b03165afa9081156108e757600091615cd9575090565b610772915060203d8111612af857612ae9818361065056fe12f97e9c312855c3f48ec2b207c7ed3789fdf1e5250bceda743d6b99db15e549c7e4cc89b0a980a194012a15142f99855680e1a060fc1955ce40af0800a7b1e87e01bdfcb9e374847e0052332dc2e9561d204d892ab54122b8c8f79a3708aad4057c384a7d1c54f3a1b2e5e67b2617b8224fdfd1ea7234eea573a6ff665ff63e8be0079c531659141344cd1fd0a4f28419497f9722a3daafe3b4186f6b6457e0867558aef063b7f1f5ee4daa8d18b1811be91a77d9eb7890b94188892e11ff17944998273e477b495144fb8794c914197f3ccb46be2900f4698fd0ef743c9695a2646970667358221220edbb412016af39c1134e3854a4b9769ceac626e683a65408d0a04afd724e64b664736f6c63430008140033",
  "devdoc": {
    "author": "GDrive Team",
    "details": "A comprehensive, gas-efficient decentralized storage solution",
    "errors": {
      "EnforcedPause()": [
        {
          "details": "The operation failed because the contract is paused."
        }
      ],
      "ExpectedPause()": [
        {
          "details": "The operation failed because the contract is not paused."
        }
      ],
      "OwnableInvalidOwner(address)": [
        {
          "details": "The owner is not a valid owner account. (eg. `address(0)`)"
        }
      ],
      "OwnableUnauthorizedAccount(address)": [
        {
          "details": "The caller account is not authorized to perform an operation."
        }
      ],
      "ReentrancyGuardReentrantCall()": [
        {
          "details": "Unauthorized reentrant call."
        }
      ]
    },
    "events": {
      "Paused(address)": {
        "details": "Emitted when the pause is triggered by `account`."
      },
      "Unpaused(address)": {
        "details": "Emitted when the pause is lifted by `account`."
      }
    },
    "kind": "dev",
    "methods": {
      "accessFileViaLink(bytes32,string)": {
        "details": "Access file through share link"
      },
      "accessPaidShareLink(bytes32,string)": {
        "details": "Access a paid share link"
      },
      "addPaymentToken(address,uint256)": {
        "details": "Add a new supported payment token"
      },
      "batchUploadFiles(bytes[])": {
        "details": "Batch upload files"
      },
      "calculateGDVAmount(uint256)": {
        "details": "Calculate GDV amount needed for payment with discount"
      },
      "calculateTokenAmount(uint256,address)": {
        "details": "Calculate token amount needed for payment"
      },
      "convertGDVToEth(uint256)": {
        "details": "Convert GDV tokens to ETH"
      },
      "createFolder(string,bytes32,bool)": {
        "details": "Create a new folder"
      },
      "createPaidShareLink(bytes32,uint256,uint64,uint32,string)": {
        "details": "Create a paid share link"
      },
      "createShareLink(bytes32,uint64,uint32,string)": {
        "details": "Create a shareable link for a file"
      },
      "deactivatePaidShareLink(bytes32)": {
        "details": "Deactivate a paid share link"
      },
      "deleteFile(bytes32)": {
        "details": "Delete a file"
      },
      "getFileDetails(bytes32)": {
        "details": "Get file details with access control"
      },
      "getFileIdByCid(string)": {
        "details": "Get file ID by CID"
      },
      "getFolderContents(bytes32)": {
        "details": "Get folder contents"
      },
      "getPaidShareLink(bytes32)": {
        "details": "Get paid share link details"
      },
      "getPaidShareLinksForFile(bytes32)": {
        "details": "Get paid share links for a file"
      },
      "getSubscriptionTiers()": {
        "details": "Get subscription pricing"
      },
      "getUserFiles(address)": {
        "details": "Get user's files for dashboard display"
      },
      "getUserStats(address)": {
        "details": "Get user's storage statistics"
      },
      "owner()": {
        "details": "Returns the address of the current owner."
      },
      "paused()": {
        "details": "Returns true if the contract is paused, and false otherwise."
      },
      "purchaseSubscription(uint8,uint64,address)": {
        "details": "Purchase or upgrade subscription"
      },
      "purchaseSubscriptionWithGDV(uint8,uint64,address)": {
        "details": "Purchase subscription with GDV payment"
      },
      "purchaseSubscriptionWithToken(uint8,uint64,address,address)": {
        "details": "Purchase subscription with token payment"
      },
      "removePaymentToken(address)": {
        "details": "Remove a supported payment token"
      },
      "renewFile(bytes32,uint64)": {
        "details": "Renew file storage"
      },
      "renounceOwnership()": {
        "details": "Leaves the contract without owner. It will not be possible to call `onlyOwner` functions. Can only be called by the current owner. NOTE: Renouncing ownership will leave the contract without an owner, thereby disabling any functionality that is only available to the owner."
      },
      "setDefaultPaymentToken(address)": {
        "details": "Set default payment token"
      },
      "setGDVEnabled(bool)": {
        "details": "Enable/disable GDV payments"
      },
      "setGDVToken(address)": {
        "details": "Set GDV token address"
      },
      "transferOwnership(address)": {
        "details": "Transfers ownership of the contract to a new account (`newOwner`). Can only be called by the current owner."
      },
      "updateFileVersion(bytes32,string,uint128)": {
        "details": "Update file version"
      },
      "updateGDVDiscount(uint256)": {
        "details": "Update GDV discount percentage"
      },
      "updateTokenPrice(address,uint256)": {
        "details": "Update token price"
      },
      "uploadFile(bytes)": {
        "details": "Upload a single file"
      },
      "uploadFileWithGDV(bytes)": {
        "details": "Upload file with GDV payment"
      },
      "uploadFileWithToken(bytes,address)": {
        "details": "Upload file with token payment"
      },
      "withdrawEarnings()": {
        "details": "Withdraw earnings"
      },
      "withdrawTokens(address,uint256)": {
        "details": "Withdraw tokens from contract"
      }
    },
    "title": "GDrive 2.0 - Gas Optimized Decentralized Storage Contract",
    "version": 1
  },
  "userdoc": {
    "kind": "user",
    "methods": {},
    "version": 1
  },
  "storageLayout": {
    "storage": [
      {
        "astId": 8,
        "contract": "contracts/GDrive.sol:GDrive",
        "label": "_owner",
        "offset": 0,
        "slot": "0",
        "type": "t_address"
      },
      {
        "astId": 1061,
        "contract": "contracts/GDrive.sol:GDrive",
        "label": "_status",
        "offset": 0,
        "slot": "1",
        "type": "t_uint256"
      },
      {
        "astId": 942,
        "contract": "contracts/GDrive.sol:GDrive",
        "label": "_paused",
        "offset": 0,
        "slot": "2",
        "type": "t_bool"
      },
      {
        "astId": 1517,
        "contract": "contracts/GDrive.sol:GDrive",
        "label": "storageRatePerMBPerYear",
        "offset": 1,
        "slot": "2",
        "type": "t_uint128"
      },
      {
        "astId": 1520,
        "contract": "contracts/GDrive.sol:GDrive",
        "label": "bandwidthRatePerGB",
        "offset": 0,
        "slot": "3",
        "type": "t_uint128"
      },
      {
        "astId": 1529,
        "contract": "contracts/GDrive.sol:GDrive",
        "label": "maxFileSize",
        "offset": 16,
        "slot": "3",
        "type": "t_uint128"
      },
      {
        "astId": 1532,
        "contract": "contracts/GDrive.sol:GDrive",
        "label": "minimumStoragePeriod",
        "offset": 0,
        "slot": "4",
        "type": "t_uint64"
      },
      {
        "astId": 1535,
        "contract": "contracts/GDrive.sol:GDrive",
        "label": "referralRewardPercentage",
        "offset": 8,
        "slot": "4",
        "type": "t_uint64"
      },
      {
        "astId": 1537,
        "contract": "contracts/GDrive.sol:GDrive",
        "label": "_fileIdCounter",
        "offset": 16,
        "slot": "4",
        "type": "t_uint64"
      },
      {
        "astId": 1539,
        "contract": "contracts/GDrive.sol:GDrive",
        "label": "_folderIdCounter",
        "offset": 24,
        "slot": "4",
        "type": "t_uint64"
      },
      {
        "astId": 1541,
        "contract": "contracts/GDrive.sol:GDrive",
        "label": "_shareLinkIdCounter",
        "offset": 0,
        "slot": "5",
        "type": "t_uint64"
      },
      {
        "astId": 1543,
        "contract": "contracts/GDrive.sol:GDrive",
        "label": "_reserved",
        "offset": 8,
        "slot": "5",
        "type": "t_uint64"
      },
      {
        "astId": 1548,
        "contract": "contracts/GDrive.sol:GDrive",
        "label": "files",
        "offset": 0,
        "slot": "6",
        "type": "t_mapping(t_bytes32,t_struct(File)1427_storage)"
      },
      {
        "astId": 1553,
        "contract": "contracts/GDrive.sol:GDrive",
        "label": "fileMetadata",
        "offset": 0,
        "slot": "7",
        "type": "t_mapping(t_bytes32,t_struct(FileMetadata)1454_storage)"
      },
      {
        "astId": 1558,
        "contract": "contracts/GDrive.sol:GDrive",
        "label": "folders",
        "offset": 0,
        "slot": "8",
        "type": "t_mapping(t_bytes32,t_struct(Folder)1465_storage)"
      },
      {
        "astId": 1563,
        "contract": "contracts/GDrive.sol:GDrive",
        "label": "shareLinks",
        "offset": 0,
        "slot": "9",
        "type": "t_mapping(t_bytes32,t_struct(ShareLink)1478_storage)"
      },
      {
        "astId": 1568,
        "contract": "contracts/GDrive.sol:GDrive",
        "label": "subscriptions",
        "offset": 0,
        "slot": "10",
        "type": "t_mapping(t_address,t_struct(Subscription)1491_storage)"
      },
      {
        "astId": 1573,
        "contract": "contracts/GDrive.sol:GDrive",
        "label": "userFiles",
        "offset": 0,
        "slot": "11",
        "type": "t_mapping(t_address,t_array(t_bytes32)dyn_storage)"
      },
      {
        "astId": 1578,
        "contract": "contracts/GDrive.sol:GDrive",
        "label": "userFolders",
        "offset": 0,
        "slot": "12",
        "type": "t_mapping(t_address,t_array(t_bytes32)dyn_storage)"
      },
      {
        "astId": 1582,
        "contract": "contracts/GDrive.sol:GDrive",
        "label": "userStorageUsed",
        "offset": 0,
        "slot": "13",
        "type": "t_mapping(t_address,t_uint128)"
      },
      {
        "astId": 1586,
        "contract": "contracts/GDrive.sol:GDrive",
        "label": "userBandwidthUsed",
        "offset": 0,
        "slot": "14",
        "type": "t_mapping(t_address,t_uint128)"
      },
      {
        "astId": 1590,
        "contract": "contracts/GDrive.sol:GDrive",
        "label": "lastBandwidthReset",
        "offset": 0,
        "slot": "15",
        "type": "t_mapping(t_address,t_uint64)"
      },
      {
        "astId": 1597,
        "contract": "contracts/GDrive.sol:GDrive",
        "label": "filePermissions",
        "offset": 0,
        "slot": "16",
        "type": "t_mapping(t_bytes32,t_mapping(t_address,t_enum(Permission)1496))"
      },
      {
        "astId": 1604,
        "contract": "contracts/GDrive.sol:GDrive",
        "label": "folderPermissions",
        "offset": 0,
        "slot": "17",
        "type": "t_mapping(t_bytes32,t_mapping(t_address,t_enum(Permission)1496))"
      },
      {
        "astId": 1608,
        "contract": "contracts/GDrive.sol:GDrive",
        "label": "filePayments",
        "offset": 0,
        "slot": "18",
        "type": "t_mapping(t_bytes32,t_uint128)"
      },
      {
        "astId": 1612,
        "contract": "contracts/GDrive.sol:GDrive",
        "label": "fileExpiryDates",
        "offset": 0,
        "slot": "19",
        "type": "t_mapping(t_bytes32,t_uint64)"
      },
      {
        "astId": 1616,
        "contract": "contracts/GDrive.sol:GDrive",
        "label": "userBalances",
        "offset": 0,
        "slot": "20",
        "type": "t_mapping(t_address,t_uint128)"
      },
      {
        "astId": 1621,
        "contract": "contracts/GDrive.sol:GDrive",
        "label": "folderSubFolders",
        "offset": 0,
        "slot": "21",
        "type": "t_mapping(t_bytes32,t_array(t_bytes32)dyn_storage)"
      },
      {
        "astId": 1626,
        "contract": "contracts/GDrive.sol:GDrive",
        "label": "folderFiles",
        "offset": 0,
        "slot": "22",
        "type": "t_mapping(t_bytes32,t_array(t_bytes32)dyn_storage)"
      },
      {
        "astId": 1631,
        "contract": "contracts/GDrive.sol:GDrive",
        "label": "taggedFiles",
        "offset": 0,
        "slot": "23",
        "type": "t_mapping(t_string_memory_ptr,t_array(t_bytes32)dyn_storage)"
      },
      {
        "astId": 1636,
        "contract": "contracts/GDrive.sol:GDrive",
        "label": "fileTypeIndex",
        "offset": 0,
        "slot": "24",
        "type": "t_mapping(t_string_memory_ptr,t_array(t_bytes32)dyn_storage)"
      },
      {
        "astId": 1639,
        "contract": "contracts/GDrive.sol:GDrive",
        "label": "publicFiles",
        "offset": 0,
        "slot": "25",
        "type": "t_array(t_bytes32)dyn_storage"
      },
      {
        "astId": 1642,
        "contract": "contracts/GDrive.sol:GDrive",
        "label": "publicFolders",
        "offset": 0,
        "slot": "26",
        "type": "t_array(t_bytes32)dyn_storage"
      },
      {
        "astId": 1646,
        "contract": "contracts/GDrive.sol:GDrive",
        "label": "shareLinkPasswords",
        "offset": 0,
        "slot": "27",
        "type": "t_mapping(t_bytes32,t_string_storage)"
      },
      {
        "astId": 1651,
        "contract": "contracts/GDrive.sol:GDrive",
        "label": "paidShareLinks",
        "offset": 0,
        "slot": "28",
        "type": "t_mapping(t_bytes32,t_struct(PaidShareLink)1444_storage)"
      },
      {
        "astId": 1655,
        "contract": "contracts/GDrive.sol:GDrive",
        "label": "earnedRevenue",
        "offset": 0,
        "slot": "29",
        "type": "t_mapping(t_address,t_uint128)"
      },
      {
        "astId": 1659,
        "contract": "contracts/GDrive.sol:GDrive",
        "label": "referrers",
        "offset": 0,
        "slot": "30",
        "type": "t_mapping(t_address,t_address)"
      },
      {
        "astId": 1663,
        "contract": "contracts/GDrive.sol:GDrive",
        "label": "referralRewards",
        "offset": 0,
        "slot": "31",
        "type": "t_mapping(t_address,t_uint256)"
      },
      {
        "astId": 1669,
        "contract": "contracts/GDrive.sol:GDrive",
        "label": "userCidToFileId",
        "offset": 0,
        "slot": "32",
        "type": "t_mapping(t_address,t_mapping(t_string_memory_ptr,t_bytes32))"
      },
      {
        "astId": 1673,
        "contract": "contracts/GDrive.sol:GDrive",
        "label": "tierStorageLimits",
        "offset": 0,
        "slot": "33",
        "type": "t_array(t_uint128)4_storage"
      },
      {
        "astId": 1677,
        "contract": "contracts/GDrive.sol:GDrive",
        "label": "tierBandwidthLimits",
        "offset": 0,
        "slot": "35",
        "type": "t_array(t_uint128)4_storage"
      },
      {
        "astId": 1681,
        "contract": "contracts/GDrive.sol:GDrive",
        "label": "tierPrices",
        "offset": 0,
        "slot": "37",
        "type": "t_array(t_uint128)4_storage"
      },
      {
        "astId": 1685,
        "contract": "contracts/GDrive.sol:GDrive",
        "label": "supportedTokens",
        "offset": 0,
        "slot": "39",
        "type": "t_mapping(t_address,t_bool)"
      },
      {
        "astId": 1689,
        "contract": "contracts/GDrive.sol:GDrive",
        "label": "tokenPrices",
        "offset": 0,
        "slot": "40",
        "type": "t_mapping(t_address,t_uint256)"
      },
      {
        "astId": 1691,
        "contract": "contracts/GDrive.sol:GDrive",
        "label": "defaultPaymentToken",
        "offset": 0,
        "slot": "41",
        "type": "t_address"
      },
      {
        "astId": 1808,
        "contract": "contracts/GDrive.sol:GDrive",
        "label": "gdvToken",
        "offset": 0,
        "slot": "42",
        "type": "t_contract(IGDVToken)1403"
      },
      {
        "astId": 1810,
        "contract": "contracts/GDrive.sol:GDrive",
        "label": "gdvEnabled",
        "offset": 20,
        "slot": "42",
        "type": "t_bool"
      },
      {
        "astId": 1812,
        "contract": "contracts/GDrive.sol:GDrive",
        "label": "gdvDiscount",
        "offset": 0,
        "slot": "43",
        "type": "t_uint256"
      }
    ],
    "types": {
      "t_address": {
        "encoding": "inplace",
        "label": "address",
        "numberOfBytes": "20"
      },
      "t_array(t_bytes32)dyn_storage": {
        "base": "t_bytes32",
        "encoding": "dynamic_array",
        "label": "bytes32[]",
        "numberOfBytes": "32"
      },
      "t_array(t_string_storage)dyn_storage": {
        "base": "t_string_storage",
        "encoding": "dynamic_array",
        "label": "string[]",
        "numberOfBytes": "32"
      },
      "t_array(t_uint128)4_storage": {
        "base": "t_uint128",
        "encoding": "inplace",
        "label": "uint128[4]",
        "numberOfBytes": "64"
      },
      "t_bool": {
        "encoding": "inplace",
        "label": "bool",
        "numberOfBytes": "1"
      },
      "t_bytes32": {
        "encoding": "inplace",
        "label": "bytes32",
        "numberOfBytes": "32"
      },
      "t_contract(IGDVToken)1403": {
        "encoding": "inplace",
        "label": "contract IGDVToken",
        "numberOfBytes": "20"
      },
      "t_enum(Permission)1496": {
        "encoding": "inplace",
        "label": "enum GDrive.Permission",
        "numberOfBytes": "1"
      },
      "t_mapping(t_address,t_address)": {
        "encoding": "mapping",
        "key": "t_address",
        "label": "mapping(address => address)",
        "numberOfBytes": "32",
        "value": "t_address"
      },
      "t_mapping(t_address,t_array(t_bytes32)dyn_storage)": {
        "encoding": "mapping",
        "key": "t_address",
        "label": "mapping(address => bytes32[])",
        "numberOfBytes": "32",
        "value": "t_array(t_bytes32)dyn_storage"
      },
      "t_mapping(t_address,t_bool)": {
        "encoding": "mapping",
        "key": "t_address",
        "label": "mapping(address => bool)",
        "numberOfBytes": "32",
        "value": "t_bool"
      },
      "t_mapping(t_address,t_enum(Permission)1496)": {
        "encoding": "mapping",
        "key": "t_address",
        "label": "mapping(address => enum GDrive.Permission)",
        "numberOfBytes": "32",
        "value": "t_enum(Permission)1496"
      },
      "t_mapping(t_address,t_mapping(t_string_memory_ptr,t_bytes32))": {
        "encoding": "mapping",
        "key": "t_address",
        "label": "mapping(address => mapping(string => bytes32))",
        "numberOfBytes": "32",
        "value": "t_mapping(t_string_memory_ptr,t_bytes32)"
      },
      "t_mapping(t_address,t_struct(Subscription)1491_storage)": {
        "encoding": "mapping",
        "key": "t_address",
        "label": "mapping(address => struct GDrive.Subscription)",
        "numberOfBytes": "32",
        "value": "t_struct(Subscription)1491_storage"
      },
      "t_mapping(t_address,t_uint128)": {
        "encoding": "mapping",
        "key": "t_address",
        "label": "mapping(address => uint128)",
        "numberOfBytes": "32",
        "value": "t_uint128"
      },
      "t_mapping(t_address,t_uint256)": {
        "encoding": "mapping",
        "key": "t_address",
        "label": "mapping(address => uint256)",
        "numberOfBytes": "32",
        "value": "t_uint256"
      },
      "t_mapping(t_address,t_uint64)": {
        "encoding": "mapping",
        "key": "t_address",
        "label": "mapping(address => uint64)",
        "numberOfBytes": "32",
        "value": "t_uint64"
      },
      "t_mapping(t_bytes32,t_array(t_bytes32)dyn_storage)": {
        "encoding": "mapping",
        "key": "t_bytes32",
        "label": "mapping(bytes32 => bytes32[])",
        "numberOfBytes": "32",
        "value": "t_array(t_bytes32)dyn_storage"
      },
      "t_mapping(t_bytes32,t_mapping(t_address,t_enum(Permission)1496))": {
        "encoding": "mapping",
        "key": "t_bytes32",
        "label": "mapping(bytes32 => mapping(address => enum GDrive.Permission))",
        "numberOfBytes": "32",
        "value": "t_mapping(t_address,t_enum(Permission)1496)"
      },
      "t_mapping(t_bytes32,t_string_storage)": {
        "encoding": "mapping",
        "key": "t_bytes32",
        "label": "mapping(bytes32 => string)",
        "numberOfBytes": "32",
        "value": "t_string_storage"
      },
      "t_mapping(t_bytes32,t_struct(File)1427_storage)": {
        "encoding": "mapping",
        "key": "t_bytes32",
        "label": "mapping(bytes32 => struct GDrive.File)",
        "numberOfBytes": "32",
        "value": "t_struct(File)1427_storage"
      },
      "t_mapping(t_bytes32,t_struct(FileMetadata)1454_storage)": {
        "encoding": "mapping",
        "key": "t_bytes32",
        "label": "mapping(bytes32 => struct GDrive.FileMetadata)",
        "numberOfBytes": "32",
        "value": "t_struct(FileMetadata)1454_storage"
      },
      "t_mapping(t_bytes32,t_struct(Folder)1465_storage)": {
        "encoding": "mapping",
        "key": "t_bytes32",
        "label": "mapping(bytes32 => struct GDrive.Folder)",
        "numberOfBytes": "32",
        "value": "t_struct(Folder)1465_storage"
      },
      "t_mapping(t_bytes32,t_struct(PaidShareLink)1444_storage)": {
        "encoding": "mapping",
        "key": "t_bytes32",
        "label": "mapping(bytes32 => struct GDrive.PaidShareLink)",
        "numberOfBytes": "32",
        "value": "t_struct(PaidShareLink)1444_storage"
      },
      "t_mapping(t_bytes32,t_struct(ShareLink)1478_storage)": {
        "encoding": "mapping",
        "key": "t_bytes32",
        "label": "mapping(bytes32 => struct GDrive.ShareLink)",
        "numberOfBytes": "32",
        "value": "t_struct(ShareLink)1478_storage"
      },
      "t_mapping(t_bytes32,t_uint128)": {
        "encoding": "mapping",
        "key": "t_bytes32",
        "label": "mapping(bytes32 => uint128)",
        "numberOfBytes": "32",
        "value": "t_uint128"
      },
      "t_mapping(t_bytes32,t_uint64)": {
        "encoding": "mapping",
        "key": "t_bytes32",
        "label": "mapping(bytes32 => uint64)",
        "numberOfBytes": "32",
        "value": "t_uint64"
      },
      "t_mapping(t_string_memory_ptr,t_array(t_bytes32)dyn_storage)": {
        "encoding": "mapping",
        "key": "t_string_memory_ptr",
        "label": "mapping(string => bytes32[])",
        "numberOfBytes": "32",
        "value": "t_array(t_bytes32)dyn_storage"
      },
      "t_mapping(t_string_memory_ptr,t_bytes32)": {
        "encoding": "mapping",
        "key": "t_string_memory_ptr",
        "label": "mapping(string => bytes32)",
        "numberOfBytes": "32",
        "value": "t_bytes32"
      },
      "t_string_memory_ptr": {
        "encoding": "bytes",
        "label": "string",
        "numberOfBytes": "32"
      },
      "t_string_storage": {
        "encoding": "bytes",
        "label": "string",
        "numberOfBytes": "32"
      },
      "t_struct(File)1427_storage": {
        "encoding": "inplace",
        "label": "struct GDrive.File",
        "members": [
          {
            "astId": 1412,
            "contract": "contracts/GDrive.sol:GDrive",
            "label": "cid",
            "offset": 0,
            "slot": "0",
            "type": "t_string_storage"
          },
          {
            "astId": 1414,
            "contract": "contracts/GDrive.sol:GDrive",
            "label": "owner",
            "offset": 0,
            "slot": "1",
            "type": "t_address"
          },
          {
            "astId": 1416,
            "contract": "contracts/GDrive.sol:GDrive",
            "label": "size",
            "offset": 0,
            "slot": "2",
            "type": "t_uint128"
          },
          {
            "astId": 1418,
            "contract": "contracts/GDrive.sol:GDrive",
            "label": "uploadDate",
            "offset": 16,
            "slot": "2",
            "type": "t_uint64"
          },
          {
            "astId": 1420,
            "contract": "contracts/GDrive.sol:GDrive",
            "label": "downloadCount",
            "offset": 24,
            "slot": "2",
            "type": "t_uint32"
          },
          {
            "astId": 1422,
            "contract": "contracts/GDrive.sol:GDrive",
            "label": "version",
            "offset": 28,
            "slot": "2",
            "type": "t_uint16"
          },
          {
            "astId": 1424,
            "contract": "contracts/GDrive.sol:GDrive",
            "label": "isEncrypted",
            "offset": 30,
            "slot": "2",
            "type": "t_bool"
          },
          {
            "astId": 1426,
            "contract": "contracts/GDrive.sol:GDrive",
            "label": "isPublic",
            "offset": 31,
            "slot": "2",
            "type": "t_bool"
          }
        ],
        "numberOfBytes": "96"
      },
      "t_struct(FileMetadata)1454_storage": {
        "encoding": "inplace",
        "label": "struct GDrive.FileMetadata",
        "members": [
          {
            "astId": 1446,
            "contract": "contracts/GDrive.sol:GDrive",
            "label": "name",
            "offset": 0,
            "slot": "0",
            "type": "t_string_storage"
          },
          {
            "astId": 1448,
            "contract": "contracts/GDrive.sol:GDrive",
            "label": "fileType",
            "offset": 0,
            "slot": "1",
            "type": "t_string_storage"
          },
          {
            "astId": 1450,
            "contract": "contracts/GDrive.sol:GDrive",
            "label": "description",
            "offset": 0,
            "slot": "2",
            "type": "t_string_storage"
          },
          {
            "astId": 1453,
            "contract": "contracts/GDrive.sol:GDrive",
            "label": "tags",
            "offset": 0,
            "slot": "3",
            "type": "t_array(t_string_storage)dyn_storage"
          }
        ],
        "numberOfBytes": "128"
      },
      "t_struct(Folder)1465_storage": {
        "encoding": "inplace",
        "label": "struct GDrive.Folder",
        "members": [
          {
            "astId": 1456,
            "contract": "contracts/GDrive.sol:GDrive",
            "label": "name",
            "offset": 0,
            "slot": "0",
            "type": "t_string_storage"
          },
          {
            "astId": 1458,
            "contract": "contracts/GDrive.sol:GDrive",
            "label": "owner",
            "offset": 0,
            "slot": "1",
            "type": "t_address"
          },
          {
            "astId": 1460,
            "contract": "contracts/GDrive.sol:GDrive",
            "label": "parentFolderId",
            "offset": 0,
            "slot": "2",
            "type": "t_bytes32"
          },
          {
            "astId": 1462,
            "contract": "contracts/GDrive.sol:GDrive",
            "label": "createdDate",
            "offset": 0,
            "slot": "3",
            "type": "t_uint64"
          },
          {
            "astId": 1464,
            "contract": "contracts/GDrive.sol:GDrive",
            "label": "isPublic",
            "offset": 8,
            "slot": "3",
            "type": "t_bool"
          }
        ],
        "numberOfBytes": "128"
      },
      "t_struct(PaidShareLink)1444_storage": {
        "encoding": "inplace",
        "label": "struct GDrive.PaidShareLink",
        "members": [
          {
            "astId": 1429,
            "contract": "contracts/GDrive.sol:GDrive",
            "label": "fileId",
            "offset": 0,
            "slot": "0",
            "type": "t_bytes32"
          },
          {
            "astId": 1431,
            "contract": "contracts/GDrive.sol:GDrive",
            "label": "creator",
            "offset": 0,
            "slot": "1",
            "type": "t_address"
          },
          {
            "astId": 1433,
            "contract": "contracts/GDrive.sol:GDrive",
            "label": "pricePerAccess",
            "offset": 0,
            "slot": "2",
            "type": "t_uint256"
          },
          {
            "astId": 1435,
            "contract": "contracts/GDrive.sol:GDrive",
            "label": "expiryDate",
            "offset": 0,
            "slot": "3",
            "type": "t_uint64"
          },
          {
            "astId": 1437,
            "contract": "contracts/GDrive.sol:GDrive",
            "label": "accessCount",
            "offset": 8,
            "slot": "3",
            "type": "t_uint32"
          },
          {
            "astId": 1439,
            "contract": "contracts/GDrive.sol:GDrive",
            "label": "maxAccess",
            "offset": 12,
            "slot": "3",
            "type": "t_uint32"
          },
          {
            "astId": 1441,
            "contract": "contracts/GDrive.sol:GDrive",
            "label": "password",
            "offset": 0,
            "slot": "4",
            "type": "t_string_storage"
          },
          {
            "astId": 1443,
            "contract": "contracts/GDrive.sol:GDrive",
            "label": "isActive",
            "offset": 0,
            "slot": "5",
            "type": "t_bool"
          }
        ],
        "numberOfBytes": "192"
      },
      "t_struct(ShareLink)1478_storage": {
        "encoding": "inplace",
        "label": "struct GDrive.ShareLink",
        "members": [
          {
            "astId": 1467,
            "contract": "contracts/GDrive.sol:GDrive",
            "label": "fileId",
            "offset": 0,
            "slot": "0",
            "type": "t_bytes32"
          },
          {
            "astId": 1469,
            "contract": "contracts/GDrive.sol:GDrive",
            "label": "creator",
            "offset": 0,
            "slot": "1",
            "type": "t_address"
          },
          {
            "astId": 1471,
            "contract": "contracts/GDrive.sol:GDrive",
            "label": "expiryDate",
            "offset": 20,
            "slot": "1",
            "type": "t_uint64"
          },
          {
            "astId": 1473,
            "contract": "contracts/GDrive.sol:GDrive",
            "label": "accessCount",
            "offset": 28,
            "slot": "1",
            "type": "t_uint32"
          },
          {
            "astId": 1475,
            "contract": "contracts/GDrive.sol:GDrive",
            "label": "maxAccess",
            "offset": 0,
            "slot": "2",
            "type": "t_uint32"
          },
          {
            "astId": 1477,
            "contract": "contracts/GDrive.sol:GDrive",
            "label": "isActive",
            "offset": 4,
            "slot": "2",
            "type": "t_bool"
          }
        ],
        "numberOfBytes": "96"
      },
      "t_struct(Subscription)1491_storage": {
        "encoding": "inplace",
        "label": "struct GDrive.Subscription",
        "members": [
          {
            "astId": 1480,
            "contract": "contracts/GDrive.sol:GDrive",
            "label": "user",
            "offset": 0,
            "slot": "0",
            "type": "t_address"
          },
          {
            "astId": 1482,
            "contract": "contracts/GDrive.sol:GDrive",
            "label": "storageLimit",
            "offset": 0,
            "slot": "1",
            "type": "t_uint128"
          },
          {
            "astId": 1484,
            "contract": "contracts/GDrive.sol:GDrive",
            "label": "bandwidthLimit",
            "offset": 16,
            "slot": "1",
            "type": "t_uint128"
          },
          {
            "astId": 1486,
            "contract": "contracts/GDrive.sol:GDrive",
            "label": "expiryDate",
            "offset": 0,
            "slot": "2",
            "type": "t_uint64"
          },
          {
            "astId": 1488,
            "contract": "contracts/GDrive.sol:GDrive",
            "label": "tier",
            "offset": 8,
            "slot": "2",
            "type": "t_uint8"
          },
          {
            "astId": 1490,
            "contract": "contracts/GDrive.sol:GDrive",
            "label": "isActive",
            "offset": 9,
            "slot": "2",
            "type": "t_bool"
          }
        ],
        "numberOfBytes": "96"
      },
      "t_uint128": {
        "encoding": "inplace",
        "label": "uint128",
        "numberOfBytes": "16"
      },
      "t_uint16": {
        "encoding": "inplace",
        "label": "uint16",
        "numberOfBytes": "2"
      },
      "t_uint256": {
        "encoding": "inplace",
        "label": "uint256",
        "numberOfBytes": "32"
      },
      "t_uint32": {
        "encoding": "inplace",
        "label": "uint32",
        "numberOfBytes": "4"
      },
      "t_uint64": {
        "encoding": "inplace",
        "label": "uint64",
        "numberOfBytes": "8"
      },
      "t_uint8": {
        "encoding": "inplace",
        "label": "uint8",
        "numberOfBytes": "1"
      }
    }
  }
}