{
  "address": "0x35d16FeA385eeB9a70D8eb68E7Ee7E0E8ae92015",
  "abi": [
    {
      "inputs": [
        {
          "internalType": "address",
          "name": "initialOwner",
          "type": "address"
        }
      ],
      "stateMutability": "nonpayable",
      "type": "constructor"
    },
    {
      "inputs": [],
      "name": "BandwidthLimitExceeded",
      "type": "error"
    },
    {
      "inputs": [],
      "name": "EnforcedPause",
      "type": "error"
    },
    {
      "inputs": [],
      "name": "ExpectedPause",
      "type": "error"
    },
    {
      "inputs": [],
      "name": "FileNotFound",
      "type": "error"
    },
    {
      "inputs": [],
      "name": "FileSizeTooLarge",
      "type": "error"
    },
    {
      "inputs": [],
      "name": "FolderNotFound",
      "type": "error"
    },
    {
      "inputs": [],
      "name": "GDVNotEnabled",
      "type": "error"
    },
    {
      "inputs": [],
      "name": "InsufficientPayment",
      "type": "error"
    },
    {
      "inputs": [],
      "name": "InsufficientPermissions",
      "type": "error"
    },
    {
      "inputs": [],
      "name": "InsufficientTokenAllowance",
      "type": "error"
    },
    {
      "inputs": [],
      "name": "InvalidGDVDiscount",
      "type": "error"
    },
    {
      "inputs": [],
      "name": "InvalidInput",
      "type": "error"
    },
    {
      "inputs": [],
      "name": "InvalidSubscription",
      "type": "error"
    },
    {
      "inputs": [],
      "name": "InvalidTokenPrice",
      "type": "error"
    },
    {
      "inputs": [],
      "name": "LinkExpired",
      "type": "error"
    },
    {
      "inputs": [],
      "name": "LinkNotActive",
      "type": "error"
    },
    {
      "inputs": [],
      "name": "NotFileOwner",
      "type": "error"
    },
    {
      "inputs": [],
      "name": "NotFolderOwner",
      "type": "error"
    },
    {
      "inputs": [
        {
          "internalType": "address",
          "name": "owner",
          "type": "address"
        }
      ],
      "name": "OwnableInvalidOwner",
      "type": "error"
    },
    {
      "inputs": [
        {
          "internalType": "address",
          "name": "account",
          "type": "address"
        }
      ],
      "name": "OwnableUnauthorizedAccount",
      "type": "error"
    },
    {
      "inputs": [],
      "name": "ReentrancyGuardReentrantCall",
      "type": "error"
    },
    {
      "inputs": [],
      "name": "StorageLimitExceeded",
      "type": "error"
    },
    {
      "inputs": [],
      "name": "TokenNotSupported",
      "type": "error"
    },
    {
      "inputs": [],
      "name": "TokenTransferFailed",
      "type": "error"
    },
    {
      "anonymous": false,
      "inputs": [
        {
          "indexed": true,
          "internalType": "address",
          "name": "newDefaultToken",
          "type": "address"
        }
      ],
      "name": "DefaultTokenChanged",
      "type": "event"
    },
    {
      "anonymous": false,
      "inputs": [
        {
          "indexed": true,
          "internalType": "bytes32",
          "name": "fileId",
          "type": "bytes32"
        },
        {
          "indexed": true,
          "internalType": "address",
          "name": "accessor",
          "type": "address"
        }
      ],
      "name": "FileAccessed",
      "type": "event"
    },
    {
      "anonymous": false,
      "inputs": [
        {
          "indexed": true,
          "internalType": "bytes32",
          "name": "fileId",
          "type": "bytes32"
        }
      ],
      "name": "FileDeleted",
      "type": "event"
    },
    {
      "anonymous": false,
      "inputs": [
        {
          "indexed": true,
          "internalType": "bytes32",
          "name": "fileId",
          "type": "bytes32"
        },
        {
          "indexed": false,
          "internalType": "uint16",
          "name": "version",
          "type": "uint16"
        }
      ],
      "name": "FileUpdated",
      "type": "event"
    },
    {
      "anonymous": false,
      "inputs": [
        {
          "indexed": true,
          "internalType": "bytes32",
          "name": "fileId",
          "type": "bytes32"
        },
        {
          "indexed": true,
          "internalType": "address",
          "name": "owner",
          "type": "address"
        },
        {
          "indexed": false,
          "internalType": "string",
          "name": "cid",
          "type": "string"
        }
      ],
      "name": "FileUploaded",
      "type": "event"
    },
    {
      "anonymous": false,
      "inputs": [
        {
          "indexed": true,
          "internalType": "bytes32",
          "name": "folderId",
          "type": "bytes32"
        },
        {
          "indexed": true,
          "internalType": "address",
          "name": "owner",
          "type": "address"
        }
      ],
      "name": "FolderCreated",
      "type": "event"
    },
    {
      "anonymous": false,
      "inputs": [
        {
          "indexed": false,
          "internalType": "uint256",
          "name": "newDiscount",
          "type": "uint256"
        }
      ],
      "name": "GDVDiscountUpdated",
      "type": "event"
    },
    {
      "anonymous": false,
      "inputs": [
        {
          "indexed": false,
          "internalType": "bool",
          "name": "enabled",
          "type": "bool"
        }
      ],
      "name": "GDVEnabled",
      "type": "event"
    },
    {
      "anonymous": false,
      "inputs": [
        {
          "indexed": true,
          "internalType": "address",
          "name": "from",
          "type": "address"
        },
        {
          "indexed": false,
          "internalType": "uint256",
          "name": "amount",
          "type": "uint256"
        }
      ],
      "name": "GDVPaymentReceived",
      "type": "event"
    },
    {
      "anonymous": false,
      "inputs": [
        {
          "indexed": true,
          "internalType": "address",
          "name": "token",
          "type": "address"
        }
      ],
      "name": "GDVTokenSet",
      "type": "event"
    },
    {
      "anonymous": false,
      "inputs": [
        {
          "indexed": true,
          "internalType": "address",
          "name": "previousOwner",
          "type": "address"
        },
        {
          "indexed": true,
          "internalType": "address",
          "name": "newOwner",
          "type": "address"
        }
      ],
      "name": "OwnershipTransferred",
      "type": "event"
    },
    {
      "anonymous": false,
      "inputs": [
        {
          "indexed": true,
          "internalType": "bytes32",
          "name": "linkId",
          "type": "bytes32"
        },
        {
          "indexed": false,
          "internalType": "address",
          "name": "accessor",
          "type": "address"
        },
        {
          "indexed": false,
          "internalType": "uint128",
          "name": "amount",
          "type": "uint128"
        }
      ],
      "name": "PaidAccessCompleted",
      "type": "event"
    },
    {
      "anonymous": false,
      "inputs": [
        {
          "indexed": true,
          "internalType": "bytes32",
          "name": "linkId",
          "type": "bytes32"
        },
        {
          "indexed": true,
          "internalType": "bytes32",
          "name": "fileId",
          "type": "bytes32"
        },
        {
          "indexed": false,
          "internalType": "uint128",
          "name": "price",
          "type": "uint128"
        }
      ],
      "name": "PaidShareLinkCreated",
      "type": "event"
    },
    {
      "anonymous": false,
      "inputs": [
        {
          "indexed": false,
          "internalType": "address",
          "name": "account",
          "type": "address"
        }
      ],
      "name": "Paused",
      "type": "event"
    },
    {
      "anonymous": false,
      "inputs": [
        {
          "indexed": true,
          "internalType": "address",
          "name": "referrer",
          "type": "address"
        },
        {
          "indexed": false,
          "internalType": "uint128",
          "name": "amount",
          "type": "uint128"
        }
      ],
      "name": "ReferralRewardPaid",
      "type": "event"
    },
    {
      "anonymous": false,
      "inputs": [
        {
          "indexed": true,
          "internalType": "address",
          "name": "user",
          "type": "address"
        },
        {
          "indexed": false,
          "internalType": "uint128",
          "name": "amount",
          "type": "uint128"
        }
      ],
      "name": "RevenueWithdrawn",
      "type": "event"
    },
    {
      "anonymous": false,
      "inputs": [
        {
          "indexed": true,
          "internalType": "bytes32",
          "name": "linkId",
          "type": "bytes32"
        },
        {
          "indexed": true,
          "internalType": "bytes32",
          "name": "fileId",
          "type": "bytes32"
        }
      ],
      "name": "ShareLinkCreated",
      "type": "event"
    },
    {
      "anonymous": false,
      "inputs": [
        {
          "indexed": true,
          "internalType": "address",
          "name": "user",
          "type": "address"
        },
        {
          "indexed": false,
          "internalType": "uint8",
          "name": "tier",
          "type": "uint8"
        },
        {
          "indexed": false,
          "internalType": "uint64",
          "name": "duration",
          "type": "uint64"
        }
      ],
      "name": "SubscriptionPurchased",
      "type": "event"
    },
    {
      "anonymous": false,
      "inputs": [
        {
          "indexed": true,
          "internalType": "address",
          "name": "token",
          "type": "address"
        },
        {
          "indexed": false,
          "internalType": "uint256",
          "name": "price",
          "type": "uint256"
        }
      ],
      "name": "TokenAdded",
      "type": "event"
    },
    {
      "anonymous": false,
      "inputs": [
        {
          "indexed": true,
          "internalType": "address",
          "name": "token",
          "type": "address"
        },
        {
          "indexed": true,
          "internalType": "address",
          "name": "from",
          "type": "address"
        },
        {
          "indexed": false,
          "internalType": "uint256",
          "name": "amount",
          "type": "uint256"
        }
      ],
      "name": "TokenPaymentReceived",
      "type": "event"
    },
    {
      "anonymous": false,
      "inputs": [
        {
          "indexed": true,
          "internalType": "address",
          "name": "token",
          "type": "address"
        },
        {
          "indexed": false,
          "internalType": "uint256",
          "name": "newPrice",
          "type": "uint256"
        }
      ],
      "name": "TokenPriceUpdated",
      "type": "event"
    },
    {
      "anonymous": false,
      "inputs": [
        {
          "indexed": true,
          "internalType": "address",
          "name": "token",
          "type": "address"
        }
      ],
      "name": "TokenRemoved",
      "type": "event"
    },
    {
      "anonymous": false,
      "inputs": [
        {
          "indexed": false,
          "internalType": "address",
          "name": "account",
          "type": "address"
        }
      ],
      "name": "Unpaused",
      "type": "event"
    },
    {
      "inputs": [
        {
          "internalType": "bytes32",
          "name": "",
          "type": "bytes32"
        }
      ],
      "name": "PaidShareLinks",
      "outputs": [
        {
          "internalType": "bytes32",
          "name": "fileId",
          "type": "bytes32"
        },
        {
          "internalType": "address",
          "name": "creator",
          "type": "address"
        },
        {
          "internalType": "uint128",
          "name": "pricePerAccess",
          "type": "uint128"
        },
        {
          "internalType": "uint64",
          "name": "expiryDate",
          "type": "uint64"
        },
        {
          "internalType": "uint32",
          "name": "accessCount",
          "type": "uint32"
        },
        {
          "internalType": "uint32",
          "name": "maxAccess",
          "type": "uint32"
        },
        {
          "internalType": "string",
          "name": "password",
          "type": "string"
        },
        {
          "internalType": "bool",
          "name": "isActive",
          "type": "bool"
        }
      ],
      "stateMutability": "view",
      "type": "function"
    },
    {
      "inputs": [
        {
          "internalType": "bytes32",
          "name": "linkId",
          "type": "bytes32"
        },
        {
          "internalType": "string",
          "name": "password",
          "type": "string"
        }
      ],
      "name": "accessFileViaLink",
      "outputs": [
        {
          "internalType": "string",
          "name": "cid",
          "type": "string"
        }
      ],
      "stateMutability": "nonpayable",
      "type": "function"
    },
    {
      "inputs": [
        {
          "internalType": "bytes32",
          "name": "linkId",
          "type": "bytes32"
        },
        {
          "internalType": "string",
          "name": "password",
          "type": "string"
        }
      ],
      "name": "accessPaidShareLink",
      "outputs": [
        {
          "internalType": "string",
          "name": "cid",
          "type": "string"
        }
      ],
      "stateMutability": "payable",
      "type": "function"
    },
    {
      "inputs": [
        {
          "internalType": "address",
          "name": "token",
          "type": "address"
        },
        {
          "internalType": "uint256",
          "name": "price",
          "type": "uint256"
        }
      ],
      "name": "addPaymentToken",
      "outputs": [],
      "stateMutability": "nonpayable",
      "type": "function"
    },
    {
      "inputs": [],
      "name": "bandwidthRatePerGB",
      "outputs": [
        {
          "internalType": "uint128",
          "name": "",
          "type": "uint128"
        }
      ],
      "stateMutability": "view",
      "type": "function"
    },
    {
      "inputs": [
        {
          "internalType": "bytes[]",
          "name": "paramsArray",
          "type": "bytes[]"
        }
      ],
      "name": "batchUploadFiles",
      "outputs": [
        {
          "internalType": "bytes32[]",
          "name": "fileIds",
          "type": "bytes32[]"
        }
      ],
      "stateMutability": "payable",
      "type": "function"
    },
    {
      "inputs": [
        {
          "internalType": "uint256",
          "name": "ethAmount",
          "type": "uint256"
        }
      ],
      "name": "calculateGDVAmount",
      "outputs": [
        {
          "internalType": "uint256",
          "name": "gdvAmount",
          "type": "uint256"
        }
      ],
      "stateMutability": "view",
      "type": "function"
    },
    {
      "inputs": [
        {
          "internalType": "uint256",
          "name": "ethAmount",
          "type": "uint256"
        },
        {
          "internalType": "address",
          "name": "token",
          "type": "address"
        }
      ],
      "name": "calculateTokenAmount",
      "outputs": [
        {
          "internalType": "uint256",
          "name": "tokenAmount",
          "type": "uint256"
        }
      ],
      "stateMutability": "view",
      "type": "function"
    },
    {
      "inputs": [
        {
          "internalType": "uint256",
          "name": "gdvAmount",
          "type": "uint256"
        }
      ],
      "name": "convertGDVToEth",
      "outputs": [],
      "stateMutability": "nonpayable",
      "type": "function"
    },
    {
      "inputs": [
        {
          "internalType": "string",
          "name": "name",
          "type": "string"
        },
        {
          "internalType": "bytes32",
          "name": "parentFolderId",
          "type": "bytes32"
        },
        {
          "internalType": "bool",
          "name": "isPublic",
          "type": "bool"
        }
      ],
      "name": "createFolder",
      "outputs": [
        {
          "internalType": "bytes32",
          "name": "folderId",
          "type": "bytes32"
        }
      ],
      "stateMutability": "nonpayable",
      "type": "function"
    },
    {
      "inputs": [
        {
          "internalType": "bytes32",
          "name": "fileId",
          "type": "bytes32"
        },
        {
          "internalType": "uint128",
          "name": "pricePerAccess",
          "type": "uint128"
        },
        {
          "internalType": "uint64",
          "name": "expiryDate",
          "type": "uint64"
        },
        {
          "internalType": "uint32",
          "name": "maxAccess",
          "type": "uint32"
        },
        {
          "internalType": "string",
          "name": "password",
          "type": "string"
        }
      ],
      "name": "createPaidShareLink",
      "outputs": [
        {
          "internalType": "bytes32",
          "name": "linkId",
          "type": "bytes32"
        }
      ],
      "stateMutability": "nonpayable",
      "type": "function"
    },
    {
      "inputs": [
        {
          "internalType": "bytes32",
          "name": "fileId",
          "type": "bytes32"
        },
        {
          "internalType": "uint64",
          "name": "expiryDate",
          "type": "uint64"
        },
        {
          "internalType": "uint32",
          "name": "maxAccess",
          "type": "uint32"
        },
        {
          "internalType": "string",
          "name": "password",
          "type": "string"
        }
      ],
      "name": "createShareLink",
      "outputs": [
        {
          "internalType": "bytes32",
          "name": "linkId",
          "type": "bytes32"
        }
      ],
      "stateMutability": "nonpayable",
      "type": "function"
    },
    {
      "inputs": [
        {
          "internalType": "bytes32",
          "name": "linkId",
          "type": "bytes32"
        }
      ],
      "name": "deactivatePaidShareLink",
      "outputs": [],
      "stateMutability": "nonpayable",
      "type": "function"
    },
    {
      "inputs": [],
      "name": "defaultPaymentToken",
      "outputs": [
        {
          "internalType": "address",
          "name": "",
          "type": "address"
        }
      ],
      "stateMutability": "view",
      "type": "function"
    },
    {
      "inputs": [
        {
          "internalType": "bytes32",
          "name": "fileId",
          "type": "bytes32"
        }
      ],
      "name": "deleteFile",
      "outputs": [],
      "stateMutability": "nonpayable",
      "type": "function"
    },
    {
      "inputs": [
        {
          "internalType": "address",
          "name": "",
          "type": "address"
        }
      ],
      "name": "earnedRevenue",
      "outputs": [
        {
          "internalType": "uint128",
          "name": "",
          "type": "uint128"
        }
      ],
      "stateMutability": "view",
      "type": "function"
    },
    {
      "inputs": [],
      "name": "emergencyWithdraw",
      "outputs": [],
      "stateMutability": "nonpayable",
      "type": "function"
    },
    {
      "inputs": [
        {
          "internalType": "bytes32",
          "name": "",
          "type": "bytes32"
        }
      ],
      "name": "fileExpiryDates",
      "outputs": [
        {
          "internalType": "uint64",
          "name": "",
          "type": "uint64"
        }
      ],
      "stateMutability": "view",
      "type": "function"
    },
    {
      "inputs": [
        {
          "internalType": "bytes32",
          "name": "",
          "type": "bytes32"
        }
      ],
      "name": "fileMetadata",
      "outputs": [
        {
          "internalType": "string",
          "name": "name",
          "type": "string"
        },
        {
          "internalType": "string",
          "name": "fileType",
          "type": "string"
        },
        {
          "internalType": "string",
          "name": "description",
          "type": "string"
        }
      ],
      "stateMutability": "view",
      "type": "function"
    },
    {
      "inputs": [
        {
          "internalType": "bytes32",
          "name": "",
          "type": "bytes32"
        }
      ],
      "name": "filePayments",
      "outputs": [
        {
          "internalType": "uint128",
          "name": "",
          "type": "uint128"
        }
      ],
      "stateMutability": "view",
      "type": "function"
    },
    {
      "inputs": [
        {
          "internalType": "bytes32",
          "name": "",
          "type": "bytes32"
        },
        {
          "internalType": "address",
          "name": "",
          "type": "address"
        }
      ],
      "name": "filePermissions",
      "outputs": [
        {
          "internalType": "enum GDrive.Permission",
          "name": "",
          "type": "uint8"
        }
      ],
      "stateMutability": "view",
      "type": "function"
    },
    {
      "inputs": [
        {
          "internalType": "string",
          "name": "",
          "type": "string"
        },
        {
          "internalType": "uint256",
          "name": "",
          "type": "uint256"
        }
      ],
      "name": "fileTypeIndex",
      "outputs": [
        {
          "internalType": "bytes32",
          "name": "",
          "type": "bytes32"
        }
      ],
      "stateMutability": "view",
      "type": "function"
    },
    {
      "inputs": [
        {
          "internalType": "bytes32",
          "name": "",
          "type": "bytes32"
        }
      ],
      "name": "files",
      "outputs": [
        {
          "internalType": "string",
          "name": "cid",
          "type": "string"
        },
        {
          "internalType": "address",
          "name": "owner",
          "type": "address"
        },
        {
          "internalType": "uint128",
          "name": "size",
          "type": "uint128"
        },
        {
          "internalType": "uint64",
          "name": "uploadDate",
          "type": "uint64"
        },
        {
          "internalType": "uint32",
          "name": "downloadCount",
          "type": "uint32"
        },
        {
          "internalType": "uint16",
          "name": "version",
          "type": "uint16"
        },
        {
          "internalType": "bool",
          "name": "isEncrypted",
          "type": "bool"
        },
        {
          "internalType": "bool",
          "name": "isPublic",
          "type": "bool"
        }
      ],
      "stateMutability": "view",
      "type": "function"
    },
    {
      "inputs": [
        {
          "internalType": "bytes32",
          "name": "",
          "type": "bytes32"
        },
        {
          "internalType": "uint256",
          "name": "",
          "type": "uint256"
        }
      ],
      "name": "folderFiles",
      "outputs": [
        {
          "internalType": "bytes32",
          "name": "",
          "type": "bytes32"
        }
      ],
      "stateMutability": "view",
      "type": "function"
    },
    {
      "inputs": [
        {
          "internalType": "bytes32",
          "name": "",
          "type": "bytes32"
        },
        {
          "internalType": "address",
          "name": "",
          "type": "address"
        }
      ],
      "name": "folderPermissions",
      "outputs": [
        {
          "internalType": "enum GDrive.Permission",
          "name": "",
          "type": "uint8"
        }
      ],
      "stateMutability": "view",
      "type": "function"
    },
    {
      "inputs": [
        {
          "internalType": "bytes32",
          "name": "",
          "type": "bytes32"
        },
        {
          "internalType": "uint256",
          "name": "",
          "type": "uint256"
        }
      ],
      "name": "folderSubFolders",
      "outputs": [
        {
          "internalType": "bytes32",
          "name": "",
          "type": "bytes32"
        }
      ],
      "stateMutability": "view",
      "type": "function"
    },
    {
      "inputs": [
        {
          "internalType": "bytes32",
          "name": "",
          "type": "bytes32"
        }
      ],
      "name": "folders",
      "outputs": [
        {
          "internalType": "string",
          "name": "name",
          "type": "string"
        },
        {
          "internalType": "address",
          "name": "owner",
          "type": "address"
        },
        {
          "internalType": "bytes32",
          "name": "parentFolderId",
          "type": "bytes32"
        },
        {
          "internalType": "uint64",
          "name": "createdDate",
          "type": "uint64"
        },
        {
          "internalType": "bool",
          "name": "isPublic",
          "type": "bool"
        }
      ],
      "stateMutability": "view",
      "type": "function"
    },
    {
      "inputs": [],
      "name": "gdvDiscount",
      "outputs": [
        {
          "internalType": "uint256",
          "name": "",
          "type": "uint256"
        }
      ],
      "stateMutability": "view",
      "type": "function"
    },
    {
      "inputs": [],
      "name": "gdvEnabled",
      "outputs": [
        {
          "internalType": "bool",
          "name": "",
          "type": "bool"
        }
      ],
      "stateMutability": "view",
      "type": "function"
    },
    {
      "inputs": [],
      "name": "gdvToken",
      "outputs": [
        {
          "internalType": "contract IGDVToken",
          "name": "",
          "type": "address"
        }
      ],
      "stateMutability": "view",
      "type": "function"
    },
    {
      "inputs": [
        {
          "internalType": "bytes32",
          "name": "fileId",
          "type": "bytes32"
        }
      ],
      "name": "getFileDetails",
      "outputs": [
        {
          "internalType": "string",
          "name": "name",
          "type": "string"
        },
        {
          "internalType": "string",
          "name": "fileType",
          "type": "string"
        },
        {
          "internalType": "string",
          "name": "cid",
          "type": "string"
        },
        {
          "internalType": "uint128",
          "name": "size",
          "type": "uint128"
        },
        {
          "internalType": "uint64",
          "name": "uploadDate",
          "type": "uint64"
        },
        {
          "internalType": "bool",
          "name": "isEncrypted",
          "type": "bool"
        },
        {
          "internalType": "address",
          "name": "owner",
          "type": "address"
        },
        {
          "internalType": "string",
          "name": "description",
          "type": "string"
        },
        {
          "internalType": "uint64",
          "name": "expiryDate",
          "type": "uint64"
        },
        {
          "internalType": "uint32",
          "name": "downloadCount",
          "type": "uint32"
        },
        {
          "internalType": "uint16",
          "name": "version",
          "type": "uint16"
        }
      ],
      "stateMutability": "view",
      "type": "function"
    },
    {
      "inputs": [
        {
          "internalType": "bytes32",
          "name": "linkId",
          "type": "bytes32"
        }
      ],
      "name": "getPaidShareLink",
      "outputs": [
        {
          "internalType": "bytes32",
          "name": "fileId",
          "type": "bytes32"
        },
        {
          "internalType": "address",
          "name": "creator",
          "type": "address"
        },
        {
          "internalType": "uint128",
          "name": "pricePerAccess",
          "type": "uint128"
        },
        {
          "internalType": "uint64",
          "name": "expiryDate",
          "type": "uint64"
        },
        {
          "internalType": "uint32",
          "name": "accessCount",
          "type": "uint32"
        },
        {
          "internalType": "uint32",
          "name": "maxAccess",
          "type": "uint32"
        },
        {
          "internalType": "string",
          "name": "password",
          "type": "string"
        },
        {
          "internalType": "bool",
          "name": "isActive",
          "type": "bool"
        }
      ],
      "stateMutability": "view",
      "type": "function"
    },
    {
      "inputs": [],
      "name": "getSubscriptionTiers",
      "outputs": [
        {
          "internalType": "uint128[4]",
          "name": "storageLimits",
          "type": "uint128[4]"
        },
        {
          "internalType": "uint128[4]",
          "name": "bandwidthLimits",
          "type": "uint128[4]"
        },
        {
          "internalType": "uint128[4]",
          "name": "prices",
          "type": "uint128[4]"
        }
      ],
      "stateMutability": "view",
      "type": "function"
    },
    {
      "inputs": [
        {
          "internalType": "address",
          "name": "user",
          "type": "address"
        }
      ],
      "name": "getUserFiles",
      "outputs": [
        {
          "internalType": "bytes32[]",
          "name": "fileIds",
          "type": "bytes32[]"
        },
        {
          "internalType": "string[]",
          "name": "names",
          "type": "string[]"
        },
        {
          "internalType": "string[]",
          "name": "cids",
          "type": "string[]"
        },
        {
          "internalType": "uint128[]",
          "name": "sizes",
          "type": "uint128[]"
        },
        {
          "internalType": "uint64[]",
          "name": "uploadDates",
          "type": "uint64[]"
        },
        {
          "internalType": "bool[]",
          "name": "isPublics",
          "type": "bool[]"
        },
        {
          "internalType": "string[]",
          "name": "fileTypes",
          "type": "string[]"
        }
      ],
      "stateMutability": "view",
      "type": "function"
    },
    {
      "inputs": [
        {
          "internalType": "address",
          "name": "user",
          "type": "address"
        }
      ],
      "name": "getUserStats",
      "outputs": [
        {
          "internalType": "uint128",
          "name": "storageUsed",
          "type": "uint128"
        },
        {
          "internalType": "uint128",
          "name": "storageLimit",
          "type": "uint128"
        },
        {
          "internalType": "uint128",
          "name": "bandwidthUsed",
          "type": "uint128"
        },
        {
          "internalType": "uint128",
          "name": "bandwidthLimit",
          "type": "uint128"
        },
        {
          "internalType": "uint256",
          "name": "fileCount",
          "type": "uint256"
        },
        {
          "internalType": "uint256",
          "name": "folderCount",
          "type": "uint256"
        },
        {
          "internalType": "uint8",
          "name": "tier",
          "type": "uint8"
        },
        {
          "internalType": "uint64",
          "name": "expiryDate",
          "type": "uint64"
        }
      ],
      "stateMutability": "view",
      "type": "function"
    },
    {
      "inputs": [
        {
          "internalType": "address",
          "name": "",
          "type": "address"
        }
      ],
      "name": "lastBandwidthReset",
      "outputs": [
        {
          "internalType": "uint64",
          "name": "",
          "type": "uint64"
        }
      ],
      "stateMutability": "view",
      "type": "function"
    },
    {
      "inputs": [],
      "name": "maxFileSize",
      "outputs": [
        {
          "internalType": "uint128",
          "name": "",
          "type": "uint128"
        }
      ],
      "stateMutability": "view",
      "type": "function"
    },
    {
      "inputs": [],
      "name": "minimumStoragePeriod",
      "outputs": [
        {
          "internalType": "uint64",
          "name": "",
          "type": "uint64"
        }
      ],
      "stateMutability": "view",
      "type": "function"
    },
    {
      "inputs": [],
      "name": "owner",
      "outputs": [
        {
          "internalType": "address",
          "name": "",
          "type": "address"
        }
      ],
      "stateMutability": "view",
      "type": "function"
    },
    {
      "inputs": [],
      "name": "pause",
      "outputs": [],
      "stateMutability": "nonpayable",
      "type": "function"
    },
    {
      "inputs": [],
      "name": "paused",
      "outputs": [
        {
          "internalType": "bool",
          "name": "",
          "type": "bool"
        }
      ],
      "stateMutability": "view",
      "type": "function"
    },
    {
      "inputs": [
        {
          "internalType": "uint256",
          "name": "",
          "type": "uint256"
        }
      ],
      "name": "publicFiles",
      "outputs": [
        {
          "internalType": "bytes32",
          "name": "",
          "type": "bytes32"
        }
      ],
      "stateMutability": "view",
      "type": "function"
    },
    {
      "inputs": [
        {
          "internalType": "uint256",
          "name": "",
          "type": "uint256"
        }
      ],
      "name": "publicFolders",
      "outputs": [
        {
          "internalType": "bytes32",
          "name": "",
          "type": "bytes32"
        }
      ],
      "stateMutability": "view",
      "type": "function"
    },
    {
      "inputs": [
        {
          "internalType": "uint8",
          "name": "tier",
          "type": "uint8"
        },
        {
          "internalType": "uint64",
          "name": "duration",
          "type": "uint64"
        },
        {
          "internalType": "address",
          "name": "referrer",
          "type": "address"
        }
      ],
      "name": "purchaseSubscription",
      "outputs": [],
      "stateMutability": "payable",
      "type": "function"
    },
    {
      "inputs": [
        {
          "internalType": "uint8",
          "name": "tier",
          "type": "uint8"
        },
        {
          "internalType": "uint64",
          "name": "duration",
          "type": "uint64"
        },
        {
          "internalType": "address",
          "name": "referrer",
          "type": "address"
        }
      ],
      "name": "purchaseSubscriptionWithGDV",
      "outputs": [],
      "stateMutability": "nonpayable",
      "type": "function"
    },
    {
      "inputs": [
        {
          "internalType": "uint8",
          "name": "tier",
          "type": "uint8"
        },
        {
          "internalType": "uint64",
          "name": "duration",
          "type": "uint64"
        },
        {
          "internalType": "address",
          "name": "referrer",
          "type": "address"
        },
        {
          "internalType": "address",
          "name": "token",
          "type": "address"
        }
      ],
      "name": "purchaseSubscriptionWithToken",
      "outputs": [],
      "stateMutability": "nonpayable",
      "type": "function"
    },
    {
      "inputs": [],
      "name": "referralRewardPercentage",
      "outputs": [
        {
          "internalType": "uint64",
          "name": "",
          "type": "uint64"
        }
      ],
      "stateMutability": "view",
      "type": "function"
    },
    {
      "inputs": [
        {
          "internalType": "address",
          "name": "",
          "type": "address"
        }
      ],
      "name": "referralRewards",
      "outputs": [
        {
          "internalType": "uint256",
          "name": "",
          "type": "uint256"
        }
      ],
      "stateMutability": "view",
      "type": "function"
    },
    {
      "inputs": [
        {
          "internalType": "address",
          "name": "",
          "type": "address"
        }
      ],
      "name": "referrers",
      "outputs": [
        {
          "internalType": "address",
          "name": "",
          "type": "address"
        }
      ],
      "stateMutability": "view",
      "type": "function"
    },
    {
      "inputs": [
        {
          "internalType": "address",
          "name": "token",
          "type": "address"
        }
      ],
      "name": "removePaymentToken",
      "outputs": [],
      "stateMutability": "nonpayable",
      "type": "function"
    },
    {
      "inputs": [
        {
          "internalType": "bytes32",
          "name": "fileId",
          "type": "bytes32"
        },
        {
          "internalType": "uint64",
          "name": "additionalPeriod",
          "type": "uint64"
        }
      ],
      "name": "renewFile",
      "outputs": [],
      "stateMutability": "payable",
      "type": "function"
    },
    {
      "inputs": [],
      "name": "renounceOwnership",
      "outputs": [],
      "stateMutability": "nonpayable",
      "type": "function"
    },
    {
      "inputs": [
        {
          "internalType": "uint128",
          "name": "_rate",
          "type": "uint128"
        }
      ],
      "name": "setBandwidthRate",
      "outputs": [],
      "stateMutability": "nonpayable",
      "type": "function"
    },
    {
      "inputs": [
        {
          "internalType": "address",
          "name": "token",
          "type": "address"
        }
      ],
      "name": "setDefaultPaymentToken",
      "outputs": [],
      "stateMutability": "nonpayable",
      "type": "function"
    },
    {
      "inputs": [
        {
          "internalType": "bool",
          "name": "enabled",
          "type": "bool"
        }
      ],
      "name": "setGDVEnabled",
      "outputs": [],
      "stateMutability": "nonpayable",
      "type": "function"
    },
    {
      "inputs": [
        {
          "internalType": "address",
          "name": "token",
          "type": "address"
        }
      ],
      "name": "setGDVToken",
      "outputs": [],
      "stateMutability": "nonpayable",
      "type": "function"
    },
    {
      "inputs": [
        {
          "internalType": "uint128",
          "name": "_rate",
          "type": "uint128"
        }
      ],
      "name": "setStorageRate",
      "outputs": [],
      "stateMutability": "nonpayable",
      "type": "function"
    },
    {
      "inputs": [
        {
          "internalType": "bytes32",
          "name": "",
          "type": "bytes32"
        }
      ],
      "name": "shareLinkPasswords",
      "outputs": [
        {
          "internalType": "string",
          "name": "",
          "type": "string"
        }
      ],
      "stateMutability": "view",
      "type": "function"
    },
    {
      "inputs": [
        {
          "internalType": "bytes32",
          "name": "",
          "type": "bytes32"
        }
      ],
      "name": "shareLinks",
      "outputs": [
        {
          "internalType": "bytes32",
          "name": "fileId",
          "type": "bytes32"
        },
        {
          "internalType": "address",
          "name": "creator",
          "type": "address"
        },
        {
          "internalType": "uint64",
          "name": "expiryDate",
          "type": "uint64"
        },
        {
          "internalType": "uint32",
          "name": "accessCount",
          "type": "uint32"
        },
        {
          "internalType": "uint32",
          "name": "maxAccess",
          "type": "uint32"
        },
        {
          "internalType": "bool",
          "name": "isActive",
          "type": "bool"
        }
      ],
      "stateMutability": "view",
      "type": "function"
    },
    {
      "inputs": [],
      "name": "storageRatePerMBPerYear",
      "outputs": [
        {
          "internalType": "uint128",
          "name": "",
          "type": "uint128"
        }
      ],
      "stateMutability": "view",
      "type": "function"
    },
    {
      "inputs": [
        {
          "internalType": "address",
          "name": "",
          "type": "address"
        }
      ],
      "name": "subscriptions",
      "outputs": [
        {
          "internalType": "address",
          "name": "user",
          "type": "address"
        },
        {
          "internalType": "uint128",
          "name": "storageLimit",
          "type": "uint128"
        },
        {
          "internalType": "uint128",
          "name": "bandwidthLimit",
          "type": "uint128"
        },
        {
          "internalType": "uint64",
          "name": "expiryDate",
          "type": "uint64"
        },
        {
          "internalType": "uint8",
          "name": "tier",
          "type": "uint8"
        },
        {
          "internalType": "bool",
          "name": "isActive",
          "type": "bool"
        }
      ],
      "stateMutability": "view",
      "type": "function"
    },
    {
      "inputs": [
        {
          "internalType": "address",
          "name": "",
          "type": "address"
        }
      ],
      "name": "supportedTokens",
      "outputs": [
        {
          "internalType": "bool",
          "name": "",
          "type": "bool"
        }
      ],
      "stateMutability": "view",
      "type": "function"
    },
    {
      "inputs": [
        {
          "internalType": "string",
          "name": "",
          "type": "string"
        },
        {
          "internalType": "uint256",
          "name": "",
          "type": "uint256"
        }
      ],
      "name": "taggedFiles",
      "outputs": [
        {
          "internalType": "bytes32",
          "name": "",
          "type": "bytes32"
        }
      ],
      "stateMutability": "view",
      "type": "function"
    },
    {
      "inputs": [
        {
          "internalType": "uint256",
          "name": "",
          "type": "uint256"
        }
      ],
      "name": "tierBandwidthLimits",
      "outputs": [
        {
          "internalType": "uint128",
          "name": "",
          "type": "uint128"
        }
      ],
      "stateMutability": "view",
      "type": "function"
    },
    {
      "inputs": [
        {
          "internalType": "uint256",
          "name": "",
          "type": "uint256"
        }
      ],
      "name": "tierPrices",
      "outputs": [
        {
          "internalType": "uint128",
          "name": "",
          "type": "uint128"
        }
      ],
      "stateMutability": "view",
      "type": "function"
    },
    {
      "inputs": [
        {
          "internalType": "uint256",
          "name": "",
          "type": "uint256"
        }
      ],
      "name": "tierStorageLimits",
      "outputs": [
        {
          "internalType": "uint128",
          "name": "",
          "type": "uint128"
        }
      ],
      "stateMutability": "view",
      "type": "function"
    },
    {
      "inputs": [
        {
          "internalType": "address",
          "name": "",
          "type": "address"
        }
      ],
      "name": "tokenPrices",
      "outputs": [
        {
          "internalType": "uint256",
          "name": "",
          "type": "uint256"
        }
      ],
      "stateMutability": "view",
      "type": "function"
    },
    {
      "inputs": [
        {
          "internalType": "address",
          "name": "newOwner",
          "type": "address"
        }
      ],
      "name": "transferOwnership",
      "outputs": [],
      "stateMutability": "nonpayable",
      "type": "function"
    },
    {
      "inputs": [],
      "name": "unpause",
      "outputs": [],
      "stateMutability": "nonpayable",
      "type": "function"
    },
    {
      "inputs": [
        {
          "internalType": "bytes32",
          "name": "fileId",
          "type": "bytes32"
        },
        {
          "internalType": "string",
          "name": "newCID",
          "type": "string"
        },
        {
          "internalType": "uint128",
          "name": "newSize",
          "type": "uint128"
        }
      ],
      "name": "updateFileVersion",
      "outputs": [],
      "stateMutability": "nonpayable",
      "type": "function"
    },
    {
      "inputs": [
        {
          "internalType": "uint256",
          "name": "discount",
          "type": "uint256"
        }
      ],
      "name": "updateGDVDiscount",
      "outputs": [],
      "stateMutability": "nonpayable",
      "type": "function"
    },
    {
      "inputs": [
        {
          "internalType": "uint8",
          "name": "tier",
          "type": "uint8"
        },
        {
          "internalType": "uint128",
          "name": "storageLimit",
          "type": "uint128"
        },
        {
          "internalType": "uint128",
          "name": "bandwidthLimit",
          "type": "uint128"
        },
        {
          "internalType": "uint128",
          "name": "price",
          "type": "uint128"
        }
      ],
      "name": "updateTierConfig",
      "outputs": [],
      "stateMutability": "nonpayable",
      "type": "function"
    },
    {
      "inputs": [
        {
          "internalType": "address",
          "name": "token",
          "type": "address"
        },
        {
          "internalType": "uint256",
          "name": "newPrice",
          "type": "uint256"
        }
      ],
      "name": "updateTokenPrice",
      "outputs": [],
      "stateMutability": "nonpayable",
      "type": "function"
    },
    {
      "inputs": [
        {
          "internalType": "bytes",
          "name": "params",
          "type": "bytes"
        }
      ],
      "name": "uploadFile",
      "outputs": [
        {
          "internalType": "bytes32",
          "name": "fileId",
          "type": "bytes32"
        }
      ],
      "stateMutability": "payable",
      "type": "function"
    },
    {
      "inputs": [
        {
          "internalType": "bytes",
          "name": "params",
          "type": "bytes"
        }
      ],
      "name": "uploadFileWithGDV",
      "outputs": [
        {
          "internalType": "bytes32",
          "name": "fileId",
          "type": "bytes32"
        }
      ],
      "stateMutability": "nonpayable",
      "type": "function"
    },
    {
      "inputs": [
        {
          "internalType": "bytes",
          "name": "params",
          "type": "bytes"
        },
        {
          "internalType": "address",
          "name": "token",
          "type": "address"
        }
      ],
      "name": "uploadFileWithToken",
      "outputs": [
        {
          "internalType": "bytes32",
          "name": "fileId",
          "type": "bytes32"
        }
      ],
      "stateMutability": "nonpayable",
      "type": "function"
    },
    {
      "inputs": [
        {
          "internalType": "address",
          "name": "",
          "type": "address"
        }
      ],
      "name": "userBalances",
      "outputs": [
        {
          "internalType": "uint128",
          "name": "",
          "type": "uint128"
        }
      ],
      "stateMutability": "view",
      "type": "function"
    },
    {
      "inputs": [
        {
          "internalType": "address",
          "name": "",
          "type": "address"
        }
      ],
      "name": "userBandwidthUsed",
      "outputs": [
        {
          "internalType": "uint128",
          "name": "",
          "type": "uint128"
        }
      ],
      "stateMutability": "view",
      "type": "function"
    },
    {
      "inputs": [
        {
          "internalType": "address",
          "name": "",
          "type": "address"
        },
        {
          "internalType": "uint256",
          "name": "",
          "type": "uint256"
        }
      ],
      "name": "userFiles",
      "outputs": [
        {
          "internalType": "bytes32",
          "name": "",
          "type": "bytes32"
        }
      ],
      "stateMutability": "view",
      "type": "function"
    },
    {
      "inputs": [
        {
          "internalType": "address",
          "name": "",
          "type": "address"
        },
        {
          "internalType": "uint256",
          "name": "",
          "type": "uint256"
        }
      ],
      "name": "userFolders",
      "outputs": [
        {
          "internalType": "bytes32",
          "name": "",
          "type": "bytes32"
        }
      ],
      "stateMutability": "view",
      "type": "function"
    },
    {
      "inputs": [
        {
          "internalType": "address",
          "name": "",
          "type": "address"
        }
      ],
      "name": "userStorageUsed",
      "outputs": [
        {
          "internalType": "uint128",
          "name": "",
          "type": "uint128"
        }
      ],
      "stateMutability": "view",
      "type": "function"
    },
    {
      "inputs": [],
      "name": "withdrawEarnings",
      "outputs": [],
      "stateMutability": "nonpayable",
      "type": "function"
    },
    {
      "inputs": [
        {
          "internalType": "address",
          "name": "token",
          "type": "address"
        },
        {
          "internalType": "uint256",
          "name": "amount",
          "type": "uint256"
        }
      ],
      "name": "withdrawTokens",
      "outputs": [],
      "stateMutability": "nonpayable",
      "type": "function"
    },
    {
      "stateMutability": "payable",
      "type": "receive"
    }
  ],
  "transactionHash": "0xe7b733e8e15ab327154db4e0e46a0e3110309ab137a076931f674fc0f58c4883",
  "args": [
    "0xdeFe84043EA9eC2E14747685d7295574b6bFbde7"
  ],
  "numDeployments": 2,
  "solcInputHash": "323471a7d72176d86076c8b1e178e55c",
  "bytecode": "0x608034620002b5576001600160401b0390601f6200589c38819003918201601f1916830192919084841183851017620002ba578160209284926040968752833981010312620002b557516001600160a01b03929083811690819003620002b55780156200029d57600080546001600160a01b0319808216841783559591929190829082167f8be0079c531659141344cd1fd0a4f28419497f9722a3daafe3b4186f6b6457e08580a360018055600280546001600160881b0319166609184e72a0000017905574014000000000000000000000000000048c27395000600355600480546001600160801b03199081166903e80000000000278d00179091557419000000000000000000000000000000004000000060205574fa0000000000000000000000000000000280000000602255642386f26fc160901b6024557509c4000000000000000000000000000000fa000000006021557561a8000000000000000000000000000009c4000000006023557702c68af0bb140000000000000000000000b1a2bc2ec50000602555426301e1338081019391908410620002895786519060c08201828110888211176200027557918899600292899a99948a5285835260208301634000000081528a840192640280000000845286606086019a168a5260808501988b8a5260a086019860018a528c52600a6020528c8c209551169085541617845560018060801b03905116915160801b161760018201550193511669ff00000000000000000068ff000000000000000085549451881b169251151560481b169260018060501b0319161717179055600f6020522090421660018060401b0319825416179055516155cb9081620002d18239f35b634e487b7160e01b87526041600452602487fd5b634e487b7160e01b85526011600452602485fd5b8251631e4fbdf760e01b815260006004820152602490fd5b600080fd5b634e487b7160e01b600052604160045260246000fdfe6080604052600436101561001b575b361561001957600080fd5b005b60003560e01c80630573a0dd14613f1757806306b091f914613e82578063128034d114613c2a5780631376d01714613c095780631fc37922146139335780631fd45a6a146138e25780632002ccad146138b2578063204120bc1461387857806323ced80b1461385a57806326224c6414613817578063267275e1146137e55780632a7c4677146137bf5780632b8578fe14613775578063300eccab14613745578063313b8ec3146134ff5780633c4dd94f1461340b5780633ccfc7c3146133d65780633f4ba83a1461336c57806343404cc2146132e15780634506708e146132b85780634a3b68cc1461327d5780634e43603a146131c957806353aaa63b1461318f578063550b3a9914613087578063560dc342146130445780635b39515914612ea25780635c975abb14612e7f5780635ce3957d14612e055780635d8e858414612d885780635e3fddf314612d385780636412173e14612d0f5780636621599414612cde57806368c4ac2614612c9f5780636ab799f1146128265780636e4c5f01146127ff5780636ec33bb61461277c578063715018a614612723578063718f38a6146126d9578063776facd91461248e5780637cb570ab146124475780637dbc96fa146124205780637f50e7cc146123f75780638456cb591461239d5780638b32a3e7146123195780638da5cb5b146122f0578063920a253e146122c657806393b6aac014612240578063954da27f146121fd57806396d3ea89146120e757806398c9adff1461203457806398f7733e14611ff4578063a02b827714611ee6578063a22064d414611e77578063a41ca8b114611e34578063a43bcc1214611d9e578063a512542114611cee578063a56360f814611c9e578063a57b8b7514611c36578063b73c6ce914611baa578063bb29758114611b6a578063bbcffbc714611820578063bd44a64f146117ef578063be262644146113de578063c89515a41461139b578063c90bab4d14611366578063d09e067e14611311578063d3ab4b42146111be578063d4ee651b14611122578063d8ed9a6c146110b6578063d91dd84f14611073578063db2e21bc1461102c578063dca2996114610fda578063e371817e14610fb4578063e704a34d14610be7578063e83306dd14610b0c578063e85d350114610885578063f0258b4f1461085f578063f046395a146107d7578063f0a2580a1461067e578063f2fde38b146105f5578063f479dd581461047b578063f74b059e146103e05763fe75e3380361000e57346103db5760003660031901126103db5760206001600160801b0360025460081c16604051908152f35b600080fd5b346103db5760203660031901126103db576103f96140d7565b610401614499565b6001600160a01b031680151580610462575b61045057602880546001600160a01b031916821790557f334a8f7281ef0ee35ea90f5cf0308e16a1cfd42188da6400fbe6673116e52add600080a2005b604051633dd1b30560e01b8152600490fd5b5080600052602660205260ff6040600020541615610413565b346103db576020806003193601126103db576001600160401b036004358181116103db576104ad903690600401614119565b6104b89291926144e3565b6104c06144c5565b6029549160ff8360a01c16156105e357610521906104e08386018661451d565b97505050505050925050620fffff670de0b6b3a7640000936301e13380856001600160801b03928360025460081c169516020493160160141c0202046154f7565b6040516323b872dd60e01b815233600482015230602482015260448101829052909390928590849060649082906000906001600160a01b03165af19283156105d757610572936105aa575b50614744565b906040519081527f7e01bdfcb9e374847e0052332dc2e9561d204d892ab54122b8c8f79a3708aad4833392a260018055604051908152f35b6105c990863d88116105d0575b6105c18183613fc8565b8101906152ff565b508561056c565b503d6105b7565b6040513d6000823e3d90fd5b6040516395ebbfa760e01b8152600490fd5b346103db5760203660031901126103db5761060e6140d7565b610616614499565b6001600160a01b0390811690811561066557600054826001600160601b0360a01b821617600055167f8be0079c531659141344cd1fd0a4f28419497f9722a3daafe3b4186f6b6457e0600080a3005b604051631e4fbdf760e01b815260006004820152602490fd5b346103db5760403660031901126103db576001600160401b036004358181116103db576106af903690600401614119565b6106ba929192614103565b926106c36144e3565b6106cb6144c5565b60018060a01b03841692836000526020946026865260ff60406000205416156104505761073f916106fe8585018561451d565b97505050505050925050620fffff670de0b6b3a7640000936301e13380856001600160801b03928360025460081c169516020493160160141c020204615269565b6040516323b872dd60e01b8152336004820152306024820152604481018290529092909185836064816000895af19283156105d757610782936107ba5750614744565b916040519182527fc7e4cc89b0a980a194012a15142f99855680e1a060fc1955ce40af0800a7b1e8843393a360018055604051908152f35b6107d090873d89116105d0576105c18183613fc8565b508661056c565b346103db5760203660031901126103db5760c06001600160a01b03806107fb6140d7565b16600052600a60205260ff6040600020918254169160026001820154910154906040519384526001600160801b038116602085015260801c60408401526001600160401b0381166060840152818160401c16608084015260481c16151560a0820152f35b346103db5760203660031901126103db57602061087d6004356154f7565b604051908152f35b346103db5760603660031901126103db576001600160401b036004356024358281116103db576108b9903690600401614119565b6108c4939193614445565b836000526020926006845260019260018060a01b038460406000200154163303610afa5785600052600685528160026040600020015460801c1615610ae857856000526006855260406000209133600052600a8652604060002093600d87526001600160801b039061093d81836040600020541661465e565b90600286019683808a610954828c541680976150e9565b93015416911611610ad657829133600052600d8a52604060002090815490846001600160801b03199687928603168184160116911617905516908554161784558111610ac0576109ae816109a88454613f57565b84614690565b6000601f8211600114610a3b5781907f7a22a9ee3d48ed0e5124a8483a35d03987ec822583eb91b03ffc68044832442e9798600092610a30575b5050600019600383901b1c191690841b1790555b805461ffff60e01b19811660e091821c61ffff90811690940190911b61ffff60e01b161781555460e01c16604051908152a2005b0135905088806109e8565b601f1982169083600052866000209160005b818110610aab57509883929187947f7a22a9ee3d48ed0e5124a8483a35d03987ec822583eb91b03ffc68044832442e9a9b10610a91575b505050811b0190556109fc565b0135600019600384901b60f8161c19169055888080610a84565b8a830135845592870192918801918801610a4d565b634e487b7160e01b600052604160045260246000fd5b604051634ba8b0a960e01b8152600490fd5b604051633b4835d960e21b8152600490fd5b60405163abea322960e01b8152600490fd5b60203660031901126103db576001600160401b036004358181116103db57366023820112156103db5780600401358281116103db576024600591368282851b860101116103db5791610b5c6144e3565b610b646144c5565b610b6d836150a3565b9336819003604219019160005b858110610b9f576001805560405160208082528190610b9b9082018a614179565b0390f35b8481831b84010135848112156103db5783019085820135918983116103db5760440182360381136103db57600192610bd691614744565b610be0828a6150d5565b5201610b7a565b346103db5760a03660031901126103db57610c0061442f565b604435906001600160401b03821682036103db576064359063ffffffff821682036103db576084356001600160401b0381116103db57610c44903690600401614119565b90600435600052600660205260018060a01b03600160406000200154163303610afa5760043560005260066020526001600160401b0360026040600020015460801c1615610ae8576001600160801b038316158015610fa1575b610f8f576005805467ffffffffffffffff1981166001600160401b03918216600101918216179091556040805160043560208201523360601b6bffffffffffffffffffffffff19169181019190915242605482015260c09190911b6001600160c01b0319166074820152610d7b929063ffffffff90610d2a81607c81015b03601f198101835282613fc8565b60208151910120956001600160401b0360405198610d478a613f91565b6004358a523360208b01526001600160801b03881660408b0152166060890152600060808901521660a087015236916142a9565b60c0840152600160e084015281600052601c602052604060002092805184556001840160018060a01b036020830151166001600160601b0360a01b825416179055610e61600285016001600160801b036040840151166001600160801b0319825416178155610e196001600160401b0360608501511682908154906001600160401b0360801b9060801b16906001600160401b0360801b1916179055565b6080830151815463ffffffff60c01b191660c09190911b63ffffffff60c01b1617815560a083015181546001600160e01b031660e09190911b6001600160e01b031916179055565b600384019360c08201519485516001600160401b038111610ac057602096610e9382610e8d8554613f57565b85614690565b8790601f8311600114610f235791806004949260e09694600092610f18575b50508160011b916000199060031b1c19161790555b01910151151560ff801983541691161790556001600160801b0360405191168152817f1015d323bc2f29aaf19d900ccbc6b1856888b72307ec5a75c5a9c43cd4fb0c628460043593a3604051908152f35b015190508a80610eb2565b90601f1983169184600052896000209260005b818110610f78575092600192859260e098966004989610610f5f575b505050811b019055610ec7565b015160001960f88460031b161c191690558a8080610f52565b92938b600181928786015181550195019301610f36565b60405163b4fa3fb360e01b8152600490fd5b50426001600160401b0386161115610c9e565b346103db5760403660031901126103db57602061087d610fd2614103565b600435615269565b60203660031901126103db576004356001600160401b0381116103db5761102061100a6020923690600401614119565b906110136144e3565b61101b6144c5565b614744565b60018055604051908152f35b346103db5760003660031901126103db57611045614499565b6000805481908190819047906001600160a01b031682821561106a575bf1156105d757005b506108fc611062565b346103db5760203660031901126103db576001600160a01b036110946140d7565b16600052600d60205260206001600160801b0360406000205416604051908152f35b346103db5760203660031901126103db576004358015158091036103db5760207f1d3a2e9f214b18b25530f3e0058585b6ec740535caa59cd1770ccbfd90c397ac91611100614499565b6029805460ff60a01b191660a083901b60ff60a01b16179055604051908152a1005b346103db5760403660031901126103db5761113b6140d7565b60243590611147614499565b6001600160a01b031660008181526026602052604090205490919060ff16156104505780156111ac5760207fceb40be0a58aa33916c199e469842b614ef313295573c15d82f85cc9d1a89d3291836000526027825280604060002055604051908152a2005b604051637841c2c960e11b8152600490fd5b346103db5760003660031901126103db576040516111db81613fad565b60808091369037806040516111ef81613fad565b369037806040516111ff81613fad565b369037604051602090600082825b60016004818501101561123f57604060029284546001600160801b0381168252891c888201520192019201919061120d565b5050505061124c81613fad565b60405191600090602290845b6001906004828601101561128c5790604060029285546001600160801b03811682528a1c8582015201930193019291611258565b8786888561129982613fad565b60405192600091602491855b600190600482870110156112d95790604060029286546001600160801b03811682528b1c86820152019401940193926112a5565b6101808361130f8a6113048b8e6112ef84613fad565b6112fc6040518097614468565b850190614468565b610100830190614468565bf35b346103db5760206113396113243661430d565b9290816040519382858094519384920161408f565b8101601881520301902080548210156103db5760209161135891614240565b90546040519160031b1c8152f35b346103db5760203660031901126103db57600435600052601260205260206001600160801b0360406000205416604051908152f35b346103db5760203660031901126103db576001600160a01b036113bc6140d7565b16600052600f60205260206001600160401b0360406000205416604051908152f35b346103db5760603660031901126103db576004356001600160401b0381116103db5761140e903690600401614119565b604435151580604435036103db5733600052600a60205260026040600020015460ff8160481c16159081156117da575b506117c8578115610f8f57602435611713575b6004546001600160401b0360c01b60018260c01c0160c01b16809160018060c01b0316176004556040516114b0605c82602081019487898737878201903360601b6020830152426034830152605482015203603c810184520182613fc8565b519020916040519360a08501918583106001600160401b03841117610ac0576114dd9260405236916142a9565b835233602084015260243560408401526001600160401b0342166060840152608083015280600052600860205260406000209180519283516001600160401b038111610ac057611531816109a88454613f57565b6020601f82116001146116a7578190600394959660009261169c575b50508160011b9160001990851b1c19161781555b6001810160018060a01b036020850151166001600160601b0360a01b8254161790556040830151600282015501906001600160401b0360608201511660ff60401b60808454930151151560401b169168ffffffffffffffffff19161717905533600052600c6020526115d781604060002061471e565b60243561167e575b604435611618575b60405160209133817f4e611b5a9758c78c82d7492e2f9bb1969b31be7f6463f3ffb3834d20310d1d4d600080a38152f35b601a5490600160401b821015610ac0576001820180601a5582101561166857601a6000527f057c384a7d1c54f3a1b2e5e67b2617b8224fdfd1ea7234eea573a6ff665ff63e9091018190556115e7565b634e487b7160e01b600052603260045260246000fd5b602435600052601560205261169781604060002061471e565b6115df565b01519050868061154d565b8260005260206000209560005b601f19841681106116fb57509582916003959697600194601f198116106116e3575b505050811b018155611561565b015160001983871b60f8161c191690558680806116d6565b828201518855600190970196602092830192016116b4565b60243560005260086020526001600160401b0360036040600020015416156117b6576024356000908152600860205260409020600101546001600160a01b031633141580611774575b15611451575b60405163061cbdd360e51b8152600490fd5b50601160205260406000203360005260205260ff6040600020541660048110156117a05760021161175c565b634e487b7160e01b600052602160045260246000fd5b60405163fc061e9f60e01b8152600490fd5b604051630fb532db60e11b8152600490fd5b90506001600160401b0342911611158461143e565b346103db576117fd3661439d565b906000526015602052604060002080548210156103db5760209161135891614240565b346103db5760803660031901126103db57611839614374565b6044359063ffffffff821682036103db576064356001600160401b0381116103db57611869903690600401614119565b926004356000526006602052604060002060018060a01b036001820154163314159081611b3c575b81611b2c575b506117625760043560005260066020526001600160401b0360026040600020015460801c1615610ae857426001600160401b0384161115610f8f576005805467ffffffffffffffff1981166001600160401b039182166001019182161790915560408051600435602082019081523360601b6bffffffffffffffffffffffff19169282019290925242605482015260c09290921b6001600160c01b03191660748301529061194881607c8101610d1c565b519020926040518060c08101106001600160401b0360c083011117610ac05760c08101604090815260043582523360208084019182526001600160401b039490941682840190815260006060850181815263ffffffff97881660808701908152600160a08089018281528d86526009909a5296909320965187559351925190516001600160e01b031960e09190911b166001600160a01b0390931667ffffffffffffffff60a01b9190951b16939093171791830191909155929060020192511664ff0000000083549251151560201b169164ffffffffff19161717905582611a5f575b60208260405190600435817fe858c17ec4703e144d651708aca8173d9af23b71bb0e3515c585dfe932c2eff9600080a38152f35b90601b60205260406000206001600160401b038411610ac05783611a896020956109a88454613f57565b6000601f8211600114611ac85781929394600092611abd575b50508160011b916000199060031b1c19161790555b82611a2b565b013590508580611aa2565b601f1982169483600052866000209160005b878110611b15575083600195969710611afb575b505050811b019055611ab7565b0135600019600384901b60f8161c19169055858080611aee565b909288600181928686013581550194019101611ada565b60029150015460f81c1585611897565b9050601060205260406000203360005260205260ff6040600020541660048110156117a05760011190611891565b346103db5760203660031901126103db5760043560048110156103db576001600160801b03611b9a60209261428e565b9190546040519260031b1c168152f35b346103db5760003660031901126103db5733600052601d6020526001600160801b03604060002054168015611c0357600080808093338252601d602052604082206001600160801b031981541690553382f1156105d757005b60405162461bcd60e51b815260206004820152600b60248201526a4e6f206561726e696e677360a81b6044820152606490fd5b346103db5760203660031901126103db57600435611c52614499565b6127108111611c8c576020817fe4fa623f284b85c795e990f9cc4f6b5b0626280c3889f62851b8989a2609a47a92602a55604051908152a1005b60405163d027d9d760e01b8152600490fd5b346103db5760403660031901126103db57611cb7614103565b600435600052601160205260406000209060018060a01b0316600052602052610b9b60ff604060002054166040519182918261438a565b346103db5760203660031901126103db57611d076140d7565b611d0f614499565b6001600160a01b0390811660008181526026602052604090205490919060ff161561045057816000526026602052604060002060ff1981541690556027602052600060408120558160285491821614611d8b575b507f4c910b69fe65a61f7531b9c5042b2329ca7179c77290aa7e2eb3afa3c8511fd3600080a2005b6001600160a01b03191660285581611d63565b346103db5760803660031901126103db57611db7614364565b611dbf61442f565b90611dc8614445565b606435916001600160801b03831683036103db57611de4614499565b600360ff821611610f8f57611e2f611e0692611e2661001996611e068561428e565b90919082549060031b916001600160801b03809116831b921b1916179055565b611e0683614258565b614273565b346103db5760203660031901126103db576004356000908152601c6020526040902060018101546001600160a01b03163303610afa57600401805460ff19169055005b346103db5760203660031901126103db57611e906140d7565b611e98614499565b6001600160a01b03168015610f8f57602980546001600160a81b0319168217600160a01b1790557f64395189a34ae5d780e1c8be6d937d798e5d7f5ade1c691495b59e9169e875d5600080a2005b60403660031901126103db57600435611efd614374565b6000828152600660205260409020600101546001600160a01b03163303610afa578160005260066020526001600160401b03908160026040600020015460801c1615610ae8578260005260066020526001600160801b03928360026040600020015416670de0b6b3a7640000908560025460081c16620fffff6301e13380848888160204920160141c0202043410611fe25760005260136020526040600020918254918183160116906001600160401b0319161790556012602052604060002090815490611fcf81341682841661465e565b6001600160801b03199092169116179055005b60405163cd1c886760e01b8152600490fd5b346103db5760203660031901126103db576001600160801b03612015614419565b61201d614499565b166001600160801b03196003541617600355600080f35b346103db5760203660031901126103db576004356000526006602052612088604060002061206181613fe9565b90600260018060a01b036001830154169101546040519384936101008086528501906140b2565b9160208401526001600160801b03811660408401526001600160401b038160801c16606084015263ffffffff8160c01c16608084015261ffff8160e01c1660a084015260ff8160f01c16151560c084015260f81c151560e08301520390f35b346103db576020806003193601126103db576004356121046144e3565b60295460ff8160a01c16156105e3576040516323b872dd60e01b815233600482015230602482015260448101839052906001600160a01b039084908390606490829060009086165af19182156105d75784926121e0575b506029541691602460405180948193638fc7a25d60e01b835260048301525afa9182156105d7576000926121b1575b50506000808080938181156121a8575b3390f1156105d75760018055005b506108fc61219a565b90809250813d83116121d9575b6121c88183613fc8565b810103126103db575160008061218a565b503d6121be565b6121f690833d85116105d0576105c18183613fc8565b508461215b565b346103db5760203660031901126103db576001600160a01b0361221e6140d7565b16600052601d60205260206001600160801b0360406000205416604051908152f35b346103db5760203660031901126103db57600435600052600860205261229d604060002061226d81613fe9565b9060ff60018060a01b0360018301541691600360028201549101549060405195869560a0875260a08701906140b2565b93602086015260408501526001600160401b038116606085015260401c16151560808301520390f35b346103db5760003660031901126103db5760206001600160401b0360045460401c16604051908152f35b346103db5760003660031901126103db576000546040516001600160a01b039091168152602090f35b346103db5760203660031901126103db57600435600052601c6020526040600020805490610b9b60018060a01b036001830154169260028301549260ff600461236460038401613fe9565b92015416916040519585879660e01c9263ffffffff8260c01c16926001600160801b036001600160401b038460801c16931691896143b3565b346103db5760003660031901126103db576123b6614499565b6123be6144c5565b600160ff1960025416176002557f62e78cea01bee320cd4e420270b5ea74000d11b0c9f74754ebdbfc544b05a2586020604051338152a1005b346103db5760003660031901126103db576029546040516001600160a01b039091168152602090f35b346103db5760003660031901126103db5760206001600160401b0360045416604051908152f35b346103db5760203660031901126103db57612460614419565b612468614499565b610100600160881b036002549160081b1690610100600160881b03191617600255600080f35b60603660031901126103db576124a2614364565b6124aa614374565b6124b26140ed565b906124bb6144e3565b600360ff841611610f8f576004546001600160401b03828116929181168310610f8f576124e88286615185565b3410611fe2577f12f97e9c312855c3f48ec2b207c7ed3789fdf1e5250bceda743d6b99db15e549936126709361264b926001926001600160a01b039081169081151590816126ce575b816126b5575b5061268f575b5033600052600a6020526040600020916002830190828254914282841611600014612679575050815467ffffffffffffffff19811690841688018416178255505b82546001600160a01b031916331783556125ec61259a8a61428e565b95906001600160801b03968791549060031b1c1694016001600160801b03199485825416178155856125cb8c614258565b90549060031b1c166001600160801b0382549181199060801b169116179055565b805460ff60401b191660408a901b60ff60401b16178155600160481b60ff60481b1982541617905533600052600f60205260406000209042166001600160401b0319825416179055600e602052604060002090815416905534166151b8565b6040805160ff90951685526001600160401b0390911660208501523393918291820190565b0390a260018055005b420116906001600160401b03191617815561257e565b33600052601e6020526040600020906001600160601b0360a01b8254161790558861253d565b905033600052601e60205260406000205416158a612537565b338314159150612531565b346103db5760403660031901126103db576126f26140d7565b6001600160a01b03166000908152600b60205260409020805460243591908210156103db5760209161135891614240565b346103db5760003660031901126103db5761273c614499565b600080546001600160a01b0319811682556001600160a01b03167f8be0079c531659141344cd1fd0a4f28419497f9722a3daafe3b4186f6b6457e08280a3005b346103db5760203660031901126103db57600435600052601c60205260406000208054610b9b60018060a01b03600184015416926002810154926127ca600360ff6004850154169301613fe9565b906040519585879660e01c9263ffffffff8260c01c16926001600160801b036001600160401b038460801c16931691896143b3565b346103db5760003660031901126103db5760206001600160801b0360035416604051908152f35b346103db576020806003193601126103db57600435600081815260068352604090206001908101546001600160a01b03163303610afa5781600052600683526001600160401b0360026040600020015460801c1615610ae8578290826000526006825260406000206007835260406000209060039160028382019201916128b385845460f81c9301613fe9565b81546128be81614506565b926128cc6040519485613fc8565b81845260009081528881208985015b838310612c745750505050866128fe91816040519382858094519384920161408f565b81016018815203019020856000905b612bf4575b5050846000905b612b2c575b5050612a48575b33600052600d84526040600020908154906001600160801b0390818154168284161015600014612a355754835492506129629082168383166150e9565b16906001600160801b0319161790555b8360005260068352600060026040822061298b816146d5565b82858201550155836000526007835260406000206129a8816146d5565b6129b38382016146d5565b6129bf600282016146d5565b018054906000815581612a10575b84601385826000525260406000206001600160401b031981541690557f88efefb1eaec3d3a0e08ed74bc99a3407d454b5da66112fed68b20d54837ccae600080a2005b60005282600020908101905b818110156129cd5780612a2f84926146d5565b01612a1c565b50506001600160801b0319169055612972565b6000835b612a57575b50612925565b8360199182549283821015612b245788612a7083614209565b905490881b1c14612a8d5750612a87919250615102565b90612a4c565b915060001992838101908111612b0e57612ab8612aac612acf92614209565b905490881b1c92614209565b819391549060031b91821b91600019901b19161790565b905580548015612af857820191612ae583614209565b9091825491871b1b191690555585612a51565b634e487b7160e01b600052603160045260246000fd5b634e487b7160e01b600052601160045260246000fd5b505050612a51565b8151811015612bef579081612b4b612b458894846150d5565b5161433e565b6000845b612b66575b5050612b5f90615102565b9091612919565b81929394915480821015612be4578b612b7f8386614240565b9054908b1b1c14612b9e5750612b9490615102565b8194939291612b4f565b9092949391506000198101908111612b0e5784612b5f93612bd6612ab8612bc9612bdd958e9a614240565b9054908d1b1c9284614240565b9055615111565b908a612b54565b508194939250612b54565b61291e565b81548781831015612c6d575089612c0b8385614240565b905490891b1c14612c35575090612c288798979695949392615102565b909192939495969761290d565b9092916000198201918211612b0e578793612bd6612ab8612c59612c669585614240565b9054908b1b1c9284614240565b9088612912565b5050612912565b898b8192612c89979e9d9b9a99989785613fe9565b8152019201920191909a9394959697999a6128db565b346103db5760203660031901126103db576001600160a01b03612cc06140d7565b166000526026602052602060ff604060002054166040519015158152f35b346103db57612cec3661439d565b906000526016602052604060002080548210156103db5760209161135891614240565b346103db5760003660031901126103db576028546040516001600160a01b039091168152602090f35b346103db5760403660031901126103db57612d51614103565b600435600052601060205260406000209060018060a01b0316600052602052610b9b60ff604060002054166040519182918261438a565b346103db5760203660031901126103db576004356000526007602052612de96040600020610b9b612db882613fe9565b91612df7612dd46002612dcd60018501613fe9565b9301613fe9565b916040519586956060875260608701906140b2565b9085820360208701526140b2565b9083820360408501526140b2565b346103db5760203660031901126103db57600435600052600960205260c0604060002060ff815491600260018201549101549060405193845260018060a01b03811660208501526001600160401b038160a01c16604085015260e01c606084015263ffffffff8116608084015260201c16151560a0820152f35b346103db5760003660031901126103db57602060ff600254166040519015158152f35b346103db576020806003193601126103db576004359081600052600681526001600160401b038060026040600020015460801c1615610ae857826000526006825260406000209260018060a01b0393846001820154163314159081613018575b81613008575b5061176257612f8f9361ffff9160005260068452612fe36040600020936007865260406000209460028101549360018201541660138852612fa9836040600020541697612f9b612f5782613fe9565b9a612f796002612f72612f6c60018701613fe9565b98613fe9565b9401613fe9565b95604051809e819e6101608084528301906140b2565b928184039101526140b2565b908a820360408c01526140b2565b926001600160801b03861660608a01528560801c16608089015260ff8560f01c16151560a089015260c088015286820360e08801526140b2565b9261010085015263ffffffff8160c01c1661012085015260e01c166101408301520390f35b60029150015460f81c1585612f08565b905060108452604060002033600052845260ff6040600020541660048110156117a05760011190612f02565b346103db5760203660031901126103db576001600160a01b036130656140d7565b16600052600e60205260206001600160801b0360406000205416604051908152f35b346103db5760803660031901126103db576130a0614364565b6130a8614374565b906130b16140ed565b6064356001600160a01b0381169291908381036103db576130d06144e3565b83600052602660205260ff6040600020541615610450576130fa906130f58685615185565b615269565b6040516323b872dd60e01b815233600482015230602482015260448101829052909490926020846064816000895af19384156105d75761313f94613171575b50615317565b6040519182527fc7e4cc89b0a980a194012a15142f99855680e1a060fc1955ce40af0800a7b1e860203393a360018055005b6131889060203d81116105d0576105c18183613fc8565b5086613139565b346103db5760203660031901126103db576001600160a01b036131b06140d7565b16600052601f6020526020604060002054604051908152f35b346103db576020806003193601126103db57610100906001600160a01b036131ef6140d7565b16600052600a81526001600160401b036040600020600d83526001600160801b03908160406000205416936001820154600e82528360406000205416600b835260406000205492600c8152600260406000205495015495604051988952831690880152604087015260801c6060860152608085015260a084015260ff8160401c1660c08401521660e0820152f35b346103db5760203660031901126103db5760206001600160a01b03806132a16140d7565b16600052601e825260406000205416604051908152f35b346103db5760203660031901126103db576004356019548110156103db57611358602091614209565b346103db5760403660031901126103db576132fa6140d7565b60243590613306614499565b6001600160a01b0316908115610f8f5780156111ac5760207ff4c563a3ea86ff1f4275e8c207df0375a51963f2b831b7bf4da8be938d92876c9183600052602682526040600020600160ff198254161790556027825280604060002055604051908152a2005b346103db5760003660031901126103db57613385614499565b60025460ff8116156133c45760ff19166002557f5db9ee0a495bf2e6ff9c91a7834c1ba4fdd244a5e8aa4e537bd38aeae4b073aa6020604051338152a1005b604051638dfc202b60e01b8152600490fd5b346103db5760203660031901126103db57600435600052601360205260206001600160401b0360406000205416604051908152f35b346103db5760603660031901126103db57613424614364565b61342c614374565b6134346140ed565b61343c6144e3565b6029549160ff8360a01c16156105e35761345e6134598286615185565b6154f7565b6040516323b872dd60e01b81523360048201523060248201526044810182905290949093602090859060649082906000906001600160a01b03165af19384156105d7576134af946134e15750615317565b6040519081527f7e01bdfcb9e374847e0052332dc2e9561d204d892ab54122b8c8f79a3708aad460203392a260018055005b6134f89060203d81116105d0576105c18183613fc8565b5085613139565b61350836614146565b6135106144e3565b82600052602092601c845260406000209060ff60048301541615613733576002820192835494426001600160401b038760801c161115613733578560e01c801515908161371f575b5061370d57600384019061356c8254613f57565b151592836136df575b505050611762576001600160801b038085163410611fe25782546000526006865261360c6001600260406000206135de6135ae82613fe9565b895463ffffffff60c01b191660c09b8c1c63ffffffff908116909601909b1b63ffffffff60c01b169a909a178955565b01805463ffffffff60c01b19811660c091821c8416600101909316901b63ffffffff60c01b16919091179055565b600183015493548116936001600160a01b03166000858281156136d5575b600092839283928392f1156105d757610b9b947f0d59d45505505a9661a4d8f5a34cf177bb24da7babb871d6496a5da4e824461b92604092600052601d8952826000209081549061367d8482841661465e565b16906001600160801b03191617905581519033825288820152a2549160405193849333907f867558aef063b7f1f5ee4daa8d18b1811be91a77d9eb7890b94188892e11ff17600080a3600180558084528301906140b2565b6108fc925061362a565b6136fd929350906136f19136916142a9565b87815191012091613fe9565b8681519101201415868080613575565b6040516381a36e7f60e01b8152600490fd5b905063ffffffff8760c01c16101588613558565b604051630614853960e21b8152600490fd5b346103db5760203660031901126103db5760043560048110156103db576001600160801b03611b9a602092614273565b346103db5760403660031901126103db5761378e6140d7565b6001600160a01b03166000908152600c60205260409020805460243591908210156103db5760209161135891614240565b346103db5760003660031901126103db57602060ff60295460a01c166040519015158152f35b346103db5760206137f86113243661430d565b8101601781520301902080548210156103db5760209161135891614240565b346103db5760203660031901126103db576001600160a01b036138386140d7565b16600052601460205260206001600160801b0360406000205416604051908152f35b346103db5760003660031901126103db576020602a54604051908152f35b346103db5760203660031901126103db576001600160a01b036138996140d7565b1660005260276020526020604060002054604051908152f35b346103db5760203660031901126103db5760043560048110156103db576001600160801b03611b9a602092614258565b346103db5760203660031901126103db57600435601a548110156103db57602090601a6000527f057c384a7d1c54f3a1b2e5e67b2617b8224fdfd1ea7234eea573a6ff665ff63e0154604051908152f35b346103db5760203660031901126103db576001600160a01b036139546140d7565b16600052600b602052604060002080549061396e826150a3565b906139788361513b565b926139828161513b565b61398b82614506565b906139996040519283613fc8565b828252601f1995866139aa85614506565b013660208501376139ba84614506565b936139c86040519586613fc8565b808552876139d582614506565b013660208701376139e581614506565b976139f3604051998a613fc8565b8189526139ff82614506565b013660208a0137613a0f8161513b565b9560005b828110613b235750505090613a48613a5692613a3a6040519860e08a5260e08a0190614179565b9088820360208a01526141ad565b9086820360408801526141ad565b84810360608601526020808351928381520192019060005b818110613b045750505083810360808501526020808351928381520192019060005b818110613ae55750505082810360a08401526020808551928381520194019060005b818110613acd578480610b9b888783820360c08501526141ad565b82511515865260209586019590920191600101613ab2565b82516001600160401b0316845260209384019390920191600101613a90565b82516001600160801b0316845260209384019390920191600101613a6e565b613b2d8183614240565b90549060031b1c80600052600660205260406000206007602052604060002091613b57848d6150d5565b52613b6182613fe9565b613b6b84886150d5565b52613b7683876150d5565b50613b8081613fe9565b613b8a84896150d5565b52613b9583886150d5565b50600201546001600160801b038116613bae848a6150d5565b528060801c6001600160401b0316613bc6848b6150d5565b52613bd1838d6150d5565b9060f81c15159052600101613be590613fe9565b613bef828a6150d5565b52613bfa81896150d5565b50613c0490615102565b613a13565b346103db5760003660031901126103db57602060035460801c604051908152f35b346103db57613c3836614146565b918060005260209260098452604060002060028101549160ff83871c16156137335760018201948554946001600160401b039542878260a01c16111561370d5763ffffffff8096168015159182613e74575b505061370d57600052601b8752604060002091613ca78354613f57565b613e52575b5050505490816000526006855260406000209233600052600a865260406000209060ff600283015460481c16613d81575b505083546001600160e01b03811660e091821c600101831690911b6001600160e01b03191617909355613d6c92613d40905b60028401805463ffffffff60c01b19811660c091821c8416600101909316901b63ffffffff60c01b16919091179055565b33907f867558aef063b7f1f5ee4daa8d18b1811be91a77d9eb7890b94188892e11ff17600080a3613fe9565b90610b9b6040519282849384528301906140b2565b600f87939293528062278d0081604060002054160116421015613e1a575b50600e86526001600160801b0391826040600020541690836001613dca8260028a015416809561465e565b92015460801c911611613e0857336000908152600e88526040902080546001600160801b031981169085169092019093161790915580613d0f613cdd565b604051635c31fe0f60e11b8152600490fd5b600e875260406000206001600160801b03198154169055600f875260406000209042166001600160401b031982541617905586613d9f565b613e61916136f19136916142a9565b8681519101200361176257858080613cac565b60e01c101590508980613c8a565b346103db5760403660031901126103db57613e9b6140d7565b613ea3614499565b6001600160a01b0390811660008181526026602052604090205490919060ff1615610450576000916044602092845416604051948593849263a9059cbb60e01b8452600484015260243560248401525af180156105d757613f0057005b6100199060203d81116105d0576105c18183613fc8565b346103db5760203660031901126103db57600435600052601b602052610b9b613f436040600020613fe9565b6040519182916020835260208301906140b2565b90600182811c92168015613f87575b6020831014613f7157565b634e487b7160e01b600052602260045260246000fd5b91607f1691613f66565b61010081019081106001600160401b03821117610ac057604052565b608081019081106001600160401b03821117610ac057604052565b90601f801991011681019081106001600160401b03821117610ac057604052565b9060405191826000825492613ffd84613f57565b90818452600194858116908160001461406c5750600114614029575b505061402792500383613fc8565b565b9093915060005260209081600020936000915b81831061405457505061402793508201013880614019565b8554888401850152948501948794509183019161403c565b91505061402794506020925060ff191682840152151560051b8201013880614019565b60005b8381106140a25750506000910152565b8181015183820152602001614092565b906020916140cb8151809281855285808601910161408f565b601f01601f1916010190565b600435906001600160a01b03821682036103db57565b604435906001600160a01b03821682036103db57565b602435906001600160a01b03821682036103db57565b9181601f840112156103db578235916001600160401b0383116103db57602083818601950101116103db57565b9060406003198301126103db5760043591602435906001600160401b0382116103db5761417591600401614119565b9091565b90815180825260208080930193019160005b828110614199575050505090565b83518552938101939281019260010161418b565b908082519081815260208091019281808460051b8301019501936000915b8483106141db5750505050505090565b90919293949584806141f9600193601f198682030187528a516140b2565b98019301930191949392906141cb565b6019548110156116685760196000527f944998273e477b495144fb8794c914197f3ccb46be2900f4698fd0ef743c96950190600090565b80548210156116685760005260206000200190600090565b9060048210156116685760108260011c6022019260041b1690565b9060048210156116685760108260011c6024019260041b1690565b9060048210156116685760108260011c6020019260041b1690565b9291926001600160401b038211610ac057604051916142d2601f8201601f191660200184613fc8565b8294818452818301116103db578281602093846000960137010152565b9080601f830112156103db5781602061430a933591016142a9565b90565b60406003198201126103db57600435906001600160401b0382116103db57614337916004016142ef565b9060243590565b602061435791816040519382858094519384920161408f565b8101601781520301902090565b6004359060ff821682036103db57565b602435906001600160401b03821682036103db57565b9190602083019260048210156117a05752565b60409060031901126103db576004359060243590565b96936001600160801b03614411969460e098946001600160401b03949c9b9c8b5260018060a01b031660208b015216604089015216606087015263ffffffff80921660808701521660a08501526101008060c08601528401906140b2565b931515910152565b600435906001600160801b03821682036103db57565b602435906001600160801b03821682036103db57565b604435906001600160801b03821682036103db57565b359081151582036103db57565b6000915b6004831061447957505050565b6001906001600160801b038351168152602080910192019201919061446c565b6000546001600160a01b031633036144ad57565b60405163118cdaa760e01b8152336004820152602490fd5b60ff600254166144d157565b60405163d93c066560e01b8152600490fd5b6002600154146144f4576002600155565b604051633ee5aeb560e01b8152600490fd5b6001600160401b038111610ac05760051b60200190565b610140818303126103db576001600160401b039080358281116103db57836145469183016142ef565b93602093848301358481116103db57816145619185016142ef565b9460408401358581116103db578261457a9186016142ef565b9460608501356001600160801b03811681036103db579460808101358281116103db57846145a99183016142ef565b946145b660a0830161445b565b946145c360c0840161445b565b9460e08401358581116103db5784019180601f840112156103db578235926145ea84614506565b936145f86040519586613fc8565b808552838086019160051b830101928084116103db57848301915b848310614639575050505050509261012061010084013593013590811681036103db5790565b82358a81116103db578691614653848480948901016142ef565b815201920191614613565b9190916001600160801b0380809416911601918211612b0e57565b818110614684575050565b60008155600101614679565b9190601f811161469f57505050565b614027926000526020600020906020601f840160051c830193106146cb575b601f0160051c0190614679565b90915081906146be565b6146df8154613f57565b90816146e9575050565b81601f600093116001146146fb575055565b90808391825261471a601f60208420940160051c840160018501614679565b5555565b805490600160401b821015610ac05781612ab891600161474094018155614240565b9055565b6147509181019061451d565b969793989092959194885115610f8f576001600160801b03831615801561508c575b61507a576004546001600160401b0381166001600160401b038a1610610f8f5733600052600a6020526040600020600281015460ff8160481c1615908115615065575b506117c85733600052600d6020526001600160801b038060016147df88836040600020541661465e565b93015416911611610ad657670de0b6b3a76400006001600160801b0360025460081c166301e13380826001600160401b038d16020490620fffff6001600160801b0388160160141c0202043410611fe25789906001600160401b0360801b60016001600160401b038360801c160160801b16906001600160401b0360801b191617806004556148b8605c60405180936020614883818401978881519384920161408f565b8201903360601b60208301524260348301526001600160401b0360c01b9060401b16605482015203603c810184520182613fc8565b51902099604051906148c982613f91565b8a82523360208301526001600160801b03851660408301526001600160401b034216606083015260006080830152600160a0830152151560c082015287151560e08201528a600052600660205260406000209080518051906001600160401b038211610ac0576149438261493d8654613f57565b86614690565b602090601f8311600114614ff857600293929160009183614fed575b50508160011b916000199060031b1c19161783555b60208101516001840180546001600160a01b039092166001600160a01b0319909216919091179055604080820151606083015160808085015160a086015160c08088015160e0988901519290981b61ffff60e01b1692901b63ffffffff60c01b1667ffffffffffffffff60801b94841b949094166001600160801b0390951694909417929092179190911793151560f01b60ff60f01b169390931790151560f81b6001600160f81b031916179290930191909155905192906001600160401b0390840190811190841117610ac057608083016040528252846020830152604082015284606082015288600052600760205260406000209080518051906001600160401b038211610ac0578190614a9482614a8e8754613f57565b87614690565b602090601f8311600114614f8157600092614f76575b50508160011b916000199060031b1c19161782555b60208101518051906001600160401b038211610ac0578190614af182614ae86001880154613f57565b60018801614690565b602090601f8311600114614f0457600092614ef9575b50508160011b916000199060031b1c19161760018301555b60408101518051906001600160401b038211610ac057614b4f82614b466002870154613f57565b60028701614690565b602090601f8311600114614e8657606093929160009183614e7b575b50508160011b916000199060031b1c19161760028401555b0151805190600160401b8211610ac0576003830154826003850155808310614e48575b5090600360208c969594930192016000526020600020916000905b828210614d595750505050614c4293614c339260209233600052600b8452614bed86604060002061471e565b33600052600d84526040600020906001600160801b038254918183160116906001600160801b03191617905580614d3e575b50816040519382858094519384920161408f565b8101601881520301902061471e565b80519060005b828110614d1f57505050614cef575b614cb0906001600160801b033416908460005260126020526040600020826001600160801b031982541617905560136020526001600160401b0380604060002092164201166001600160401b03198254161790556151b8565b817f7237b089d1a252ec5312d4f64b1378a99d12760dfcaa22429ba0bd7c31d3fc886040516020815280614ce9339560208301906140b2565b0390a390565b60195490600160401b821015610ac05783614d16612ab8846001614cb09601601955614209565b90559050614c57565b80614d3888614d33612b45600195876150d5565b61471e565b01614c48565b60005260168252614d5384604060002061471e565b38614c1f565b8091929394959650518051906001600160401b038211610ac057614d8782614d818854613f57565b88614690565b602090601f8311600114614dd8579282600194936020938695600092614dcd575b5050600019600383901b1c191690841b1787555b01940191018b959493929192614bc1565b015190503880614da8565b908660005260206000209160005b601f1985168110614e30575083602093600196938796938794601f19811610614e17575b505050811b018755614dbc565b015160001960f88460031b161c19169055388080614e0a565b91926020600181928685015181550194019201614de6565b600384016000526020600020908382015b8183018110614e69575050614ba6565b80614e756001926146d5565b01614e59565b015190503880614b6b565b906002850160005260206000209160005b601f1985168110614ee1575091839160019360609695601f19811610614ec8575b505050811b016002840155614b83565b015160001960f88460031b161c19169055388080614eb8565b91926020600181928685015181550194019201614e97565b015190503880614b07565b9250600185016000526020600020906000935b601f1984168510614f5b576001945083601f19811610614f42575b505050811b016001830155614b1f565b015160001960f88460031b161c19169055388080614f32565b81810151835560209485019460019093019290910190614f17565b015190503880614aaa565b9250846000526020600020906000935b601f1984168510614fd2576001945083601f19811610614fb9575b505050811b018255614abf565b015160001960f88460031b161c19169055388080614fac565b81810151835560209485019460019093019290910190614f91565b01519050388061495f565b908460005260206000209160005b601f198516811061504d575091839160019360029695601f19811610615034575b505050811b018355614974565b015160001960f88460031b161c19169055388080615027565b91926020600181928685015181550194019201615006565b90506001600160401b034291161115386147b5565b604051637ff0f53960e01b8152600490fd5b5060035460801c6001600160801b03841611614772565b906150ad82614506565b6150ba6040519182613fc8565b82815280926150cb601f1991614506565b0190602036910137565b80518210156116685760209160051b010190565b6001600160801b039182169082160391908211612b0e57565b6000198114612b0e5760010190565b8054908115612af8576000199182019161512b8383614240565b909182549160031b1b1916905555565b9061514582614506565b6151526040519182613fc8565b8281528092615163601f1991614506565b019060005b82811061517457505050565b806060602080938501015201615168565b6001600160401b039162278d0062263b806151a76001600160801b0394614273565b959054931601049260031b1c160290565b336000908152601e60205260408120546001600160a01b031691826151dc57505050565b6127106001600160801b0380926001600160401b0360045460401c160216041690828152601f60205260408120828154019055808284828215615260575b839283928392f115615254575060207fa81d02e535011fd802e58bd5357645a72a434aa58d1d854c19616ea74ca58d4091604051908152a2565b604051903d90823e3d90fd5b506108fc61521a565b6001600160a01b039091166000818152602660205260408120549092919060ff16156104505782526027602052604082205491670de0b6b3a7640000918281029281840414901517156152eb578282018092116152eb5760001982019182116152eb5782156152d757500490565b634e487b7160e01b81526012600452602490fd5b634e487b7160e01b81526011600452602490fd5b908160209103126103db575180151581036103db5790565b91600360ff841611610f8f576001600160401b03918260045416838216908110610f8f577f12f97e9c312855c3f48ec2b207c7ed3789fdf1e5250bceda743d6b99db15e54993615492936001600160a01b039081169081151590816154ec575b816154d3575b506154ad575b5033600052600a6020526040600020916002830190828254914282841611600014615497575050815467ffffffffffffffff19811690841686018416178255505b82546001600160a01b0319163317835561541360016153e28961428e565b91906001600160801b03928391549060031b1c169501906001600160801b031995868354161782556125cb8a614258565b805460ff60401b1916604088901b60ff60401b16178155600160481b60ff60481b1982541617905533600052600f60205260406000209042166001600160401b0319825416179055600e60205260406000209081541690556040519182913395839092916001600160401b0360209160ff604085019616845216910152565b0390a2565b420116906001600160401b0319161781556153c4565b33600052601e6020526040600020906001600160601b0360a01b82541617905538615383565b905033600052601e60205260406000205416153861537d565b338314159150615377565b6029549060ff8260a01c16156105e357602a5461271090810391818311612b0e57828102928184041490151715612b0e5760405163c2507ac160e01b81529104600482015290602090829060249082906001600160a01b03165afa9081156105d757600091615564575090565b906020823d821161558d575b8161557d60209383613fc8565b8101031261558a57505190565b80fd5b3d915061557056fea2646970667358221220a9ebf96c9cbf3174c73e952d446e67a80d07c9fe47579efa936253d76596ac0064736f6c63430008140033",
  "devdoc": {
    "author": "GDrive Team",
    "details": "A comprehensive, gas-efficient decentralized storage solution",
    "errors": {
      "EnforcedPause()": [
        {
          "details": "The operation failed because the contract is paused."
        }
      ],
      "ExpectedPause()": [
        {
          "details": "The operation failed because the contract is not paused."
        }
      ],
      "OwnableInvalidOwner(address)": [
        {
          "details": "The owner is not a valid owner account. (eg. `address(0)`)"
        }
      ],
      "OwnableUnauthorizedAccount(address)": [
        {
          "details": "The caller account is not authorized to perform an operation."
        }
      ],
      "ReentrancyGuardReentrantCall()": [
        {
          "details": "Unauthorized reentrant call."
        }
      ]
    },
    "events": {
      "Paused(address)": {
        "details": "Emitted when the pause is triggered by `account`."
      },
      "Unpaused(address)": {
        "details": "Emitted when the pause is lifted by `account`."
      }
    },
    "kind": "dev",
    "methods": {
      "accessFileViaLink(bytes32,string)": {
        "details": "Access file through share link (gas optimized)"
      },
      "addPaymentToken(address,uint256)": {
        "details": "Add a new supported payment token",
        "params": {
          "price": "Price in wei per token",
          "token": "Address of the ERC20 token"
        }
      },
      "calculateGDVAmount(uint256)": {
        "details": "Calculate GDV amount needed for payment with discount",
        "params": {
          "ethAmount": "Amount in wei"
        },
        "returns": {
          "gdvAmount": "Amount of GDV tokens needed"
        }
      },
      "calculateTokenAmount(uint256,address)": {
        "details": "Calculate token amount needed for payment",
        "params": {
          "ethAmount": "Amount in wei",
          "token": "Address of the payment token"
        },
        "returns": {
          "tokenAmount": "Amount of tokens needed"
        }
      },
      "convertGDVToEth(uint256)": {
        "details": "Convert GDV tokens to ETH",
        "params": {
          "gdvAmount": "Amount of GDV tokens to convert"
        }
      },
      "createFolder(string,bytes32,bool)": {
        "details": "Create a new folder (gas optimized)"
      },
      "createShareLink(bytes32,uint64,uint32,string)": {
        "details": "Create a shareable link for a file"
      },
      "getFileDetails(bytes32)": {
        "details": "Get file details with access control"
      },
      "getSubscriptionTiers()": {
        "details": "Get subscription pricing"
      },
      "getUserFiles(address)": {
        "details": "Get user's files for dashboard display"
      },
      "getUserStats(address)": {
        "details": "Get user's storage statistics"
      },
      "owner()": {
        "details": "Returns the address of the current owner."
      },
      "paused()": {
        "details": "Returns true if the contract is paused, and false otherwise."
      },
      "purchaseSubscription(uint8,uint64,address)": {
        "details": "Purchase or upgrade subscription (gas optimized)"
      },
      "purchaseSubscriptionWithGDV(uint8,uint64,address)": {
        "details": "Purchase subscription with GDV payment",
        "params": {
          "duration": "Duration in seconds",
          "referrer": "Referrer address",
          "tier": "Subscription tier"
        }
      },
      "purchaseSubscriptionWithToken(uint8,uint64,address,address)": {
        "details": "Purchase subscription with token payment",
        "params": {
          "duration": "Duration in seconds",
          "referrer": "Referrer address",
          "tier": "Subscription tier",
          "token": "Address of the payment token"
        }
      },
      "removePaymentToken(address)": {
        "details": "Remove a supported payment token",
        "params": {
          "token": "Address of the ERC20 token"
        }
      },
      "renounceOwnership()": {
        "details": "Leaves the contract without owner. It will not be possible to call `onlyOwner` functions. Can only be called by the current owner. NOTE: Renouncing ownership will leave the contract without an owner, thereby disabling any functionality that is only available to the owner."
      },
      "setDefaultPaymentToken(address)": {
        "details": "Set default payment token",
        "params": {
          "token": "Address of the ERC20 token"
        }
      },
      "setGDVEnabled(bool)": {
        "details": "Enable/disable GDV payments",
        "params": {
          "enabled": "Whether GDV payments should be enabled"
        }
      },
      "setGDVToken(address)": {
        "details": "Set GDV token address",
        "params": {
          "token": "Address of the GDV token contract"
        }
      },
      "transferOwnership(address)": {
        "details": "Transfers ownership of the contract to a new account (`newOwner`). Can only be called by the current owner."
      },
      "updateGDVDiscount(uint256)": {
        "details": "Update GDV discount percentage",
        "params": {
          "discount": "New discount percentage in basis points"
        }
      },
      "updateTokenPrice(address,uint256)": {
        "details": "Update token price",
        "params": {
          "newPrice": "New price in wei per token",
          "token": "Address of the ERC20 token"
        }
      },
      "uploadFileWithGDV(bytes)": {
        "details": "Upload file with GDV payment",
        "params": {
          "params": "Encoded parameters"
        }
      },
      "uploadFileWithToken(bytes,address)": {
        "details": "Upload file with token payment",
        "params": {
          "params": "Encoded parameters",
          "token": "Address of the payment token"
        }
      },
      "withdrawTokens(address,uint256)": {
        "details": "Withdraw tokens from contract",
        "params": {
          "amount": "Amount to withdraw",
          "token": "Address of the token to withdraw"
        }
      }
    },
    "title": "GDrive 2.0 - Gas Optimized Decentralized Storage Contract",
    "version": 1
  },
  "userdoc": {
    "kind": "user",
    "methods": {},
    "version": 1
  },
  "storageLayout": {
    "storage": [
      {
        "astId": 8,
        "contract": "contracts/GDrive.sol:GDrive",
        "label": "_owner",
        "offset": 0,
        "slot": "0",
        "type": "t_address"
      },
      {
        "astId": 1061,
        "contract": "contracts/GDrive.sol:GDrive",
        "label": "_status",
        "offset": 0,
        "slot": "1",
        "type": "t_uint256"
      },
      {
        "astId": 942,
        "contract": "contracts/GDrive.sol:GDrive",
        "label": "_paused",
        "offset": 0,
        "slot": "2",
        "type": "t_bool"
      },
      {
        "astId": 1517,
        "contract": "contracts/GDrive.sol:GDrive",
        "label": "storageRatePerMBPerYear",
        "offset": 1,
        "slot": "2",
        "type": "t_uint128"
      },
      {
        "astId": 1520,
        "contract": "contracts/GDrive.sol:GDrive",
        "label": "bandwidthRatePerGB",
        "offset": 0,
        "slot": "3",
        "type": "t_uint128"
      },
      {
        "astId": 1529,
        "contract": "contracts/GDrive.sol:GDrive",
        "label": "maxFileSize",
        "offset": 16,
        "slot": "3",
        "type": "t_uint128"
      },
      {
        "astId": 1532,
        "contract": "contracts/GDrive.sol:GDrive",
        "label": "minimumStoragePeriod",
        "offset": 0,
        "slot": "4",
        "type": "t_uint64"
      },
      {
        "astId": 1535,
        "contract": "contracts/GDrive.sol:GDrive",
        "label": "referralRewardPercentage",
        "offset": 8,
        "slot": "4",
        "type": "t_uint64"
      },
      {
        "astId": 1537,
        "contract": "contracts/GDrive.sol:GDrive",
        "label": "_fileIdCounter",
        "offset": 16,
        "slot": "4",
        "type": "t_uint64"
      },
      {
        "astId": 1539,
        "contract": "contracts/GDrive.sol:GDrive",
        "label": "_folderIdCounter",
        "offset": 24,
        "slot": "4",
        "type": "t_uint64"
      },
      {
        "astId": 1541,
        "contract": "contracts/GDrive.sol:GDrive",
        "label": "_shareLinkIdCounter",
        "offset": 0,
        "slot": "5",
        "type": "t_uint64"
      },
      {
        "astId": 1543,
        "contract": "contracts/GDrive.sol:GDrive",
        "label": "_reserved",
        "offset": 8,
        "slot": "5",
        "type": "t_uint64"
      },
      {
        "astId": 1548,
        "contract": "contracts/GDrive.sol:GDrive",
        "label": "files",
        "offset": 0,
        "slot": "6",
        "type": "t_mapping(t_bytes32,t_struct(File)1427_storage)"
      },
      {
        "astId": 1553,
        "contract": "contracts/GDrive.sol:GDrive",
        "label": "fileMetadata",
        "offset": 0,
        "slot": "7",
        "type": "t_mapping(t_bytes32,t_struct(FileMetadata)1454_storage)"
      },
      {
        "astId": 1558,
        "contract": "contracts/GDrive.sol:GDrive",
        "label": "folders",
        "offset": 0,
        "slot": "8",
        "type": "t_mapping(t_bytes32,t_struct(Folder)1465_storage)"
      },
      {
        "astId": 1563,
        "contract": "contracts/GDrive.sol:GDrive",
        "label": "shareLinks",
        "offset": 0,
        "slot": "9",
        "type": "t_mapping(t_bytes32,t_struct(ShareLink)1478_storage)"
      },
      {
        "astId": 1568,
        "contract": "contracts/GDrive.sol:GDrive",
        "label": "subscriptions",
        "offset": 0,
        "slot": "10",
        "type": "t_mapping(t_address,t_struct(Subscription)1491_storage)"
      },
      {
        "astId": 1573,
        "contract": "contracts/GDrive.sol:GDrive",
        "label": "userFiles",
        "offset": 0,
        "slot": "11",
        "type": "t_mapping(t_address,t_array(t_bytes32)dyn_storage)"
      },
      {
        "astId": 1578,
        "contract": "contracts/GDrive.sol:GDrive",
        "label": "userFolders",
        "offset": 0,
        "slot": "12",
        "type": "t_mapping(t_address,t_array(t_bytes32)dyn_storage)"
      },
      {
        "astId": 1582,
        "contract": "contracts/GDrive.sol:GDrive",
        "label": "userStorageUsed",
        "offset": 0,
        "slot": "13",
        "type": "t_mapping(t_address,t_uint128)"
      },
      {
        "astId": 1586,
        "contract": "contracts/GDrive.sol:GDrive",
        "label": "userBandwidthUsed",
        "offset": 0,
        "slot": "14",
        "type": "t_mapping(t_address,t_uint128)"
      },
      {
        "astId": 1590,
        "contract": "contracts/GDrive.sol:GDrive",
        "label": "lastBandwidthReset",
        "offset": 0,
        "slot": "15",
        "type": "t_mapping(t_address,t_uint64)"
      },
      {
        "astId": 1597,
        "contract": "contracts/GDrive.sol:GDrive",
        "label": "filePermissions",
        "offset": 0,
        "slot": "16",
        "type": "t_mapping(t_bytes32,t_mapping(t_address,t_enum(Permission)1496))"
      },
      {
        "astId": 1604,
        "contract": "contracts/GDrive.sol:GDrive",
        "label": "folderPermissions",
        "offset": 0,
        "slot": "17",
        "type": "t_mapping(t_bytes32,t_mapping(t_address,t_enum(Permission)1496))"
      },
      {
        "astId": 1608,
        "contract": "contracts/GDrive.sol:GDrive",
        "label": "filePayments",
        "offset": 0,
        "slot": "18",
        "type": "t_mapping(t_bytes32,t_uint128)"
      },
      {
        "astId": 1612,
        "contract": "contracts/GDrive.sol:GDrive",
        "label": "fileExpiryDates",
        "offset": 0,
        "slot": "19",
        "type": "t_mapping(t_bytes32,t_uint64)"
      },
      {
        "astId": 1616,
        "contract": "contracts/GDrive.sol:GDrive",
        "label": "userBalances",
        "offset": 0,
        "slot": "20",
        "type": "t_mapping(t_address,t_uint128)"
      },
      {
        "astId": 1621,
        "contract": "contracts/GDrive.sol:GDrive",
        "label": "folderSubFolders",
        "offset": 0,
        "slot": "21",
        "type": "t_mapping(t_bytes32,t_array(t_bytes32)dyn_storage)"
      },
      {
        "astId": 1626,
        "contract": "contracts/GDrive.sol:GDrive",
        "label": "folderFiles",
        "offset": 0,
        "slot": "22",
        "type": "t_mapping(t_bytes32,t_array(t_bytes32)dyn_storage)"
      },
      {
        "astId": 1631,
        "contract": "contracts/GDrive.sol:GDrive",
        "label": "taggedFiles",
        "offset": 0,
        "slot": "23",
        "type": "t_mapping(t_string_memory_ptr,t_array(t_bytes32)dyn_storage)"
      },
      {
        "astId": 1636,
        "contract": "contracts/GDrive.sol:GDrive",
        "label": "fileTypeIndex",
        "offset": 0,
        "slot": "24",
        "type": "t_mapping(t_string_memory_ptr,t_array(t_bytes32)dyn_storage)"
      },
      {
        "astId": 1639,
        "contract": "contracts/GDrive.sol:GDrive",
        "label": "publicFiles",
        "offset": 0,
        "slot": "25",
        "type": "t_array(t_bytes32)dyn_storage"
      },
      {
        "astId": 1642,
        "contract": "contracts/GDrive.sol:GDrive",
        "label": "publicFolders",
        "offset": 0,
        "slot": "26",
        "type": "t_array(t_bytes32)dyn_storage"
      },
      {
        "astId": 1646,
        "contract": "contracts/GDrive.sol:GDrive",
        "label": "shareLinkPasswords",
        "offset": 0,
        "slot": "27",
        "type": "t_mapping(t_bytes32,t_string_storage)"
      },
      {
        "astId": 1651,
        "contract": "contracts/GDrive.sol:GDrive",
        "label": "PaidShareLinks",
        "offset": 0,
        "slot": "28",
        "type": "t_mapping(t_bytes32,t_struct(PaidShareLink)1444_storage)"
      },
      {
        "astId": 1655,
        "contract": "contracts/GDrive.sol:GDrive",
        "label": "earnedRevenue",
        "offset": 0,
        "slot": "29",
        "type": "t_mapping(t_address,t_uint128)"
      },
      {
        "astId": 1659,
        "contract": "contracts/GDrive.sol:GDrive",
        "label": "referrers",
        "offset": 0,
        "slot": "30",
        "type": "t_mapping(t_address,t_address)"
      },
      {
        "astId": 1663,
        "contract": "contracts/GDrive.sol:GDrive",
        "label": "referralRewards",
        "offset": 0,
        "slot": "31",
        "type": "t_mapping(t_address,t_uint256)"
      },
      {
        "astId": 1667,
        "contract": "contracts/GDrive.sol:GDrive",
        "label": "tierStorageLimits",
        "offset": 0,
        "slot": "32",
        "type": "t_array(t_uint128)4_storage"
      },
      {
        "astId": 1671,
        "contract": "contracts/GDrive.sol:GDrive",
        "label": "tierBandwidthLimits",
        "offset": 0,
        "slot": "34",
        "type": "t_array(t_uint128)4_storage"
      },
      {
        "astId": 1675,
        "contract": "contracts/GDrive.sol:GDrive",
        "label": "tierPrices",
        "offset": 0,
        "slot": "36",
        "type": "t_array(t_uint128)4_storage"
      },
      {
        "astId": 1679,
        "contract": "contracts/GDrive.sol:GDrive",
        "label": "supportedTokens",
        "offset": 0,
        "slot": "38",
        "type": "t_mapping(t_address,t_bool)"
      },
      {
        "astId": 1683,
        "contract": "contracts/GDrive.sol:GDrive",
        "label": "tokenPrices",
        "offset": 0,
        "slot": "39",
        "type": "t_mapping(t_address,t_uint256)"
      },
      {
        "astId": 1685,
        "contract": "contracts/GDrive.sol:GDrive",
        "label": "defaultPaymentToken",
        "offset": 0,
        "slot": "40",
        "type": "t_address"
      },
      {
        "astId": 1796,
        "contract": "contracts/GDrive.sol:GDrive",
        "label": "gdvToken",
        "offset": 0,
        "slot": "41",
        "type": "t_contract(IGDVToken)1403"
      },
      {
        "astId": 1798,
        "contract": "contracts/GDrive.sol:GDrive",
        "label": "gdvEnabled",
        "offset": 20,
        "slot": "41",
        "type": "t_bool"
      },
      {
        "astId": 1800,
        "contract": "contracts/GDrive.sol:GDrive",
        "label": "gdvDiscount",
        "offset": 0,
        "slot": "42",
        "type": "t_uint256"
      }
    ],
    "types": {
      "t_address": {
        "encoding": "inplace",
        "label": "address",
        "numberOfBytes": "20"
      },
      "t_array(t_bytes32)dyn_storage": {
        "base": "t_bytes32",
        "encoding": "dynamic_array",
        "label": "bytes32[]",
        "numberOfBytes": "32"
      },
      "t_array(t_string_storage)dyn_storage": {
        "base": "t_string_storage",
        "encoding": "dynamic_array",
        "label": "string[]",
        "numberOfBytes": "32"
      },
      "t_array(t_uint128)4_storage": {
        "base": "t_uint128",
        "encoding": "inplace",
        "label": "uint128[4]",
        "numberOfBytes": "64"
      },
      "t_bool": {
        "encoding": "inplace",
        "label": "bool",
        "numberOfBytes": "1"
      },
      "t_bytes32": {
        "encoding": "inplace",
        "label": "bytes32",
        "numberOfBytes": "32"
      },
      "t_contract(IGDVToken)1403": {
        "encoding": "inplace",
        "label": "contract IGDVToken",
        "numberOfBytes": "20"
      },
      "t_enum(Permission)1496": {
        "encoding": "inplace",
        "label": "enum GDrive.Permission",
        "numberOfBytes": "1"
      },
      "t_mapping(t_address,t_address)": {
        "encoding": "mapping",
        "key": "t_address",
        "label": "mapping(address => address)",
        "numberOfBytes": "32",
        "value": "t_address"
      },
      "t_mapping(t_address,t_array(t_bytes32)dyn_storage)": {
        "encoding": "mapping",
        "key": "t_address",
        "label": "mapping(address => bytes32[])",
        "numberOfBytes": "32",
        "value": "t_array(t_bytes32)dyn_storage"
      },
      "t_mapping(t_address,t_bool)": {
        "encoding": "mapping",
        "key": "t_address",
        "label": "mapping(address => bool)",
        "numberOfBytes": "32",
        "value": "t_bool"
      },
      "t_mapping(t_address,t_enum(Permission)1496)": {
        "encoding": "mapping",
        "key": "t_address",
        "label": "mapping(address => enum GDrive.Permission)",
        "numberOfBytes": "32",
        "value": "t_enum(Permission)1496"
      },
      "t_mapping(t_address,t_struct(Subscription)1491_storage)": {
        "encoding": "mapping",
        "key": "t_address",
        "label": "mapping(address => struct GDrive.Subscription)",
        "numberOfBytes": "32",
        "value": "t_struct(Subscription)1491_storage"
      },
      "t_mapping(t_address,t_uint128)": {
        "encoding": "mapping",
        "key": "t_address",
        "label": "mapping(address => uint128)",
        "numberOfBytes": "32",
        "value": "t_uint128"
      },
      "t_mapping(t_address,t_uint256)": {
        "encoding": "mapping",
        "key": "t_address",
        "label": "mapping(address => uint256)",
        "numberOfBytes": "32",
        "value": "t_uint256"
      },
      "t_mapping(t_address,t_uint64)": {
        "encoding": "mapping",
        "key": "t_address",
        "label": "mapping(address => uint64)",
        "numberOfBytes": "32",
        "value": "t_uint64"
      },
      "t_mapping(t_bytes32,t_array(t_bytes32)dyn_storage)": {
        "encoding": "mapping",
        "key": "t_bytes32",
        "label": "mapping(bytes32 => bytes32[])",
        "numberOfBytes": "32",
        "value": "t_array(t_bytes32)dyn_storage"
      },
      "t_mapping(t_bytes32,t_mapping(t_address,t_enum(Permission)1496))": {
        "encoding": "mapping",
        "key": "t_bytes32",
        "label": "mapping(bytes32 => mapping(address => enum GDrive.Permission))",
        "numberOfBytes": "32",
        "value": "t_mapping(t_address,t_enum(Permission)1496)"
      },
      "t_mapping(t_bytes32,t_string_storage)": {
        "encoding": "mapping",
        "key": "t_bytes32",
        "label": "mapping(bytes32 => string)",
        "numberOfBytes": "32",
        "value": "t_string_storage"
      },
      "t_mapping(t_bytes32,t_struct(File)1427_storage)": {
        "encoding": "mapping",
        "key": "t_bytes32",
        "label": "mapping(bytes32 => struct GDrive.File)",
        "numberOfBytes": "32",
        "value": "t_struct(File)1427_storage"
      },
      "t_mapping(t_bytes32,t_struct(FileMetadata)1454_storage)": {
        "encoding": "mapping",
        "key": "t_bytes32",
        "label": "mapping(bytes32 => struct GDrive.FileMetadata)",
        "numberOfBytes": "32",
        "value": "t_struct(FileMetadata)1454_storage"
      },
      "t_mapping(t_bytes32,t_struct(Folder)1465_storage)": {
        "encoding": "mapping",
        "key": "t_bytes32",
        "label": "mapping(bytes32 => struct GDrive.Folder)",
        "numberOfBytes": "32",
        "value": "t_struct(Folder)1465_storage"
      },
      "t_mapping(t_bytes32,t_struct(PaidShareLink)1444_storage)": {
        "encoding": "mapping",
        "key": "t_bytes32",
        "label": "mapping(bytes32 => struct GDrive.PaidShareLink)",
        "numberOfBytes": "32",
        "value": "t_struct(PaidShareLink)1444_storage"
      },
      "t_mapping(t_bytes32,t_struct(ShareLink)1478_storage)": {
        "encoding": "mapping",
        "key": "t_bytes32",
        "label": "mapping(bytes32 => struct GDrive.ShareLink)",
        "numberOfBytes": "32",
        "value": "t_struct(ShareLink)1478_storage"
      },
      "t_mapping(t_bytes32,t_uint128)": {
        "encoding": "mapping",
        "key": "t_bytes32",
        "label": "mapping(bytes32 => uint128)",
        "numberOfBytes": "32",
        "value": "t_uint128"
      },
      "t_mapping(t_bytes32,t_uint64)": {
        "encoding": "mapping",
        "key": "t_bytes32",
        "label": "mapping(bytes32 => uint64)",
        "numberOfBytes": "32",
        "value": "t_uint64"
      },
      "t_mapping(t_string_memory_ptr,t_array(t_bytes32)dyn_storage)": {
        "encoding": "mapping",
        "key": "t_string_memory_ptr",
        "label": "mapping(string => bytes32[])",
        "numberOfBytes": "32",
        "value": "t_array(t_bytes32)dyn_storage"
      },
      "t_string_memory_ptr": {
        "encoding": "bytes",
        "label": "string",
        "numberOfBytes": "32"
      },
      "t_string_storage": {
        "encoding": "bytes",
        "label": "string",
        "numberOfBytes": "32"
      },
      "t_struct(File)1427_storage": {
        "encoding": "inplace",
        "label": "struct GDrive.File",
        "members": [
          {
            "astId": 1412,
            "contract": "contracts/GDrive.sol:GDrive",
            "label": "cid",
            "offset": 0,
            "slot": "0",
            "type": "t_string_storage"
          },
          {
            "astId": 1414,
            "contract": "contracts/GDrive.sol:GDrive",
            "label": "owner",
            "offset": 0,
            "slot": "1",
            "type": "t_address"
          },
          {
            "astId": 1416,
            "contract": "contracts/GDrive.sol:GDrive",
            "label": "size",
            "offset": 0,
            "slot": "2",
            "type": "t_uint128"
          },
          {
            "astId": 1418,
            "contract": "contracts/GDrive.sol:GDrive",
            "label": "uploadDate",
            "offset": 16,
            "slot": "2",
            "type": "t_uint64"
          },
          {
            "astId": 1420,
            "contract": "contracts/GDrive.sol:GDrive",
            "label": "downloadCount",
            "offset": 24,
            "slot": "2",
            "type": "t_uint32"
          },
          {
            "astId": 1422,
            "contract": "contracts/GDrive.sol:GDrive",
            "label": "version",
            "offset": 28,
            "slot": "2",
            "type": "t_uint16"
          },
          {
            "astId": 1424,
            "contract": "contracts/GDrive.sol:GDrive",
            "label": "isEncrypted",
            "offset": 30,
            "slot": "2",
            "type": "t_bool"
          },
          {
            "astId": 1426,
            "contract": "contracts/GDrive.sol:GDrive",
            "label": "isPublic",
            "offset": 31,
            "slot": "2",
            "type": "t_bool"
          }
        ],
        "numberOfBytes": "96"
      },
      "t_struct(FileMetadata)1454_storage": {
        "encoding": "inplace",
        "label": "struct GDrive.FileMetadata",
        "members": [
          {
            "astId": 1446,
            "contract": "contracts/GDrive.sol:GDrive",
            "label": "name",
            "offset": 0,
            "slot": "0",
            "type": "t_string_storage"
          },
          {
            "astId": 1448,
            "contract": "contracts/GDrive.sol:GDrive",
            "label": "fileType",
            "offset": 0,
            "slot": "1",
            "type": "t_string_storage"
          },
          {
            "astId": 1450,
            "contract": "contracts/GDrive.sol:GDrive",
            "label": "description",
            "offset": 0,
            "slot": "2",
            "type": "t_string_storage"
          },
          {
            "astId": 1453,
            "contract": "contracts/GDrive.sol:GDrive",
            "label": "tags",
            "offset": 0,
            "slot": "3",
            "type": "t_array(t_string_storage)dyn_storage"
          }
        ],
        "numberOfBytes": "128"
      },
      "t_struct(Folder)1465_storage": {
        "encoding": "inplace",
        "label": "struct GDrive.Folder",
        "members": [
          {
            "astId": 1456,
            "contract": "contracts/GDrive.sol:GDrive",
            "label": "name",
            "offset": 0,
            "slot": "0",
            "type": "t_string_storage"
          },
          {
            "astId": 1458,
            "contract": "contracts/GDrive.sol:GDrive",
            "label": "owner",
            "offset": 0,
            "slot": "1",
            "type": "t_address"
          },
          {
            "astId": 1460,
            "contract": "contracts/GDrive.sol:GDrive",
            "label": "parentFolderId",
            "offset": 0,
            "slot": "2",
            "type": "t_bytes32"
          },
          {
            "astId": 1462,
            "contract": "contracts/GDrive.sol:GDrive",
            "label": "createdDate",
            "offset": 0,
            "slot": "3",
            "type": "t_uint64"
          },
          {
            "astId": 1464,
            "contract": "contracts/GDrive.sol:GDrive",
            "label": "isPublic",
            "offset": 8,
            "slot": "3",
            "type": "t_bool"
          }
        ],
        "numberOfBytes": "128"
      },
      "t_struct(PaidShareLink)1444_storage": {
        "encoding": "inplace",
        "label": "struct GDrive.PaidShareLink",
        "members": [
          {
            "astId": 1429,
            "contract": "contracts/GDrive.sol:GDrive",
            "label": "fileId",
            "offset": 0,
            "slot": "0",
            "type": "t_bytes32"
          },
          {
            "astId": 1431,
            "contract": "contracts/GDrive.sol:GDrive",
            "label": "creator",
            "offset": 0,
            "slot": "1",
            "type": "t_address"
          },
          {
            "astId": 1433,
            "contract": "contracts/GDrive.sol:GDrive",
            "label": "pricePerAccess",
            "offset": 0,
            "slot": "2",
            "type": "t_uint128"
          },
          {
            "astId": 1435,
            "contract": "contracts/GDrive.sol:GDrive",
            "label": "expiryDate",
            "offset": 16,
            "slot": "2",
            "type": "t_uint64"
          },
          {
            "astId": 1437,
            "contract": "contracts/GDrive.sol:GDrive",
            "label": "accessCount",
            "offset": 24,
            "slot": "2",
            "type": "t_uint32"
          },
          {
            "astId": 1439,
            "contract": "contracts/GDrive.sol:GDrive",
            "label": "maxAccess",
            "offset": 28,
            "slot": "2",
            "type": "t_uint32"
          },
          {
            "astId": 1441,
            "contract": "contracts/GDrive.sol:GDrive",
            "label": "password",
            "offset": 0,
            "slot": "3",
            "type": "t_string_storage"
          },
          {
            "astId": 1443,
            "contract": "contracts/GDrive.sol:GDrive",
            "label": "isActive",
            "offset": 0,
            "slot": "4",
            "type": "t_bool"
          }
        ],
        "numberOfBytes": "160"
      },
      "t_struct(ShareLink)1478_storage": {
        "encoding": "inplace",
        "label": "struct GDrive.ShareLink",
        "members": [
          {
            "astId": 1467,
            "contract": "contracts/GDrive.sol:GDrive",
            "label": "fileId",
            "offset": 0,
            "slot": "0",
            "type": "t_bytes32"
          },
          {
            "astId": 1469,
            "contract": "contracts/GDrive.sol:GDrive",
            "label": "creator",
            "offset": 0,
            "slot": "1",
            "type": "t_address"
          },
          {
            "astId": 1471,
            "contract": "contracts/GDrive.sol:GDrive",
            "label": "expiryDate",
            "offset": 20,
            "slot": "1",
            "type": "t_uint64"
          },
          {
            "astId": 1473,
            "contract": "contracts/GDrive.sol:GDrive",
            "label": "accessCount",
            "offset": 28,
            "slot": "1",
            "type": "t_uint32"
          },
          {
            "astId": 1475,
            "contract": "contracts/GDrive.sol:GDrive",
            "label": "maxAccess",
            "offset": 0,
            "slot": "2",
            "type": "t_uint32"
          },
          {
            "astId": 1477,
            "contract": "contracts/GDrive.sol:GDrive",
            "label": "isActive",
            "offset": 4,
            "slot": "2",
            "type": "t_bool"
          }
        ],
        "numberOfBytes": "96"
      },
      "t_struct(Subscription)1491_storage": {
        "encoding": "inplace",
        "label": "struct GDrive.Subscription",
        "members": [
          {
            "astId": 1480,
            "contract": "contracts/GDrive.sol:GDrive",
            "label": "user",
            "offset": 0,
            "slot": "0",
            "type": "t_address"
          },
          {
            "astId": 1482,
            "contract": "contracts/GDrive.sol:GDrive",
            "label": "storageLimit",
            "offset": 0,
            "slot": "1",
            "type": "t_uint128"
          },
          {
            "astId": 1484,
            "contract": "contracts/GDrive.sol:GDrive",
            "label": "bandwidthLimit",
            "offset": 16,
            "slot": "1",
            "type": "t_uint128"
          },
          {
            "astId": 1486,
            "contract": "contracts/GDrive.sol:GDrive",
            "label": "expiryDate",
            "offset": 0,
            "slot": "2",
            "type": "t_uint64"
          },
          {
            "astId": 1488,
            "contract": "contracts/GDrive.sol:GDrive",
            "label": "tier",
            "offset": 8,
            "slot": "2",
            "type": "t_uint8"
          },
          {
            "astId": 1490,
            "contract": "contracts/GDrive.sol:GDrive",
            "label": "isActive",
            "offset": 9,
            "slot": "2",
            "type": "t_bool"
          }
        ],
        "numberOfBytes": "96"
      },
      "t_uint128": {
        "encoding": "inplace",
        "label": "uint128",
        "numberOfBytes": "16"
      },
      "t_uint16": {
        "encoding": "inplace",
        "label": "uint16",
        "numberOfBytes": "2"
      },
      "t_uint256": {
        "encoding": "inplace",
        "label": "uint256",
        "numberOfBytes": "32"
      },
      "t_uint32": {
        "encoding": "inplace",
        "label": "uint32",
        "numberOfBytes": "4"
      },
      "t_uint64": {
        "encoding": "inplace",
        "label": "uint64",
        "numberOfBytes": "8"
      },
      "t_uint8": {
        "encoding": "inplace",
        "label": "uint8",
        "numberOfBytes": "1"
      }
    }
  }
}